{
  "transactions": [
    {
      "hash": "0x772971ffbfa738be612b050d23c45d2a116077863f690647b2596f3c73afade3",
      "transactionType": "CALL",
      "contractName": null,
      "contractAddress": "0x83133ab2c66b6d48f3526390b2e1fb743d441196",
      "function": "createVault(string,string,string,address,address,address,address,uint256,uint256)",
      "arguments": [
        "sBTC Yield Vault",
        "rfysBTC",
        "",
        "0x2508FC3487c21f67F30eDeC94afB24fdF6735C76",
        "0x7D726330f35bA77Cf1f33aDEB7fd5514D1c9E12f",
        "0x7D726330f35bA77Cf1f33aDEB7fd5514D1c9E12f",
        "0x0000000000000000000000000000000000000000",
        "604800",
        "5000000000000"
      ],
      "transaction": {
        "from": "0x7d726330f35ba77cf1f33adeb7fd5514d1c9e12f",
        "to": "0x83133ab2c66b6d48f3526390b2e1fb743d441196",
        "gas": "0x82f38",
        "value": "0x0",
        "input": "0xeaaaa1eb0000000000000000000000000000000000000000000000000000000000000120000000000000000000000000000000000000000000000000000000000000016000000000000000000000000000000000000000000000000000000000000001a00000000000000000000000002508fc3487c21f67f30edec94afb24fdf6735c760000000000000000000000007d726330f35ba77cf1f33adeb7fd5514d1c9e12f0000000000000000000000007d726330f35ba77cf1f33adeb7fd5514d1c9e12f00000000000000000000000000000000000000000000000000000000000000000000000000000000000000000000000000000000000000000000000000093a800000000000000000000000000000000000000000000000000000048c27395000000000000000000000000000000000000000000000000000000000000000001073425443205969656c64205661756c7400000000000000000000000000000000000000000000000000000000000000000000000000000000000000000000000772667973425443000000000000000000000000000000000000000000000000000000000000000000000000000000000000000000000000000000000000000000",
        "nonce": "0x7",
        "chainId": "0xe35"
      },
      "additionalContracts": [
        {
          "transactionType": "CREATE",
          "contractName": null,
          "address": "0xc6ee2f629f3abae4962c1ef21bf48f7cebb2bb7e",
          "initCode": "0x3d602d80600a3d3981f3363d3d373d3d3d363d7393292e1c41a6240e05d4ef03967c891fab1af41c5af43d82803e903d91602b57fd5bf3"
        }
      ],
      "isFixedGasLimit": false
    }
  ],
  "receipts": [
    {
      "status": "0x1",
      "cumulativeGasUsed": "0x8fdc2",
      "logs": [
        {
          "address": "0xc6ee2f629f3abae4962c1ef21bf48f7cebb2bb7e",
          "topics": [
            "0x2f8788117e7eff1d82e926ec794901d17c78024a50270940304540a733656f0d",
            "0x0000000000000000000000000000000000000000000000000000000000000000",
            "0x0000000000000000000000007d726330f35ba77cf1f33adeb7fd5514d1c9e12f",
            "0x00000000000000000000000083133ab2c66b6d48f3526390b2e1fb743d441196"
          ],
          "data": "0x",
          "blockHash": "0xdb72e01e0225b23d2b66f9ba27ce61fba11defb2ad82ae5a718f2a5d8c9c3c52",
          "blockNumber": "0x40dfdd",
          "blockTimestamp": "0x69936500",
          "transactionHash": "0x772971ffbfa738be612b050d23c45d2a116077863f690647b2596f3c73afade3",
          "transactionIndex": "0x6",
          "logIndex": "0x4",
          "removed": false
        },
        {
          "address": "0xc6ee2f629f3abae4962c1ef21bf48f7cebb2bb7e",
          "topics": [
            "0x2f8788117e7eff1d82e926ec794901d17c78024a50270940304540a733656f0d",
            "0xfacaf2747a7486cf5730e9265973fb54447d3ace6e7e4711f6360826b0731941",
            "0x0000000000000000000000007d726330f35ba77cf1f33adeb7fd5514d1c9e12f",
            "0x00000000000000000000000083133ab2c66b6d48f3526390b2e1fb743d441196"
          ],
          "data": "0x",
          "blockHash": "0xdb72e01e0225b23d2b66f9ba27ce61fba11defb2ad82ae5a718f2a5d8c9c3c52",
          "blockNumber": "0x40dfdd",
          "blockTimestamp": "0x69936500",
          "transactionHash": "0x772971ffbfa738be612b050d23c45d2a116077863f690647b2596f3c73afade3",
          "transactionIndex": "0x6",
          "logIndex": "0x5",
          "removed": false
        },
        {
          "address": "0xc6ee2f629f3abae4962c1ef21bf48f7cebb2bb7e",
          "topics": [
            "0x2f8788117e7eff1d82e926ec794901d17c78024a50270940304540a733656f0d",
            "0x677de58ccf7b39e7c606acef7a04830bfe15f822dd06a02595207b50ff82b9cb",
            "0x0000000000000000000000007d726330f35ba77cf1f33adeb7fd5514d1c9e12f",
            "0x00000000000000000000000083133ab2c66b6d48f3526390b2e1fb743d441196"
          ],
          "data": "0x",
          "blockHash": "0xdb72e01e0225b23d2b66f9ba27ce61fba11defb2ad82ae5a718f2a5d8c9c3c52",
          "blockNumber": "0x40dfdd",
          "blockTimestamp": "0x69936500",
          "transactionHash": "0x772971ffbfa738be612b050d23c45d2a116077863f690647b2596f3c73afade3",
          "transactionIndex": "0x6",
          "logIndex": "0x6",
          "removed": false
        },
        {
          "address": "0xc6ee2f629f3abae4962c1ef21bf48f7cebb2bb7e",
          "topics": [
            "0xc7f505b2f371ae2175ee4913f4499e1f2633a7b5936321eed1cdaeb6115181d2"
          ],
          "data": "0x0000000000000000000000000000000000000000000000000000000000000001",
          "blockHash": "0xdb72e01e0225b23d2b66f9ba27ce61fba11defb2ad82ae5a718f2a5d8c9c3c52",
          "blockNumber": "0x40dfdd",
          "blockTimestamp": "0x69936500",
          "transactionHash": "0x772971ffbfa738be612b050d23c45d2a116077863f690647b2596f3c73afade3",
          "transactionIndex": "0x6",
          "logIndex": "0x7",
          "removed": false
        },
        {
          "address": "0x83133ab2c66b6d48f3526390b2e1fb743d441196",
          "topics": [
            "0x4dda9a6d0ba03769e9813c47681795a7210f951e6ef31e64772e13b9ea0f1406",
            "0x000000000000000000000000c6ee2f629f3abae4962c1ef21bf48f7cebb2bb7e"
          ],
          "data": "0x0000000000000000000000002508fc3487c21f67f30edec94afb24fdf6735c7600000000000000000000000000000000000000000000000000000000000000000000000000000000000000000000000000000000000000000000000000000001",
          "blockHash": "0xdb72e01e0225b23d2b66f9ba27ce61fba11defb2ad82ae5a718f2a5d8c9c3c52",
          "blockNumber": "0x40dfdd",
          "blockTimestamp": "0x69936500",
          "transactionHash": "0x772971ffbfa738be612b050d23c45d2a116077863f690647b2596f3c73afade3",
          "transactionIndex": "0x6",
          "logIndex": "0x8",
          "removed": false
        }
      ],
      "logsBloom": "0x00000004000000000000000000000000040000000000000000000000000000000000000000000000000000100000000000000000000000000000000000000000000000000040001000000000000000000000000000000000000000000000000000000000020000080000000000000800000000000400000000200000000000000000000000080000000900000000000000000000000080000010000000000000000200000000000000000000000000000000000000020000001100000000200000000000000000000004000000000000004000000004000100000001000020000000100102000400000000002000000000000000000800000000000000000000",
      "type": "0x2",
      "transactionHash": "0x772971ffbfa738be612b050d23c45d2a116077863f690647b2596f3c73afade3",
      "transactionIndex": "0x6",
      "blockHash": "0xdb72e01e0225b23d2b66f9ba27ce61fba11defb2ad82ae5a718f2a5d8c9c3c52",
      "blockNumber": "0x40dfdd",
      "gasUsed": "0x598a1",
      "effectiveGasPrice": "0x9eb10",
      "from": "0x7d726330f35ba77cf1f33adeb7fd5514d1c9e12f",
      "to": "0x83133ab2c66b6d48f3526390b2e1fb743d441196",
      "contractAddress": null
    }
  ],
  "libraries": [],
  "pending": [],
  "returns": {},
  "timestamp": 1771267330074,
  "chain": 3637,
  "commit": "1f9c99e"
}