{
  "transactions": [
    {
      "hash": "0x1bd0c9e9f0c92feb097e12a837eacd7bca71dc6b6a2f3c314d17bb11f17e280c",
      "transactionType": "CALL",
      "contractName": null,
      "contractAddress": "0x83133ab2c66b6d48f3526390b2e1fb743d441196",
      "function": "createVault(string,string,string,address,address,address,address,uint256,uint256)",
      "arguments": [
        "USDC Yield Vault",
        "rfyUSDC",
        "",
        "0x29eE6138DD4C9815f46D34a4A1ed48F46758A402",
        "0x7D726330f35bA77Cf1f33aDEB7fd5514D1c9E12f",
        "0x7D726330f35bA77Cf1f33aDEB7fd5514D1c9E12f",
        "0x0000000000000000000000000000000000000000",
        "604800",
        "100000000000"
      ],
      "transaction": {
        "from": "0x7d726330f35ba77cf1f33adeb7fd5514d1c9e12f",
        "to": "0x83133ab2c66b6d48f3526390b2e1fb743d441196",
        "gas": "0x7e18f",
        "value": "0x0",
        "input": "0xeaaaa1eb0000000000000000000000000000000000000000000000000000000000000120000000000000000000000000000000000000000000000000000000000000016000000000000000000000000000000000000000000000000000000000000001a000000000000000000000000029ee6138dd4c9815f46d34a4a1ed48f46758a4020000000000000000000000007d726330f35ba77cf1f33adeb7fd5514d1c9e12f0000000000000000000000007d726330f35ba77cf1f33adeb7fd5514d1c9e12f00000000000000000000000000000000000000000000000000000000000000000000000000000000000000000000000000000000000000000000000000093a80000000000000000000000000000000000000000000000000000000174876e800000000000000000000000000000000000000000000000000000000000000001055534443205969656c64205661756c7400000000000000000000000000000000000000000000000000000000000000000000000000000000000000000000000772667955534443000000000000000000000000000000000000000000000000000000000000000000000000000000000000000000000000000000000000000000",
        "nonce": "0x8",
        "chainId": "0xe35"
      },
      "additionalContracts": [
        {
          "transactionType": "CREATE",
          "contractName": null,
          "address": "0x4a5bccf7b0ef5198a9cd519eaffd192e764de3f7",
          "initCode": "0x3d602d80600a3d3981f3363d3d373d3d3d363d7393292e1c41a6240e05d4ef03967c891fab1af41c5af43d82803e903d91602b57fd5bf3"
        }
      ],
      "isFixedGasLimit": false
    }
  ],
  "receipts": [
    {
      "status": "0x1",
      "cumulativeGasUsed": "0x9501d",
      "logs": [
        {
          "address": "0x4a5bccf7b0ef5198a9cd519eaffd192e764de3f7",
          "topics": [
            "0x2f8788117e7eff1d82e926ec794901d17c78024a50270940304540a733656f0d",
            "0x0000000000000000000000000000000000000000000000000000000000000000",
            "0x0000000000000000000000007d726330f35ba77cf1f33adeb7fd5514d1c9e12f",
            "0x00000000000000000000000083133ab2c66b6d48f3526390b2e1fb743d441196"
          ],
          "data": "0x",
          "blockHash": "0x778294d4267c4d7cf264523a2bb761633119c62db738af87a43ff54157f02aa2",
          "blockNumber": "0x40dff1",
          "blockTimestamp": "0x69936572",
          "transactionHash": "0x1bd0c9e9f0c92feb097e12a837eacd7bca71dc6b6a2f3c314d17bb11f17e280c",
          "transactionIndex": "0x3",
          "logIndex": "0x6",
          "removed": false
        },
        {
          "address": "0x4a5bccf7b0ef5198a9cd519eaffd192e764de3f7",
          "topics": [
            "0x2f8788117e7eff1d82e926ec794901d17c78024a50270940304540a733656f0d",
            "0xfacaf2747a7486cf5730e9265973fb54447d3ace6e7e4711f6360826b0731941",
            "0x0000000000000000000000007d726330f35ba77cf1f33adeb7fd5514d1c9e12f",
            "0x00000000000000000000000083133ab2c66b6d48f3526390b2e1fb743d441196"
          ],
          "data": "0x",
          "blockHash": "0x778294d4267c4d7cf264523a2bb761633119c62db738af87a43ff54157f02aa2",
          "blockNumber": "0x40dff1",
          "blockTimestamp": "0x69936572",
          "transactionHash": "0x1bd0c9e9f0c92feb097e12a837eacd7bca71dc6b6a2f3c314d17bb11f17e280c",
          "transactionIndex": "0x3",
          "logIndex": "0x7",
          "removed": false
        },
        {
          "address": "0x4a5bccf7b0ef5198a9cd519eaffd192e764de3f7",
          "topics": [
            "0x2f8788117e7eff1d82e926ec794901d17c78024a50270940304540a733656f0d",
            "0x677de58ccf7b39e7c606acef7a04830bfe15f822dd06a02595207b50ff82b9cb",
            "0x0000000000000000000000007d726330f35ba77cf1f33adeb7fd5514d1c9e12f",
            "0x00000000000000000000000083133ab2c66b6d48f3526390b2e1fb743d441196"
          ],
          "data": "0x",
          "blockHash": "0x778294d4267c4d7cf264523a2bb761633119c62db738af87a43ff54157f02aa2",
          "blockNumber": "0x40dff1",
          "blockTimestamp": "0x69936572",
          "transactionHash": "0x1bd0c9e9f0c92feb097e12a837eacd7bca71dc6b6a2f3c314d17bb11f17e280c",
          "transactionIndex": "0x3",
          "logIndex": "0x8",
          "removed": false
        },
        {
          "address": "0x4a5bccf7b0ef5198a9cd519eaffd192e764de3f7",
          "topics": [
            "0xc7f505b2f371ae2175ee4913f4499e1f2633a7b5936321eed1cdaeb6115181d2"
          ],
          "data": "0x0000000000000000000000000000000000000000000000000000000000000001",
          "blockHash": "0x778294d4267c4d7cf264523a2bb761633119c62db738af87a43ff54157f02aa2",
          "blockNumber": "0x40dff1",
          "blockTimestamp": "0x69936572",
          "transactionHash": "0x1bd0c9e9f0c92feb097e12a837eacd7bca71dc6b6a2f3c314d17bb11f17e280c",
          "transactionIndex": "0x3",
          "logIndex": "0x9",
          "removed": false
        },
        {
          "address": "0x83133ab2c66b6d48f3526390b2e1fb743d441196",
          "topics": [
            "0x4dda9a6d0ba03769e9813c47681795a7210f951e6ef31e64772e13b9ea0f1406",
            "0x0000000000000000000000004a5bccf7b0ef5198a9cd519eaffd192e764de3f7"
          ],
          "data": "0x00000000000000000000000029ee6138dd4c9815f46d34a4a1ed48f46758a40200000000000000000000000000000000000000000000000000000000000000000000000000000000000000000000000000000000000000000000000000000002",
          "blockHash": "0x778294d4267c4d7cf264523a2bb761633119c62db738af87a43ff54157f02aa2",
          "blockNumber": "0x40dff1",
          "blockTimestamp": "0x69936572",
          "transactionHash": "0x1bd0c9e9f0c92feb097e12a837eacd7bca71dc6b6a2f3c314d17bb11f17e280c",
          "transactionIndex": "0x3",
          "logIndex": "0xa",
          "removed": false
        }
      ],
      "logsBloom": "0x00000004000000000000000000000000040000000000000000000000000000000000000000000000000000100400000000000000000000000000000000000001000000000040001000000000000000000000000020000000000000000000000000000000020000080000000000002800000000000400000000000000000000000000000000000000000900000000000000000000000080000000000000000000000000000000000100000000000000000000000000020000001100000000200000000000000000000004000000000000000000000004000100000001000020000000100100000400000000002000000000000000000800000002000000000000",
      "type": "0x2",
      "transactionHash": "0x1bd0c9e9f0c92feb097e12a837eacd7bca71dc6b6a2f3c314d17bb11f17e280c",
      "transactionIndex": "0x3",
      "blockHash": "0x778294d4267c4d7cf264523a2bb761633119c62db738af87a43ff54157f02aa2",
      "blockNumber": "0x40dff1",
      "gasUsed": "0x5b4ae",
      "effectiveGasPrice": "0x9eb10",
      "from": "0x7d726330f35ba77cf1f33adeb7fd5514d1c9e12f",
      "to": "0x83133ab2c66b6d48f3526390b2e1fb743d441196",
      "contractAddress": null
    }
  ],
  "libraries": [],
  "pending": [],
  "returns": {},
  "timestamp": 1771267443293,
  "chain": 3637,
  "commit": "1f9c99e"
}