{
  "transactions": [
    {
      "hash": "0x6aad20db33ea1b53cbdea31ea276382fef61c30e96f9be3764762cca1cf685dc",
      "transactionType": "CALL",
      "contractName": null,
      "contractAddress": "0x83133ab2c66b6d48f3526390b2e1fb743d441196",
      "function": "createVault(string,string,string,address,address,address,address,uint256,uint256)",
      "arguments": [
        "pBTC Yield Vault",
        "rfypBTC",
        "",
        "0x0D2437F93Fed6EA64Ef01cCde385FB1263910C56",
        "0x7D726330f35bA77Cf1f33aDEB7fd5514D1c9E12f",
        "0x90FdA93362d2e1525daB5b2eeA51f3214e73cd6E",
        "0x0000000000000000000000000000000000000000",
        "2592000",
        "100000000000000000000"
      ],
      "transaction": {
        "from": "0x7d726330f35ba77cf1f33adeb7fd5514d1c9e12f",
        "to": "0x83133ab2c66b6d48f3526390b2e1fb743d441196",
        "gas": "0x7bacc",
        "value": "0x0",
        "input": "0xeaaaa1eb0000000000000000000000000000000000000000000000000000000000000120000000000000000000000000000000000000000000000000000000000000016000000000000000000000000000000000000000000000000000000000000001a00000000000000000000000000d2437f93fed6ea64ef01ccde385fb1263910c560000000000000000000000007d726330f35ba77cf1f33adeb7fd5514d1c9e12f00000000000000000000000090fda93362d2e1525dab5b2eea51f3214e73cd6e00000000000000000000000000000000000000000000000000000000000000000000000000000000000000000000000000000000000000000000000000278d000000000000000000000000000000000000000000000000056bc75e2d63100000000000000000000000000000000000000000000000000000000000000000001070425443205969656c64205661756c7400000000000000000000000000000000000000000000000000000000000000000000000000000000000000000000000772667970425443000000000000000000000000000000000000000000000000000000000000000000000000000000000000000000000000000000000000000000",
        "nonce": "0x13",
        "chainId": "0xe35"
      },
      "additionalContracts": [
        {
          "transactionType": "CREATE",
          "contractName": null,
          "address": "0xb819b78798c174fa9e80ad26903eacb27c68cfd6",
          "initCode": "0x3d602d80600a3d3981f3363d3d373d3d3d363d7393292e1c41a6240e05d4ef03967c891fab1af41c5af43d82803e903d91602b57fd5bf3"
        }
      ],
      "isFixedGasLimit": false
    }
  ],
  "receipts": [
    {
      "status": "0x1",
      "cumulativeGasUsed": "0x840fa",
      "logs": [
        {
          "address": "0xb819b78798c174fa9e80ad26903eacb27c68cfd6",
          "topics": [
            "0x2f8788117e7eff1d82e926ec794901d17c78024a50270940304540a733656f0d",
            "0x0000000000000000000000000000000000000000000000000000000000000000",
            "0x0000000000000000000000007d726330f35ba77cf1f33adeb7fd5514d1c9e12f",
            "0x00000000000000000000000083133ab2c66b6d48f3526390b2e1fb743d441196"
          ],
          "data": "0x",
          "blockHash": "0x23d5464ffe653de9f3577c42037f350d2247c9b4792ed546e7b2f1b89d6b55f1",
          "blockNumber": "0x42179f",
          "blockTimestamp": "0x699a4d16",
          "transactionHash": "0x6aad20db33ea1b53cbdea31ea276382fef61c30e96f9be3764762cca1cf685dc",
          "transactionIndex": "0x3",
          "logIndex": "0x4",
          "removed": false
        },
        {
          "address": "0xb819b78798c174fa9e80ad26903eacb27c68cfd6",
          "topics": [
            "0x2f8788117e7eff1d82e926ec794901d17c78024a50270940304540a733656f0d",
            "0xfacaf2747a7486cf5730e9265973fb54447d3ace6e7e4711f6360826b0731941",
            "0x00000000000000000000000090fda93362d2e1525dab5b2eea51f3214e73cd6e",
            "0x00000000000000000000000083133ab2c66b6d48f3526390b2e1fb743d441196"
          ],
          "data": "0x",
          "blockHash": "0x23d5464ffe653de9f3577c42037f350d2247c9b4792ed546e7b2f1b89d6b55f1",
          "blockNumber": "0x42179f",
          "blockTimestamp": "0x699a4d16",
          "transactionHash": "0x6aad20db33ea1b53cbdea31ea276382fef61c30e96f9be3764762cca1cf685dc",
          "transactionIndex": "0x3",
          "logIndex": "0x5",
          "removed": false
        },
        {
          "address": "0xb819b78798c174fa9e80ad26903eacb27c68cfd6",
          "topics": [
            "0x2f8788117e7eff1d82e926ec794901d17c78024a50270940304540a733656f0d",
            "0x677de58ccf7b39e7c606acef7a04830bfe15f822dd06a02595207b50ff82b9cb",
            "0x0000000000000000000000007d726330f35ba77cf1f33adeb7fd5514d1c9e12f",
            "0x00000000000000000000000083133ab2c66b6d48f3526390b2e1fb743d441196"
          ],
          "data": "0x",
          "blockHash": "0x23d5464ffe653de9f3577c42037f350d2247c9b4792ed546e7b2f1b89d6b55f1",
          "blockNumber": "0x42179f",
          "blockTimestamp": "0x699a4d16",
          "transactionHash": "0x6aad20db33ea1b53cbdea31ea276382fef61c30e96f9be3764762cca1cf685dc",
          "transactionIndex": "0x3",
          "logIndex": "0x6",
          "removed": false
        },
        {
          "address": "0xb819b78798c174fa9e80ad26903eacb27c68cfd6",
          "topics": [
            "0xc7f505b2f371ae2175ee4913f4499e1f2633a7b5936321eed1cdaeb6115181d2"
          ],
          "data": "0x0000000000000000000000000000000000000000000000000000000000000001",
          "blockHash": "0x23d5464ffe653de9f3577c42037f350d2247c9b4792ed546e7b2f1b89d6b55f1",
          "blockNumber": "0x42179f",
          "blockTimestamp": "0x699a4d16",
          "transactionHash": "0x6aad20db33ea1b53cbdea31ea276382fef61c30e96f9be3764762cca1cf685dc",
          "transactionIndex": "0x3",
          "logIndex": "0x7",
          "removed": false
        },
        {
          "address": "0x83133ab2c66b6d48f3526390b2e1fb743d441196",
          "topics": [
            "0x4dda9a6d0ba03769e9813c47681795a7210f951e6ef31e64772e13b9ea0f1406",
            "0x000000000000000000000000b819b78798c174fa9e80ad26903eacb27c68cfd6"
          ],
          "data": "0x0000000000000000000000000d2437f93fed6ea64ef01ccde385fb1263910c5600000000000000000000000000000000000000000000000000000000000000000000000000000000000000000000000000000000000000000000000000000003",
          "blockHash": "0x23d5464ffe653de9f3577c42037f350d2247c9b4792ed546e7b2f1b89d6b55f1",
          "blockNumber": "0x42179f",
          "blockTimestamp": "0x699a4d16",
          "transactionHash": "0x6aad20db33ea1b53cbdea31ea276382fef61c30e96f9be3764762cca1cf685dc",
          "transactionIndex": "0x3",
          "logIndex": "0x8",
          "removed": false
        }
      ],
      "logsBloom": "0x00000104000000000000000000000000040000000000000000800000000000000000000000000000000000100000000000000000000000000000000000000000000000000040001000000000000000000000000000000000000000000000000000000000020000080000000000000800000000000400000040000000000000000000000000000000000900000000000400000000000080000000002000800000000000000000000000000000000000000000000000020000003100000000200000000000200000000004000000000000000000000004000100000001000020000000100100000400000000002000000000000000000800000000000000000000",
      "type": "0x2",
      "transactionHash": "0x6aad20db33ea1b53cbdea31ea276382fef61c30e96f9be3764762cca1cf685dc",
      "transactionIndex": "0x3",
      "blockHash": "0x23d5464ffe653de9f3577c42037f350d2247c9b4792ed546e7b2f1b89d6b55f1",
      "blockNumber": "0x42179f",
      "gasUsed": "0x5989e",
      "effectiveGasPrice": "0x9eb10",
      "from": "0x7d726330f35ba77cf1f33adeb7fd5514d1c9e12f",
      "to": "0x83133ab2c66b6d48f3526390b2e1fb743d441196",
      "contractAddress": null
    }
  ],
  "libraries": [],
  "pending": [],
  "returns": {},
  "timestamp": 1771719959857,
  "chain": 3637,
  "commit": "1f9c99e"
}