{
  "transactions": [
    {
      "hash": "0x26269c0f506090385d856f700c4bb43edc77cb99d900e9a95de15b350403b5b8",
      "transactionType": "CALL",
      "contractName": null,
      "contractAddress": "0x83133ab2c66b6d48f3526390b2e1fb743d441196",
      "function": "createVault(string,string,string,address,address,address,address,uint256,uint256)",
      "arguments": [
        "stBTC Yield Vault",
        "rfystBTC",
        "",
        "0xF4586028FFdA7Eca636864F80f8a3f2589E33795",
        "0x7D726330f35bA77Cf1f33aDEB7fd5514D1c9E12f",
        "0x90FdA93362d2e1525daB5b2eeA51f3214e73cd6E",
        "0x0000000000000000000000000000000000000000",
        "2592000",
        "100000000000000000000"
      ],
      "transaction": {
        "from": "0x7d726330f35ba77cf1f33adeb7fd5514d1c9e12f",
        "to": "0x83133ab2c66b6d48f3526390b2e1fb743d441196",
        "gas": "0x84bed",
        "value": "0x0",
        "input": "0xeaaaa1eb0000000000000000000000000000000000000000000000000000000000000120000000000000000000000000000000000000000000000000000000000000016000000000000000000000000000000000000000000000000000000000000001a0000000000000000000000000f4586028ffda7eca636864f80f8a3f2589e337950000000000000000000000007d726330f35ba77cf1f33adeb7fd5514d1c9e12f00000000000000000000000090fda93362d2e1525dab5b2eea51f3214e73cd6e00000000000000000000000000000000000000000000000000000000000000000000000000000000000000000000000000000000000000000000000000278d000000000000000000000000000000000000000000000000056bc75e2d6310000000000000000000000000000000000000000000000000000000000000000000117374425443205969656c64205661756c74000000000000000000000000000000000000000000000000000000000000000000000000000000000000000000000872667973744254430000000000000000000000000000000000000000000000000000000000000000000000000000000000000000000000000000000000000000",
        "nonce": "0x14",
        "chainId": "0xe35"
      },
      "additionalContracts": [
        {
          "transactionType": "CREATE",
          "contractName": null,
          "address": "0x5107b03d9b4fb135a58435a4507716304372645b",
          "initCode": "0x3d602d80600a3d3981f3363d3d373d3d3d363d7393292e1c41a6240e05d4ef03967c891fab1af41c5af43d82803e903d91602b57fd5bf3"
        }
      ],
      "isFixedGasLimit": false
    }
  ],
  "receipts": [
    {
      "status": "0x1",
      "cumulativeGasUsed": "0x6d9f0",
      "logs": [
        {
          "address": "0x5107b03d9b4fb135a58435a4507716304372645b",
          "topics": [
            "0x2f8788117e7eff1d82e926ec794901d17c78024a50270940304540a733656f0d",
            "0x0000000000000000000000000000000000000000000000000000000000000000",
            "0x0000000000000000000000007d726330f35ba77cf1f33adeb7fd5514d1c9e12f",
            "0x00000000000000000000000083133ab2c66b6d48f3526390b2e1fb743d441196"
          ],
          "data": "0x",
          "blockHash": "0x16a8e924e6e8d1bab6c1a82d0c073eb3d67ba0b8c4484980ef79dbc536a69f34",
          "blockNumber": "0x4217cf",
          "blockTimestamp": "0x699a4e36",
          "transactionHash": "0x26269c0f506090385d856f700c4bb43edc77cb99d900e9a95de15b350403b5b8",
          "transactionIndex": "0x3",
          "logIndex": "0x1",
          "removed": false
        },
        {
          "address": "0x5107b03d9b4fb135a58435a4507716304372645b",
          "topics": [
            "0x2f8788117e7eff1d82e926ec794901d17c78024a50270940304540a733656f0d",
            "0xfacaf2747a7486cf5730e9265973fb54447d3ace6e7e4711f6360826b0731941",
            "0x00000000000000000000000090fda93362d2e1525dab5b2eea51f3214e73cd6e",
            "0x00000000000000000000000083133ab2c66b6d48f3526390b2e1fb743d441196"
          ],
          "data": "0x",
          "blockHash": "0x16a8e924e6e8d1bab6c1a82d0c073eb3d67ba0b8c4484980ef79dbc536a69f34",
          "blockNumber": "0x4217cf",
          "blockTimestamp": "0x699a4e36",
          "transactionHash": "0x26269c0f506090385d856f700c4bb43edc77cb99d900e9a95de15b350403b5b8",
          "transactionIndex": "0x3",
          "logIndex": "0x2",
          "removed": false
        },
        {
          "address": "0x5107b03d9b4fb135a58435a4507716304372645b",
          "topics": [
            "0x2f8788117e7eff1d82e926ec794901d17c78024a50270940304540a733656f0d",
            "0x677de58ccf7b39e7c606acef7a04830bfe15f822dd06a02595207b50ff82b9cb",
            "0x0000000000000000000000007d726330f35ba77cf1f33adeb7fd5514d1c9e12f",
            "0x00000000000000000000000083133ab2c66b6d48f3526390b2e1fb743d441196"
          ],
          "data": "0x",
          "blockHash": "0x16a8e924e6e8d1bab6c1a82d0c073eb3d67ba0b8c4484980ef79dbc536a69f34",
          "blockNumber": "0x4217cf",
          "blockTimestamp": "0x699a4e36",
          "transactionHash": "0x26269c0f506090385d856f700c4bb43edc77cb99d900e9a95de15b350403b5b8",
          "transactionIndex": "0x3",
          "logIndex": "0x3",
          "removed": false
        },
        {
          "address": "0x5107b03d9b4fb135a58435a4507716304372645b",
          "topics": [
            "0xc7f505b2f371ae2175ee4913f4499e1f2633a7b5936321eed1cdaeb6115181d2"
          ],
          "data": "0x0000000000000000000000000000000000000000000000000000000000000001",
          "blockHash": "0x16a8e924e6e8d1bab6c1a82d0c073eb3d67ba0b8c4484980ef79dbc536a69f34",
          "blockNumber": "0x4217cf",
          "blockTimestamp": "0x699a4e36",
          "transactionHash": "0x26269c0f506090385d856f700c4bb43edc77cb99d900e9a95de15b350403b5b8",
          "transactionIndex": "0x3",
          "logIndex": "0x4",
          "removed": false
        },
        {
          "address": "0x83133ab2c66b6d48f3526390b2e1fb743d441196",
          "topics": [
            "0x4dda9a6d0ba03769e9813c47681795a7210f951e6ef31e64772e13b9ea0f1406",
            "0x0000000000000000000000005107b03d9b4fb135a58435a4507716304372645b"
          ],
          "data": "0x000000000000000000000000f4586028ffda7eca636864f80f8a3f2589e3379500000000000000000000000000000000000000000000000000000000000000000000000000000000000000000000000000000000000000000000000000000004",
          "blockHash": "0x16a8e924e6e8d1bab6c1a82d0c073eb3d67ba0b8c4484980ef79dbc536a69f34",
          "blockNumber": "0x4217cf",
          "blockTimestamp": "0x699a4e36",
          "transactionHash": "0x26269c0f506090385d856f700c4bb43edc77cb99d900e9a95de15b350403b5b8",
          "transactionIndex": "0x3",
          "logIndex": "0x5",
          "removed": false
        }
      ],
      "logsBloom": "0x00000004010000000000000000000000040000000000000000000000000000000000000000000000000000100000000000000000000000000000000000000000000000040040001000000000000000000000000000000000010000000000000000000000020000080000000000000800000000000400000000000000000000000000001000000000000900000000000000000000000080000000002000800000000000000000000000000000000000000000000000020000003100000000200000000000000000002004000000000000000000000004000100080001000020000000100100000400000000002000000000000000000800000000000000000000",
      "type": "0x2",
      "transactionHash": "0x26269c0f506090385d856f700c4bb43edc77cb99d900e9a95de15b350403b5b8",
      "transactionIndex": "0x3",
      "blockHash": "0x16a8e924e6e8d1bab6c1a82d0c073eb3d67ba0b8c4484980ef79dbc536a69f34",
      "blockNumber": "0x4217cf",
      "gasUsed": "0x5ac42",
      "effectiveGasPrice": "0x9eb10",
      "from": "0x7d726330f35ba77cf1f33adeb7fd5514d1c9e12f",
      "to": "0x83133ab2c66b6d48f3526390b2e1fb743d441196",
      "contractAddress": null
    }
  ],
  "libraries": [],
  "pending": [],
  "returns": {},
  "timestamp": 1771720248750,
  "chain": 3637,
  "commit": "1f9c99e"
}