{
  "transactions": [
    {
      "hash": "0x971518387ebdc1a01604d183f1cc212af30c6014b643d966792de72c82b29d06",
      "transactionType": "CALL",
      "contractName": null,
      "contractAddress": "0x83133ab2c66b6d48f3526390b2e1fb743d441196",
      "function": "createVault(string,string,string,address,address,address,address,uint256,uint256)",
      "arguments": [
        "BTC Yield Vault",
        "rfyBTC",
        "",
        "0x2508FC3487c21f67F30eDeC94afB24fdF6735C76",
        "0x7D726330f35bA77Cf1f33aDEB7fd5514D1c9E12f",
        "0x7D726330f35bA77Cf1f33aDEB7fd5514D1c9E12f",
        "0x0000000000000000000000000000000000000000",
        "604800",
        "5000000000000"
      ],
      "transaction": {
        "from": "0x7d726330f35ba77cf1f33adeb7fd5514d1c9e12f",
        "to": "0x83133ab2c66b6d48f3526390b2e1fb743d441196",
        "gas": "0x816f3",
        "value": "0x0",
        "input": "0xeaaaa1eb0000000000000000000000000000000000000000000000000000000000000120000000000000000000000000000000000000000000000000000000000000016000000000000000000000000000000000000000000000000000000000000001a00000000000000000000000002508fc3487c21f67f30edec94afb24fdf6735c760000000000000000000000007d726330f35ba77cf1f33adeb7fd5514d1c9e12f0000000000000000000000007d726330f35ba77cf1f33adeb7fd5514d1c9e12f00000000000000000000000000000000000000000000000000000000000000000000000000000000000000000000000000000000000000000000000000093a800000000000000000000000000000000000000000000000000000048c27395000000000000000000000000000000000000000000000000000000000000000000f425443205969656c64205661756c740000000000000000000000000000000000000000000000000000000000000000000000000000000000000000000000000672667942544300000000000000000000000000000000000000000000000000000000000000000000000000000000000000000000000000000000000000000000",
        "nonce": "0x6",
        "chainId": "0xe35"
      },
      "additionalContracts": [
        {
          "transactionType": "CREATE",
          "contractName": null,
          "address": "0xa82c15e7ddb833b616d72e64acd2857dd236d374",
          "initCode": "0x3d602d80600a3d3981f3363d3d373d3d3d363d7393292e1c41a6240e05d4ef03967c891fab1af41c5af43d82803e903d91602b57fd5bf3"
        }
      ],
      "isFixedGasLimit": false
    }
  ],
  "receipts": [
    {
      "status": "0x1",
      "cumulativeGasUsed": "0xb84f0",
      "logs": [
        {
          "address": "0xa82c15e7ddb833b616d72e64acd2857dd236d374",
          "topics": [
            "0x2f8788117e7eff1d82e926ec794901d17c78024a50270940304540a733656f0d",
            "0x0000000000000000000000000000000000000000000000000000000000000000",
            "0x0000000000000000000000007d726330f35ba77cf1f33adeb7fd5514d1c9e12f",
            "0x00000000000000000000000083133ab2c66b6d48f3526390b2e1fb743d441196"
          ],
          "data": "0x",
          "blockHash": "0x66079c61b448a92c731421479a04d463d72acc9c24b2707b62760387a95ae50c",
          "blockNumber": "0x40dfd1",
          "blockTimestamp": "0x699364bc",
          "transactionHash": "0x971518387ebdc1a01604d183f1cc212af30c6014b643d966792de72c82b29d06",
          "transactionIndex": "0x7",
          "logIndex": "0x9",
          "removed": false
        },
        {
          "address": "0xa82c15e7ddb833b616d72e64acd2857dd236d374",
          "topics": [
            "0x2f8788117e7eff1d82e926ec794901d17c78024a50270940304540a733656f0d",
            "0xfacaf2747a7486cf5730e9265973fb54447d3ace6e7e4711f6360826b0731941",
            "0x0000000000000000000000007d726330f35ba77cf1f33adeb7fd5514d1c9e12f",
            "0x00000000000000000000000083133ab2c66b6d48f3526390b2e1fb743d441196"
          ],
          "data": "0x",
          "blockHash": "0x66079c61b448a92c731421479a04d463d72acc9c24b2707b62760387a95ae50c",
          "blockNumber": "0x40dfd1",
          "blockTimestamp": "0x699364bc",
          "transactionHash": "0x971518387ebdc1a01604d183f1cc212af30c6014b643d966792de72c82b29d06",
          "transactionIndex": "0x7",
          "logIndex": "0xa",
          "removed": false
        },
        {
          "address": "0xa82c15e7ddb833b616d72e64acd2857dd236d374",
          "topics": [
            "0x2f8788117e7eff1d82e926ec794901d17c78024a50270940304540a733656f0d",
            "0x677de58ccf7b39e7c606acef7a04830bfe15f822dd06a02595207b50ff82b9cb",
            "0x0000000000000000000000007d726330f35ba77cf1f33adeb7fd5514d1c9e12f",
            "0x00000000000000000000000083133ab2c66b6d48f3526390b2e1fb743d441196"
          ],
          "data": "0x",
          "blockHash": "0x66079c61b448a92c731421479a04d463d72acc9c24b2707b62760387a95ae50c",
          "blockNumber": "0x40dfd1",
          "blockTimestamp": "0x699364bc",
          "transactionHash": "0x971518387ebdc1a01604d183f1cc212af30c6014b643d966792de72c82b29d06",
          "transactionIndex": "0x7",
          "logIndex": "0xb",
          "removed": false
        },
        {
          "address": "0xa82c15e7ddb833b616d72e64acd2857dd236d374",
          "topics": [
            "0xc7f505b2f371ae2175ee4913f4499e1f2633a7b5936321eed1cdaeb6115181d2"
          ],
          "data": "0x0000000000000000000000000000000000000000000000000000000000000001",
          "blockHash": "0x66079c61b448a92c731421479a04d463d72acc9c24b2707b62760387a95ae50c",
          "blockNumber": "0x40dfd1",
          "blockTimestamp": "0x699364bc",
          "transactionHash": "0x971518387ebdc1a01604d183f1cc212af30c6014b643d966792de72c82b29d06",
          "transactionIndex": "0x7",
          "logIndex": "0xc",
          "removed": false
        },
        {
          "address": "0x83133ab2c66b6d48f3526390b2e1fb743d441196",
          "topics": [
            "0x4dda9a6d0ba03769e9813c47681795a7210f951e6ef31e64772e13b9ea0f1406",
            "0x000000000000000000000000a82c15e7ddb833b616d72e64acd2857dd236d374"
          ],
          "data": "0x0000000000000000000000002508fc3487c21f67f30edec94afb24fdf6735c7600000000000000000000000000000000000000000000000000000000000000000000000000000000000000000000000000000000000000000000000000000000",
          "blockHash": "0x66079c61b448a92c731421479a04d463d72acc9c24b2707b62760387a95ae50c",
          "blockNumber": "0x40dfd1",
          "blockTimestamp": "0x699364bc",
          "transactionHash": "0x971518387ebdc1a01604d183f1cc212af30c6014b643d966792de72c82b29d06",
          "transactionIndex": "0x7",
          "logIndex": "0xd",
          "removed": false
        }
      ],
      "logsBloom": "0x00000004000000000010000000000000040000000000000000000000000000000000000000000000000000100000000000000000000000000000000000000000000000000040001000000000000000001000000000000000000000000000000000000000020000080000000000000800000000000400000000000000000000000000000002008000000900000000000000000000000080000000000000000000000000000000000000000000000000000000000000020000001100000000200000000000000000000044000000000000000000000004000100000001000020000000100120000400000000002000000000000000000800000000000000000000",
      "type": "0x2",
      "transactionHash": "0x971518387ebdc1a01604d183f1cc212af30c6014b643d966792de72c82b29d06",
      "transactionIndex": "0x7",
      "blockHash": "0x66079c61b448a92c731421479a04d463d72acc9c24b2707b62760387a95ae50c",
      "blockNumber": "0x40dfd1",
      "gasUsed": "0x5db55",
      "effectiveGasPrice": "0x9eb10",
      "from": "0x7d726330f35ba77cf1f33adeb7fd5514d1c9e12f",
      "to": "0x83133ab2c66b6d48f3526390b2e1fb743d441196",
      "contractAddress": null
    }
  ],
  "libraries": [],
  "pending": [],
  "returns": {},
  "timestamp": 1771267262891,
  "chain": 3637,
  "commit": "1f9c99e"
}