{
  "transactions": [
    {
      "hash": "0xbfcb1a911830ebbdc91adb2681338653fee35c920f5688545279e3a846024e1d",
      "transactionType": "CALL",
      "contractName": null,
      "contractAddress": "0x02f3cd3d6a0236ffd8492f398a2e35c67fb6ee89",
      "function": "startNewEpoch(uint256)",
      "arguments": [
        "1000000"
      ],
      "transaction": {
        "from": "0xc4290ea730a461075141e6d5df1e980e72f1bd1b",
        "to": "0x02f3cd3d6a0236ffd8492f398a2e35c67fb6ee89",
        "gas": "0x36b0c",
        "value": "0x0",
        "input": "0x4bbed39600000000000000000000000000000000000000000000000000000000000f4240",
        "nonce": "0x55",
        "chainId": "0x6f0"
      },
      "additionalContracts": [],
      "isFixedGasLimit": false
    }
  ],
  "receipts": [
    {
      "status": "0x1",
      "cumulativeGasUsed": "0x37978eb",
      "logs": [
        {
          "address": "0x02f3cd3d6a0236ffd8492f398a2e35c67fb6ee89",
          "topics": [
            "0x41787f1277821474072e18df95f0bd9ed9f117003aa97732ebbd737225b32b02",
            "0x0000000000000000000000000000000000000000000000000000000000000001"
          ],
          "data": "0x00000000000000000000000000000000000000000000000000000000691f41d7",
          "blockHash": "0x12b1e6b1f39173ed8eeb45fd9148e4dc8485b936682b298fb1f49b4d122c5db7",
          "blockNumber": "0x87d323c",
          "blockTimestamp": "0x0",
          "transactionHash": "0xbfcb1a911830ebbdc91adb2681338653fee35c920f5688545279e3a846024e1d",
          "transactionIndex": "0x0",
          "logIndex": "0x0",
          "removed": false
        }
      ],
      "logsBloom": "0x00000000000000000000400000000000000000000000000000000000000000000000000000000000000000000000000000000000000000000004000000040000000000000000000000000000000000000000000000040000000000000000000000000000000000000000000010000000000000000000000000000080000000000000000000000000000000000000000000000000000000000000000000000000000000000000000000000080000000000000000000000000000000000000000000000000000002000000000000000000000000000000000000000000000040000000000000000000000000000000000000000000000000000000000000000000",
      "type": "0x2",
      "transactionHash": "0xbfcb1a911830ebbdc91adb2681338653fee35c920f5688545279e3a846024e1d",
      "transactionIndex": "0x0",
      "blockHash": "0x12b1e6b1f39173ed8eeb45fd9148e4dc8485b936682b298fb1f49b4d122c5db7",
      "blockNumber": "0x87d323c",
      "gasUsed": "0x25653",
      "effectiveGasPrice": "0x1312d001",
      "from": "0xc4290ea730a461075141e6d5df1e980e72f1bd1b",
      "to": "0x02f3cd3d6a0236ffd8492f398a2e35c67fb6ee89",
      "contractAddress": null
    }
  ],
  "libraries": [],
  "pending": [],
  "returns": {},
  "timestamp": 1763656153976,
  "chain": 1776,
  "commit": "1f9c99e"
}