{
  "transactions": [
    {
      "hash": "0x71fba8cadef3dfd4fd46119b56a134152df8d1ec95703b768e4848cfec3c4732",
      "transactionType": "CALL",
      "contractName": "MockERC20",
      "contractAddress": "0x09b1e5f6e53fe41c5ca171f547c71b76044e29ed",
      "function": "mint(address,uint256)",
      "arguments": [
        "0x08a74A0075a2C3A786A84439812a141C6C8b73f3",
        "100000000000000000000000"
      ],
      "transaction": {
        "from": "0x08a74a0075a2c3a786a84439812a141c6c8b73f3",
        "to": "0x09b1e5f6e53fe41c5ca171f547c71b76044e29ed",
        "gas": "0x1c3c6",
        "value": "0x0",
        "input": "0x40c10f1900000000000000000000000008a74a0075a2c3a786a84439812a141c6c8b73f300000000000000000000000000000000000000000000152d02c7e14af6800000",
        "nonce": "0x602e",
        "chainId": "0x66eee"
      },
      "additionalContracts": [],
      "isFixedGasLimit": false
    },
    {
      "hash": "0x35e2a6c267d7a3ba647c1756c11db7cab5d15ba4bc0e2abc9fdd36d4acf1a0f3",
      "transactionType": "CALL",
      "contractName": "MockERC20",
      "contractAddress": "0x09b1e5f6e53fe41c5ca171f547c71b76044e29ed",
      "function": "approve(address,uint256)",
      "arguments": [
        "0x7A2F19F9A5e70D1AcbD1B8a8E8052aD4F5f9b0B8",
        "100000000000000000000000"
      ],
      "transaction": {
        "from": "0x08a74a0075a2c3a786a84439812a141c6c8b73f3",
        "to": "0x09b1e5f6e53fe41c5ca171f547c71b76044e29ed",
        "gas": "0x201c8",
        "value": "0x0",
        "input": "0x095ea7b30000000000000000000000007a2f19f9a5e70d1acbd1b8a8e8052ad4f5f9b0b800000000000000000000000000000000000000000000152d02c7e14af6800000",
        "nonce": "0x602f",
        "chainId": "0x66eee"
      },
      "additionalContracts": [],
      "isFixedGasLimit": false
    },
    {
      "hash": "0xbc7f1bd2fce128ce7ccdde0e4c5b06ba676073058e1909962929698e94a8ae89",
      "transactionType": "CALL",
      "contractName": null,
      "contractAddress": "0x7a2f19f9a5e70d1acbd1b8a8e8052ad4f5f9b0b8",
      "function": "deposit(uint256,address)",
      "arguments": [
        "1000000000000000000000",
        "0x08a74A0075a2C3A786A84439812a141C6C8b73f3"
      ],
      "transaction": {
        "from": "0x08a74a0075a2c3a786a84439812a141c6c8b73f3",
        "to": "0x7a2f19f9a5e70d1acbd1b8a8e8052ad4f5f9b0b8",
        "gas": "0x32f7c",
        "value": "0x0",
        "input": "0x6e553f6500000000000000000000000000000000000000000000003635c9adc5dea0000000000000000000000000000008a74a0075a2c3a786a84439812a141c6c8b73f3",
        "nonce": "0x6030",
        "chainId": "0x66eee"
      },
      "additionalContracts": [],
      "isFixedGasLimit": false
    },
    {
      "hash": "0xe0328b5b0f85cbc38d75b42189feae3eaf95fbd89835afbe1f199bfc374da6be",
      "transactionType": "CALL",
      "contractName": "MockERC20",
      "contractAddress": "0x09b1e5f6e53fe41c5ca171f547c71b76044e29ed",
      "function": "mint(address,uint256)",
      "arguments": [
        "0x95379770C92c466b2a101915cf15B563d3A69AD4",
        "100000000000000000000"
      ],
      "transaction": {
        "from": "0x08a74a0075a2c3a786a84439812a141c6c8b73f3",
        "to": "0x09b1e5f6e53fe41c5ca171f547c71b76044e29ed",
        "gas": "0x21af4",
        "value": "0x0",
        "input": "0x40c10f1900000000000000000000000095379770c92c466b2a101915cf15b563d3a69ad40000000000000000000000000000000000000000000000056bc75e2d63100000",
        "nonce": "0x6031",
        "chainId": "0x66eee"
      },
      "additionalContracts": [],
      "isFixedGasLimit": false
    }
  ],
  "receipts": [
    {
      "status": "0x1",
      "cumulativeGasUsed": "0x12ab5",
      "logs": [
        {
          "address": "0x09b1e5f6e53fe41c5ca171f547c71b76044e29ed",
          "topics": [
            "0xddf252ad1be2c89b69c2b068fc378daa952ba7f163c4a11628f55a4df523b3ef",
            "0x0000000000000000000000000000000000000000000000000000000000000000",
            "0x00000000000000000000000008a74a0075a2c3a786a84439812a141c6c8b73f3"
          ],
          "data": "0x00000000000000000000000000000000000000000000152d02c7e14af6800000",
          "blockHash": "0x754beeee6cded3dce7f1f5898c841e0099d515431b9ee7380a4d86acb58a750c",
          "blockNumber": "0x7ddc43b",
          "transactionHash": "0x71fba8cadef3dfd4fd46119b56a134152df8d1ec95703b768e4848cfec3c4732",
          "transactionIndex": "0x1",
          "logIndex": "0x0",
          "removed": false
        }
      ],
      "logsBloom": "0x00000000000000000000000000000000000000000000000000000000000000000400000000000000000000000000000000000000000000000000200000000000000000000000000000000008000000000000000000000000020000000000000000040000020000000000000000000800000000000000000000000010000000000000000800000000000000000000000000000000000000400000000000000000000000000000000000000000000000000000000000000000000000000000000000000002000000000000000000000000000000000000000000000000000020000000000000000000000000000000000000000000000000000000000000000000",
      "type": "0x2",
      "transactionHash": "0x71fba8cadef3dfd4fd46119b56a134152df8d1ec95703b768e4848cfec3c4732",
      "transactionIndex": "0x1",
      "blockHash": "0x754beeee6cded3dce7f1f5898c841e0099d515431b9ee7380a4d86acb58a750c",
      "blockNumber": "0x7ddc43b",
      "gasUsed": "0x12ab5",
      "effectiveGasPrice": "0x5f5e100",
      "from": "0x08a74a0075a2c3a786a84439812a141c6c8b73f3",
      "to": "0x09b1e5f6e53fe41c5ca171f547c71b76044e29ed",
      "contractAddress": null,
      "gasUsedForL1": "0xa502",
      "l1BlockNumber": "0x78716a",
      "timeboosted": false
    },
    {
      "status": "0x1",
      "cumulativeGasUsed": "0x15a38",
      "logs": [
        {
          "address": "0x09b1e5f6e53fe41c5ca171f547c71b76044e29ed",
          "topics": [
            "0x8c5be1e5ebec7d5bd14f71427d1e84f3dd0314c0f7b2291e5b200ac8c7c3b925",
            "0x00000000000000000000000008a74a0075a2c3a786a84439812a141c6c8b73f3",
            "0x0000000000000000000000007a2f19f9a5e70d1acbd1b8a8e8052ad4f5f9b0b8"
          ],
          "data": "0x00000000000000000000000000000000000000000000152d02c7e14af6800000",
          "blockHash": "0x5ee2d1855838cc528cc67aec2d8f4b65a2750b0ecc414133f63979ed0fea3f4d",
          "blockNumber": "0x7ddc44c",
          "transactionHash": "0x35e2a6c267d7a3ba647c1756c11db7cab5d15ba4bc0e2abc9fdd36d4acf1a0f3",
          "transactionIndex": "0x1",
          "logIndex": "0x0",
          "removed": false
        }
      ],
      "logsBloom": "0x00000000000000000000000000000000000000000000000000000000000000000400000000000000000000000000000000000000000000000000200002200000000000000000000000000000000000000000000000000000020000000000000000040000000000000000000000000000000000000000000000000000000000000000000840000000000000000000000000000000000000400000000000000000020000000000000000000000000000000000000000000000100000000000000000000000000000000000000000000000000000000000000000000000000000000010000000000000000000000000000000000000000000000000000000000000",
      "type": "0x2",
      "transactionHash": "0x35e2a6c267d7a3ba647c1756c11db7cab5d15ba4bc0e2abc9fdd36d4acf1a0f3",
      "transactionIndex": "0x1",
      "blockHash": "0x5ee2d1855838cc528cc67aec2d8f4b65a2750b0ecc414133f63979ed0fea3f4d",
      "blockNumber": "0x7ddc44c",
      "gasUsed": "0x15a38",
      "effectiveGasPrice": "0x5f5e100",
      "from": "0x08a74a0075a2c3a786a84439812a141c6c8b73f3",
      "to": "0x09b1e5f6e53fe41c5ca171f547c71b76044e29ed",
      "contractAddress": null,
      "gasUsedForL1": "0xa502",
      "l1BlockNumber": "0x78716a",
      "timeboosted": false
    },
    {
      "status": "0x1",
      "cumulativeGasUsed": "0x2d29b",
      "logs": [
        {
          "address": "0x09b1e5f6e53fe41c5ca171f547c71b76044e29ed",
          "topics": [
            "0xddf252ad1be2c89b69c2b068fc378daa952ba7f163c4a11628f55a4df523b3ef",
            "0x00000000000000000000000008a74a0075a2c3a786a84439812a141c6c8b73f3",
            "0x0000000000000000000000007a2f19f9a5e70d1acbd1b8a8e8052ad4f5f9b0b8"
          ],
          "data": "0x00000000000000000000000000000000000000000000003635c9adc5dea00000",
          "blockHash": "0x8bd932ba4753d264c735efbb9a8fc8c5fd1bf67c57052650a4db883cea361be5",
          "blockNumber": "0x7ddc451",
          "transactionHash": "0xbc7f1bd2fce128ce7ccdde0e4c5b06ba676073058e1909962929698e94a8ae89",
          "transactionIndex": "0x1",
          "logIndex": "0x0",
          "removed": false
        },
        {
          "address": "0x7a2f19f9a5e70d1acbd1b8a8e8052ad4f5f9b0b8",
          "topics": [
            "0xddf252ad1be2c89b69c2b068fc378daa952ba7f163c4a11628f55a4df523b3ef",
            "0x0000000000000000000000000000000000000000000000000000000000000000",
            "0x00000000000000000000000008a74a0075a2c3a786a84439812a141c6c8b73f3"
          ],
          "data": "0x00000000000000000000000000000000000000000000003635c9adc5dea00000",
          "blockHash": "0x8bd932ba4753d264c735efbb9a8fc8c5fd1bf67c57052650a4db883cea361be5",
          "blockNumber": "0x7ddc451",
          "transactionHash": "0xbc7f1bd2fce128ce7ccdde0e4c5b06ba676073058e1909962929698e94a8ae89",
          "transactionIndex": "0x1",
          "logIndex": "0x1",
          "removed": false
        },
        {
          "address": "0x7a2f19f9a5e70d1acbd1b8a8e8052ad4f5f9b0b8",
          "topics": [
            "0xdcbc1c05240f31ff3ad067ef1ee35ce4997762752e3a095284754544f4c709d7",
            "0x00000000000000000000000008a74a0075a2c3a786a84439812a141c6c8b73f3",
            "0x00000000000000000000000008a74a0075a2c3a786a84439812a141c6c8b73f3"
          ],
          "data": "0x00000000000000000000000000000000000000000000003635c9adc5dea0000000000000000000000000000000000000000000000000003635c9adc5dea00000",
          "blockHash": "0x8bd932ba4753d264c735efbb9a8fc8c5fd1bf67c57052650a4db883cea361be5",
          "blockNumber": "0x7ddc451",
          "transactionHash": "0xbc7f1bd2fce128ce7ccdde0e4c5b06ba676073058e1909962929698e94a8ae89",
          "transactionIndex": "0x1",
          "logIndex": "0x2",
          "removed": false
        }
      ],
      "logsBloom": "0x00000000000000000000000000000000000000000000000000000000000000000400000000000000000000000000000000000000000000000000200002000000000000400000000000000008000000000000000000000000020000000000000000040000020000020000000000000800000000000004000000000010000000000000000840000000000000000000000000000000000000400000000000000000000000000000000000000000000000000000001000000000100000000000000000000002000000000000000000000000000000000008000000000000000020000000000000000000000000000000000000000000000800000000000000000000",
      "type": "0x2",
      "transactionHash": "0xbc7f1bd2fce128ce7ccdde0e4c5b06ba676073058e1909962929698e94a8ae89",
      "transactionIndex": "0x1",
      "blockHash": "0x8bd932ba4753d264c735efbb9a8fc8c5fd1bf67c57052650a4db883cea361be5",
      "blockNumber": "0x7ddc451",
      "gasUsed": "0x2d29b",
      "effectiveGasPrice": "0x5f5e100",
      "from": "0x08a74a0075a2c3a786a84439812a141c6c8b73f3",
      "to": "0x7a2f19f9a5e70d1acbd1b8a8e8052ad4f5f9b0b8",
      "contractAddress": null,
      "gasUsedForL1": "0xa502",
      "l1BlockNumber": "0x78716b",
      "timeboosted": false
    },
    {
      "status": "0x1",
      "cumulativeGasUsed": "0x16d81",
      "logs": [
        {
          "address": "0x09b1e5f6e53fe41c5ca171f547c71b76044e29ed",
          "topics": [
            "0xddf252ad1be2c89b69c2b068fc378daa952ba7f163c4a11628f55a4df523b3ef",
            "0x0000000000000000000000000000000000000000000000000000000000000000",
            "0x00000000000000000000000095379770c92c466b2a101915cf15b563d3a69ad4"
          ],
          "data": "0x0000000000000000000000000000000000000000000000056bc75e2d63100000",
          "blockHash": "0x2ab692fe7352d8a75d66896b7725f354b3d322a5ab98c7a47fcc118976b7a0ff",
          "blockNumber": "0x7ddc463",
          "transactionHash": "0xe0328b5b0f85cbc38d75b42189feae3eaf95fbd89835afbe1f199bfc374da6be",
          "transactionIndex": "0x1",
          "logIndex": "0x0",
          "removed": false
        }
      ],
      "logsBloom": "0x00000000000000000000000000000000000000000000000000000000000000000400000000000000000000000000000000000000000000000000000000000000000000000000000000000008000000000000000000100000000000000000000000040000020000000000000000000800000000000000000000000010000000000000000800000000000000000000000000000000000000000000010000000000000000000000000000000000000000000000000000000000000000000000000000000002000000000000000000000000800000000000000000000000000020000000000000000000000000000000000000000000000000000000000000000000",
      "type": "0x2",
      "transactionHash": "0xe0328b5b0f85cbc38d75b42189feae3eaf95fbd89835afbe1f199bfc374da6be",
      "transactionIndex": "0x1",
      "blockHash": "0x2ab692fe7352d8a75d66896b7725f354b3d322a5ab98c7a47fcc118976b7a0ff",
      "blockNumber": "0x7ddc463",
      "gasUsed": "0x16d81",
      "effectiveGasPrice": "0x5f5e100",
      "from": "0x08a74a0075a2c3a786a84439812a141c6c8b73f3",
      "to": "0x09b1e5f6e53fe41c5ca171f547c71b76044e29ed",
      "contractAddress": null,
      "gasUsedForL1": "0xa502",
      "l1BlockNumber": "0x78716b",
      "timeboosted": false
    }
  ],
  "libraries": [],
  "pending": [],
  "returns": {},
  "timestamp": 1741863760,
  "chain": 421614,
  "commit": "59634fe"
}