{
  "transactions": [
    {
      "hash": "0x901eb41602f02a7c1c6f7b19977f9888a71eb14f685f61e024c1f21e4ee260dc",
      "transactionType": "CALL",
      "contractName": null,
      "contractAddress": "0xb4e413fa5b465d56c60161b60288e343f1819df1",
      "function": "startNewEpoch()",
      "arguments": [],
      "transaction": {
        "from": "0x08a74a0075a2c3a786a84439812a141c6c8b73f3",
        "to": "0xb4e413fa5b465d56c60161b60288e343f1819df1",
        "gas": "0x5f852",
        "value": "0x0",
        "input": "0x3aab0a62",
        "nonce": "0x603d",
        "chainId": "0x66eee"
      },
      "additionalContracts": [],
      "isFixedGasLimit": false
    },
    {
      "hash": "0x4527696f8ff08d283e55d206dde44328e52f2f5b8c8612e2f9d91b7aaab9fa2e",
      "transactionType": "CALL",
      "contractName": "MockERC20",
      "contractAddress": "0x9d10ad9c4d53a61eaa5ab5cd70050ffc322c6731",
      "function": "mint(address,uint256)",
      "arguments": [
        "0xD55EA6B75D7D23710da20eD28F453fD0D263B86e",
        "100000000000000000000"
      ],
      "transaction": {
        "from": "0x08a74a0075a2c3a786a84439812a141c6c8b73f3",
        "to": "0x9d10ad9c4d53a61eaa5ab5cd70050ffc322c6731",
        "gas": "0x1ba47",
        "value": "0x0",
        "input": "0x40c10f19000000000000000000000000d55ea6b75d7d23710da20ed28f453fd0d263b86e0000000000000000000000000000000000000000000000056bc75e2d63100000",
        "nonce": "0x603e",
        "chainId": "0x66eee"
      },
      "additionalContracts": [],
      "isFixedGasLimit": false
    }
  ],
  "receipts": [
    {
      "status": "0x1",
      "cumulativeGasUsed": "0x40003",
      "logs": [
        {
          "address": "0x9d10ad9c4d53a61eaa5ab5cd70050ffc322c6731",
          "topics": [
            "0x8c5be1e5ebec7d5bd14f71427d1e84f3dd0314c0f7b2291e5b200ac8c7c3b925",
            "0x000000000000000000000000b4e413fa5b465d56c60161b60288e343f1819df1",
            "0x000000000000000000000000d55ea6b75d7d23710da20ed28f453fd0d263b86e"
          ],
          "data": "0x00000000000000000000000000000000000000000000003635c9adc5dea00000",
          "blockHash": "0x7694e2772f788ad0a2da9b680701b4d4fcba893fde3a0077f54310f17fbe5a7d",
          "blockNumber": "0x7ddddf8",
          "transactionHash": "0x901eb41602f02a7c1c6f7b19977f9888a71eb14f685f61e024c1f21e4ee260dc",
          "transactionIndex": "0x1",
          "logIndex": "0x0",
          "removed": false
        },
        {
          "address": "0x9d10ad9c4d53a61eaa5ab5cd70050ffc322c6731",
          "topics": [
            "0xddf252ad1be2c89b69c2b068fc378daa952ba7f163c4a11628f55a4df523b3ef",
            "0x000000000000000000000000b4e413fa5b465d56c60161b60288e343f1819df1",
            "0x000000000000000000000000d55ea6b75d7d23710da20ed28f453fd0d263b86e"
          ],
          "data": "0x00000000000000000000000000000000000000000000003635c9adc5dea00000",
          "blockHash": "0x7694e2772f788ad0a2da9b680701b4d4fcba893fde3a0077f54310f17fbe5a7d",
          "blockNumber": "0x7ddddf8",
          "transactionHash": "0x901eb41602f02a7c1c6f7b19977f9888a71eb14f685f61e024c1f21e4ee260dc",
          "transactionIndex": "0x1",
          "logIndex": "0x1",
          "removed": false
        },
        {
          "address": "0xd55ea6b75d7d23710da20ed28f453fd0d263b86e",
          "topics": [
            "0xddf252ad1be2c89b69c2b068fc378daa952ba7f163c4a11628f55a4df523b3ef",
            "0x0000000000000000000000000000000000000000000000000000000000000000",
            "0x000000000000000000000000b4e413fa5b465d56c60161b60288e343f1819df1"
          ],
          "data": "0x00000000000000000000000000000000000000000000003635c9adc5dea00000",
          "blockHash": "0x7694e2772f788ad0a2da9b680701b4d4fcba893fde3a0077f54310f17fbe5a7d",
          "blockNumber": "0x7ddddf8",
          "transactionHash": "0x901eb41602f02a7c1c6f7b19977f9888a71eb14f685f61e024c1f21e4ee260dc",
          "transactionIndex": "0x1",
          "logIndex": "0x2",
          "removed": false
        },
        {
          "address": "0xd55ea6b75d7d23710da20ed28f453fd0d263b86e",
          "topics": [
            "0xdcbc1c05240f31ff3ad067ef1ee35ce4997762752e3a095284754544f4c709d7",
            "0x000000000000000000000000b4e413fa5b465d56c60161b60288e343f1819df1",
            "0x000000000000000000000000b4e413fa5b465d56c60161b60288e343f1819df1"
          ],
          "data": "0x00000000000000000000000000000000000000000000003635c9adc5dea0000000000000000000000000000000000000000000000000003635c9adc5dea00000",
          "blockHash": "0x7694e2772f788ad0a2da9b680701b4d4fcba893fde3a0077f54310f17fbe5a7d",
          "blockNumber": "0x7ddddf8",
          "transactionHash": "0x901eb41602f02a7c1c6f7b19977f9888a71eb14f685f61e024c1f21e4ee260dc",
          "transactionIndex": "0x1",
          "logIndex": "0x3",
          "removed": false
        },
        {
          "address": "0xb4e413fa5b465d56c60161b60288e343f1819df1",
          "topics": [
            "0x41787f1277821474072e18df95f0bd9ed9f117003aa97732ebbd737225b32b02",
            "0x0000000000000000000000000000000000000000000000000000000000000001"
          ],
          "data": "0x0000000000000000000000000000000000000000000000000000000067d2c266",
          "blockHash": "0x7694e2772f788ad0a2da9b680701b4d4fcba893fde3a0077f54310f17fbe5a7d",
          "blockNumber": "0x7ddddf8",
          "transactionHash": "0x901eb41602f02a7c1c6f7b19977f9888a71eb14f685f61e024c1f21e4ee260dc",
          "transactionIndex": "0x1",
          "logIndex": "0x4",
          "removed": false
        }
      ],
      "logsBloom": "0x00000000000000000000400000000000000000000000100000000000000000000000000000000000000000000000000000100000000000000000000000240000000000401000000000000008000000000000000020040000000000000000000002000000020000000001000010000800000000000004000000000010000000000800000000000080000400000000000000000000010000000000000000000008020000000000000000000080001000000000000000000000000000000000000000000002000000000000000000000000000000000808000000000000000060000010000000000000000010000080000000000000000000000000000000000000",
      "type": "0x2",
      "transactionHash": "0x901eb41602f02a7c1c6f7b19977f9888a71eb14f685f61e024c1f21e4ee260dc",
      "transactionIndex": "0x1",
      "blockHash": "0x7694e2772f788ad0a2da9b680701b4d4fcba893fde3a0077f54310f17fbe5a7d",
      "blockNumber": "0x7ddddf8",
      "gasUsed": "0x40003",
      "effectiveGasPrice": "0x5f5e100",
      "from": "0x08a74a0075a2c3a786a84439812a141c6c8b73f3",
      "to": "0xb4e413fa5b465d56c60161b60288e343f1819df1",
      "contractAddress": null,
      "gasUsedForL1": "0x451b",
      "l1BlockNumber": "0x7871f9",
      "timeboosted": false
    },
    {
      "status": "0x1",
      "cumulativeGasUsed": "0x2fb90",
      "logs": [
        {
          "address": "0x9d10ad9c4d53a61eaa5ab5cd70050ffc322c6731",
          "topics": [
            "0xddf252ad1be2c89b69c2b068fc378daa952ba7f163c4a11628f55a4df523b3ef",
            "0x0000000000000000000000000000000000000000000000000000000000000000",
            "0x000000000000000000000000d55ea6b75d7d23710da20ed28f453fd0d263b86e"
          ],
          "data": "0x0000000000000000000000000000000000000000000000056bc75e2d63100000",
          "blockHash": "0x56a2bfc8bb89a0329e49a7bfc7af92ee9b7650b8d0aaee267936d6b7fba3be7b",
          "blockNumber": "0x7ddddfe",
          "transactionHash": "0x4527696f8ff08d283e55d206dde44328e52f2f5b8c8612e2f9d91b7aaab9fa2e",
          "transactionIndex": "0x2",
          "logIndex": "0x2",
          "removed": false
        }
      ],
      "logsBloom": "0x00000000000000000000000000000000000000000000100000000000000000000000000000000000000000000000000000000000000000000000000000000000000000000000000000000008000000000000000000000000000000000000000002000000020000000000000000000800000000000000000000000010000000000000000000000000000400000000000000000000010000000000000000000000000000000000000000000000001000000000000000000000000000000000000000000002000000000000000000000000000000000000000000000000000020000000000000000000000000000080000000000000000000000000000000000000",
      "type": "0x2",
      "transactionHash": "0x4527696f8ff08d283e55d206dde44328e52f2f5b8c8612e2f9d91b7aaab9fa2e",
      "transactionIndex": "0x2",
      "blockHash": "0x56a2bfc8bb89a0329e49a7bfc7af92ee9b7650b8d0aaee267936d6b7fba3be7b",
      "blockNumber": "0x7ddddfe",
      "gasUsed": "0xf08d",
      "effectiveGasPrice": "0x5f5e100",
      "from": "0x08a74a0075a2c3a786a84439812a141c6c8b73f3",
      "to": "0x9d10ad9c4d53a61eaa5ab5cd70050ffc322c6731",
      "contractAddress": null,
      "gasUsedForL1": "0x6ada",
      "l1BlockNumber": "0x7871f9",
      "timeboosted": false
    }
  ],
  "libraries": [],
  "pending": [],
  "returns": {},
  "timestamp": 1741865574,
  "chain": 421614,
  "commit": "59634fe"
}