{
  "transactions": [
    {
      "hash": "0x031968d8e34b4928d5af71bdd937c23dc3d771788f99a2a692202b73076c2e2a",
      "transactionType": "CALL",
      "contractName": null,
      "contractAddress": "0xb4e413fa5b465d56c60161b60288e343f1819df1",
      "function": "settle(int256)",
      "arguments": [
        "0"
      ],
      "transaction": {
        "from": "0x08a74a0075a2c3a786a84439812a141c6c8b73f3",
        "to": "0xb4e413fa5b465d56c60161b60288e343f1819df1",
        "gas": "0x4183c",
        "value": "0x0",
        "input": "0x5d0f39590000000000000000000000000000000000000000000000000000000000000000",
        "nonce": "0x6048",
        "chainId": "0x66eee"
      },
      "additionalContracts": [],
      "isFixedGasLimit": false
    }
  ],
  "receipts": [
    {
      "status": "0x1",
      "cumulativeGasUsed": "0x2bc21",
      "logs": [
        {
          "address": "0xd55ea6b75d7d23710da20ed28f453fd0d263b86e",
          "topics": [
            "0xddf252ad1be2c89b69c2b068fc378daa952ba7f163c4a11628f55a4df523b3ef",
            "0x000000000000000000000000b4e413fa5b465d56c60161b60288e343f1819df1",
            "0x0000000000000000000000000000000000000000000000000000000000000000"
          ],
          "data": "0x000000000000000000000000000000000000000000000027c10b5d4cd6755576",
          "blockHash": "0x985a4f7262270861adeffad2aeb872ca5b605b7f09ddf64447b0c58fe9aded30",
          "blockNumber": "0x7de38ff",
          "transactionHash": "0x031968d8e34b4928d5af71bdd937c23dc3d771788f99a2a692202b73076c2e2a",
          "transactionIndex": "0x1",
          "logIndex": "0x0",
          "removed": false
        },
        {
          "address": "0x9d10ad9c4d53a61eaa5ab5cd70050ffc322c6731",
          "topics": [
            "0xddf252ad1be2c89b69c2b068fc378daa952ba7f163c4a11628f55a4df523b3ef",
            "0x000000000000000000000000d55ea6b75d7d23710da20ed28f453fd0d263b86e",
            "0x000000000000000000000000b4e413fa5b465d56c60161b60288e343f1819df1"
          ],
          "data": "0x00000000000000000000000000000000000000000000007caee97613e6700061",
          "blockHash": "0x985a4f7262270861adeffad2aeb872ca5b605b7f09ddf64447b0c58fe9aded30",
          "blockNumber": "0x7de38ff",
          "transactionHash": "0x031968d8e34b4928d5af71bdd937c23dc3d771788f99a2a692202b73076c2e2a",
          "transactionIndex": "0x1",
          "logIndex": "0x1",
          "removed": false
        },
        {
          "address": "0xd55ea6b75d7d23710da20ed28f453fd0d263b86e",
          "topics": [
            "0xfbde797d201c681b91056529119e0b02407c7bb96a4a2c75c01fc9667232c8db",
            "0x000000000000000000000000b4e413fa5b465d56c60161b60288e343f1819df1",
            "0x000000000000000000000000b4e413fa5b465d56c60161b60288e343f1819df1",
            "0x000000000000000000000000b4e413fa5b465d56c60161b60288e343f1819df1"
          ],
          "data": "0x00000000000000000000000000000000000000000000007caee97613e6700061000000000000000000000000000000000000000000000027c10b5d4cd6755576",
          "blockHash": "0x985a4f7262270861adeffad2aeb872ca5b605b7f09ddf64447b0c58fe9aded30",
          "blockNumber": "0x7de38ff",
          "transactionHash": "0x031968d8e34b4928d5af71bdd937c23dc3d771788f99a2a692202b73076c2e2a",
          "transactionIndex": "0x1",
          "logIndex": "0x2",
          "removed": false
        },
        {
          "address": "0xb4e413fa5b465d56c60161b60288e343f1819df1",
          "topics": [
            "0x09a0ee5369b675720752cb405a0bf575e2617c54246b2865a673397a3bd2be8e",
            "0x00000000000000000000000008a74a0075a2c3a786a84439812a141c6c8b73f3"
          ],
          "data": "0x00000000000000000000000000000000000000000000000000000000000000000000000000000000000000000000000000000000000000000000000000000000",
          "blockHash": "0x985a4f7262270861adeffad2aeb872ca5b605b7f09ddf64447b0c58fe9aded30",
          "blockNumber": "0x7de38ff",
          "transactionHash": "0x031968d8e34b4928d5af71bdd937c23dc3d771788f99a2a692202b73076c2e2a",
          "transactionIndex": "0x1",
          "logIndex": "0x3",
          "removed": false
        },
        {
          "address": "0xb4e413fa5b465d56c60161b60288e343f1819df1",
          "topics": [
            "0x27bd0cff633fd950c11ae24bd614aa2d87d938a50d6b65573c3743be7a831f57",
            "0x0000000000000000000000000000000000000000000000000000000000000003"
          ],
          "data": "0x0000000000000000000000000000000000000000000000000000000067d2dae6",
          "blockHash": "0x985a4f7262270861adeffad2aeb872ca5b605b7f09ddf64447b0c58fe9aded30",
          "blockNumber": "0x7de38ff",
          "transactionHash": "0x031968d8e34b4928d5af71bdd937c23dc3d771788f99a2a692202b73076c2e2a",
          "transactionIndex": "0x1",
          "logIndex": "0x4",
          "removed": false
        }
      ],
      "logsBloom": "0x00000000000000400000002000000000000000000000100000000000000000000000000000000000000000000000000000100000020000000000200000000000000000001000000000000008000000001000000020000000020000000000000002000000020000000001000000000800000000000000000000000010000000000800000000000080000400000000000000000000010000400000000000000008002000000000000000000000001000020000000000800000000000000000400000000002000000000000000000000000000000000800000000000000000020000000000000000000000010200080000000000000000000000000000000104000",
      "type": "0x2",
      "transactionHash": "0x031968d8e34b4928d5af71bdd937c23dc3d771788f99a2a692202b73076c2e2a",
      "transactionIndex": "0x1",
      "blockHash": "0x985a4f7262270861adeffad2aeb872ca5b605b7f09ddf64447b0c58fe9aded30",
      "blockNumber": "0x7de38ff",
      "gasUsed": "0x2bc21",
      "effectiveGasPrice": "0x5f5e100",
      "from": "0x08a74a0075a2c3a786a84439812a141c6c8b73f3",
      "to": "0xb4e413fa5b465d56c60161b60288e343f1819df1",
      "contractAddress": null,
      "gasUsedForL1": "0x773d",
      "l1BlockNumber": "0x7873e1",
      "timeboosted": false
    }
  ],
  "libraries": [],
  "pending": [],
  "returns": {},
  "timestamp": 1741871845,
  "chain": 421614,
  "commit": "59634fe"
}