{
  "transactions": [
    {
      "hash": "0x02f7dbb839eaea711d4e75357088882cb2a2c1344529d2deb32abff590057216",
      "transactionType": "CALL",
      "contractName": "MockERC20",
      "contractAddress": "0x9d10ad9c4d53a61eaa5ab5cd70050ffc322c6731",
      "function": "approve(address,uint256)",
      "arguments": [
        "0x8CB9f8DF367743Dd5b6c20B9e22E4f2FC7CDc16C",
        "100000000000000000000000"
      ],
      "transaction": {
        "from": "0x08a74a0075a2c3a786a84439812a141c6c8b73f3",
        "to": "0x9d10ad9c4d53a61eaa5ab5cd70050ffc322c6731",
        "gas": "0x1a648",
        "value": "0x0",
        "input": "0x095ea7b30000000000000000000000008cb9f8df367743dd5b6c20b9e22e4f2fc7cdc16c00000000000000000000000000000000000000000000152d02c7e14af6800000",
        "nonce": "0x6006",
        "chainId": "0x66eee"
      },
      "additionalContracts": [],
      "isFixedGasLimit": false
    },
    {
      "hash": "0x1be9f7174c117ebda2f6648690c717adab8cb87bbe50122480f47324fcd6c8b9",
      "transactionType": "CALL",
      "contractName": null,
      "contractAddress": "0x8cb9f8df367743dd5b6c20b9e22e4f2fc7cdc16c",
      "function": "deposit(uint256,address)",
      "arguments": [
        "1000000000000000000000",
        "0x08a74A0075a2C3A786A84439812a141C6C8b73f3"
      ],
      "transaction": {
        "from": "0x08a74a0075a2c3a786a84439812a141c6c8b73f3",
        "to": "0x8cb9f8df367743dd5b6c20b9e22e4f2fc7cdc16c",
        "gas": "0x32f7c",
        "value": "0x0",
        "input": "0x6e553f6500000000000000000000000000000000000000000000003635c9adc5dea0000000000000000000000000000008a74a0075a2c3a786a84439812a141c6c8b73f3",
        "nonce": "0x6007",
        "chainId": "0x66eee"
      },
      "additionalContracts": [],
      "isFixedGasLimit": false
    }
  ],
  "receipts": [
    {
      "status": "0x1",
      "cumulativeGasUsed": "0x1232d",
      "logs": [
        {
          "address": "0x9d10ad9c4d53a61eaa5ab5cd70050ffc322c6731",
          "topics": [
            "0x8c5be1e5ebec7d5bd14f71427d1e84f3dd0314c0f7b2291e5b200ac8c7c3b925",
            "0x00000000000000000000000008a74a0075a2c3a786a84439812a141c6c8b73f3",
            "0x0000000000000000000000008cb9f8df367743dd5b6c20b9e22e4f2fc7cdc16c"
          ],
          "data": "0x00000000000000000000000000000000000000000000152d02c7e14af6800000",
          "blockHash": "0x82ac66a0c5c54d87fdb9414cb6f5cdc8f3b994f807c5dda2a1189f499995203d",
          "blockNumber": "0x7d5720a",
          "transactionHash": "0x02f7dbb839eaea711d4e75357088882cb2a2c1344529d2deb32abff590057216",
          "transactionIndex": "0x1",
          "logIndex": "0x0",
          "removed": false
        }
      ],
      "logsBloom": "0x00000000000000200000000000000000000000000000000000000200000000000000000000000000000000000000000000000000000000000000200000200000000000000000000000000000000000000000000000000000020000000000000002000000000000000000000000000000000000000000000000000000000000000000000000000000000400000000000000000000050000400000000000000000020000000000000000000000000000000000000000000000000000000000000000000000000000000000000000000000000000000000000000000000000000000010000000000000000000000000000000000000000000000000000000000000",
      "type": "0x2",
      "transactionHash": "0x02f7dbb839eaea711d4e75357088882cb2a2c1344529d2deb32abff590057216",
      "transactionIndex": "0x1",
      "blockHash": "0x82ac66a0c5c54d87fdb9414cb6f5cdc8f3b994f807c5dda2a1189f499995203d",
      "blockNumber": "0x7d5720a",
      "gasUsed": "0x1232d",
      "effectiveGasPrice": "0x5f5e100",
      "from": "0x08a74a0075a2c3a786a84439812a141c6c8b73f3",
      "to": "0x9d10ad9c4d53a61eaa5ab5cd70050ffc322c6731",
      "contractAddress": null,
      "gasUsedForL1": "0x6df7",
      "l1BlockNumber": "0x784373",
      "timeboosted": false
    },
    {
      "status": "0x1",
      "cumulativeGasUsed": "0x29b90",
      "logs": [
        {
          "address": "0x9d10ad9c4d53a61eaa5ab5cd70050ffc322c6731",
          "topics": [
            "0xddf252ad1be2c89b69c2b068fc378daa952ba7f163c4a11628f55a4df523b3ef",
            "0x00000000000000000000000008a74a0075a2c3a786a84439812a141c6c8b73f3",
            "0x0000000000000000000000008cb9f8df367743dd5b6c20b9e22e4f2fc7cdc16c"
          ],
          "data": "0x00000000000000000000000000000000000000000000003635c9adc5dea00000",
          "blockHash": "0xedceb430547a4dee81e25467842c496ccfa7e8ff8ebb540de92ad02bbaf62d51",
          "blockNumber": "0x7d57210",
          "transactionHash": "0x1be9f7174c117ebda2f6648690c717adab8cb87bbe50122480f47324fcd6c8b9",
          "transactionIndex": "0x1",
          "logIndex": "0x0",
          "removed": false
        },
        {
          "address": "0x8cb9f8df367743dd5b6c20b9e22e4f2fc7cdc16c",
          "topics": [
            "0xddf252ad1be2c89b69c2b068fc378daa952ba7f163c4a11628f55a4df523b3ef",
            "0x0000000000000000000000000000000000000000000000000000000000000000",
            "0x00000000000000000000000008a74a0075a2c3a786a84439812a141c6c8b73f3"
          ],
          "data": "0x00000000000000000000000000000000000000000000003635c9adc5dea00000",
          "blockHash": "0xedceb430547a4dee81e25467842c496ccfa7e8ff8ebb540de92ad02bbaf62d51",
          "blockNumber": "0x7d57210",
          "transactionHash": "0x1be9f7174c117ebda2f6648690c717adab8cb87bbe50122480f47324fcd6c8b9",
          "transactionIndex": "0x1",
          "logIndex": "0x1",
          "removed": false
        },
        {
          "address": "0x8cb9f8df367743dd5b6c20b9e22e4f2fc7cdc16c",
          "topics": [
            "0xdcbc1c05240f31ff3ad067ef1ee35ce4997762752e3a095284754544f4c709d7",
            "0x00000000000000000000000008a74a0075a2c3a786a84439812a141c6c8b73f3",
            "0x00000000000000000000000008a74a0075a2c3a786a84439812a141c6c8b73f3"
          ],
          "data": "0x00000000000000000000000000000000000000000000003635c9adc5dea0000000000000000000000000000000000000000000000000003635c9adc5dea00000",
          "blockHash": "0xedceb430547a4dee81e25467842c496ccfa7e8ff8ebb540de92ad02bbaf62d51",
          "blockNumber": "0x7d57210",
          "transactionHash": "0x1be9f7174c117ebda2f6648690c717adab8cb87bbe50122480f47324fcd6c8b9",
          "transactionIndex": "0x1",
          "logIndex": "0x2",
          "removed": false
        }
      ],
      "logsBloom": "0x00000000000000200000000000000000000008000000000000000200000000000000000000000000000000000000000000000000000000000000200000000000000000400000000000000008000000000000000000000000020000000000000002000000020000000000000000000800000000000004000000000010000000000000000000000200000400000000000000000000050000400000000000000000000000000000000000001000000000000000000000000000000000000000000000000002000000000000000000000000000000000008000000000000000020000000000000000000000000000000000000000000000000000000000000000000",
      "type": "0x2",
      "transactionHash": "0x1be9f7174c117ebda2f6648690c717adab8cb87bbe50122480f47324fcd6c8b9",
      "transactionIndex": "0x1",
      "blockHash": "0xedceb430547a4dee81e25467842c496ccfa7e8ff8ebb540de92ad02bbaf62d51",
      "blockNumber": "0x7d57210",
      "gasUsed": "0x29b90",
      "effectiveGasPrice": "0x5f5e100",
      "from": "0x08a74a0075a2c3a786a84439812a141c6c8b73f3",
      "to": "0x8cb9f8df367743dd5b6c20b9e22e4f2fc7cdc16c",
      "contractAddress": null,
      "gasUsedForL1": "0x6df7",
      "l1BlockNumber": "0x784373",
      "timeboosted": false
    }
  ],
  "libraries": [],
  "pending": [],
  "returns": {},
  "timestamp": 1741713187,
  "chain": 421614,
  "commit": "59634fe"
}