{
  "transactions": [
    {
      "hash": "0xb7ae4b91f4eb18ca9b76895212add46fa248d100e094d231ba9755e2f08e8da1",
      "transactionType": "CALL",
      "contractName": null,
      "contractAddress": "0xb4e413fa5b465d56c60161b60288e343f1819df1",
      "function": "startNewEpoch()",
      "arguments": [],
      "transaction": {
        "from": "0x08a74a0075a2c3a786a84439812a141c6c8b73f3",
        "to": "0xb4e413fa5b465d56c60161b60288e343f1819df1",
        "gas": "0x50be1",
        "value": "0x0",
        "input": "0x3aab0a62",
        "nonce": "0x604e",
        "chainId": "0x66eee"
      },
      "additionalContracts": [],
      "isFixedGasLimit": false
    },
    {
      "hash": "0xa77fe6875d665fe2dddb74b5387dd224b7a18c7ce2fb7cf0ef6adf35a60d7ea3",
      "transactionType": "CALL",
      "contractName": "MockERC20",
      "contractAddress": "0x9d10ad9c4d53a61eaa5ab5cd70050ffc322c6731",
      "function": "mint(address,uint256)",
      "arguments": [
        "0xD55EA6B75D7D23710da20eD28F453fD0D263B86e",
        "100000000000000000000"
      ],
      "transaction": {
        "from": "0x08a74a0075a2c3a786a84439812a141c6c8b73f3",
        "to": "0x9d10ad9c4d53a61eaa5ab5cd70050ffc322c6731",
        "gas": "0x11380",
        "value": "0x0",
        "input": "0x40c10f19000000000000000000000000d55ea6b75d7d23710da20ed28f453fd0d263b86e0000000000000000000000000000000000000000000000056bc75e2d63100000",
        "nonce": "0x604f",
        "chainId": "0x66eee"
      },
      "additionalContracts": [],
      "isFixedGasLimit": false
    },
    {
      "hash": "0xcc44581868361af6de249d8511dfe62df3aef3ede2957d13e662dd249f47d1f7",
      "transactionType": "CALL",
      "contractName": null,
      "contractAddress": "0xb4e413fa5b465d56c60161b60288e343f1819df1",
      "function": "borrow(uint256)",
      "arguments": [
        "500000000000000000000"
      ],
      "transaction": {
        "from": "0x08a74a0075a2c3a786a84439812a141c6c8b73f3",
        "to": "0xb4e413fa5b465d56c60161b60288e343f1819df1",
        "gas": "0x26aec",
        "value": "0x0",
        "input": "0xc5ebeaec00000000000000000000000000000000000000000000001b1ae4d6e2ef500000",
        "nonce": "0x6050",
        "chainId": "0x66eee"
      },
      "additionalContracts": [],
      "isFixedGasLimit": false
    }
  ],
  "receipts": [
    {
      "status": "0x1",
      "cumulativeGasUsed": "0x355ab",
      "logs": [
        {
          "address": "0x9d10ad9c4d53a61eaa5ab5cd70050ffc322c6731",
          "topics": [
            "0x8c5be1e5ebec7d5bd14f71427d1e84f3dd0314c0f7b2291e5b200ac8c7c3b925",
            "0x000000000000000000000000b4e413fa5b465d56c60161b60288e343f1819df1",
            "0x000000000000000000000000d55ea6b75d7d23710da20ed28f453fd0d263b86e"
          ],
          "data": "0x00000000000000000000000000000000000000000000008cf23f909c0fa00060",
          "blockHash": "0x969038d20bcceff9f4bf4a5fcb6b4af82ffd278afac9a89fbdb7d0e951b36c34",
          "blockNumber": "0x7de7b3f",
          "transactionHash": "0xb7ae4b91f4eb18ca9b76895212add46fa248d100e094d231ba9755e2f08e8da1",
          "transactionIndex": "0x1",
          "logIndex": "0x0",
          "removed": false
        },
        {
          "address": "0x9d10ad9c4d53a61eaa5ab5cd70050ffc322c6731",
          "topics": [
            "0xddf252ad1be2c89b69c2b068fc378daa952ba7f163c4a11628f55a4df523b3ef",
            "0x000000000000000000000000b4e413fa5b465d56c60161b60288e343f1819df1",
            "0x000000000000000000000000d55ea6b75d7d23710da20ed28f453fd0d263b86e"
          ],
          "data": "0x00000000000000000000000000000000000000000000008cf23f909c0fa00060",
          "blockHash": "0x969038d20bcceff9f4bf4a5fcb6b4af82ffd278afac9a89fbdb7d0e951b36c34",
          "blockNumber": "0x7de7b3f",
          "transactionHash": "0xb7ae4b91f4eb18ca9b76895212add46fa248d100e094d231ba9755e2f08e8da1",
          "transactionIndex": "0x1",
          "logIndex": "0x1",
          "removed": false
        },
        {
          "address": "0xd55ea6b75d7d23710da20ed28f453fd0d263b86e",
          "topics": [
            "0xddf252ad1be2c89b69c2b068fc378daa952ba7f163c4a11628f55a4df523b3ef",
            "0x0000000000000000000000000000000000000000000000000000000000000000",
            "0x000000000000000000000000b4e413fa5b465d56c60161b60288e343f1819df1"
          ],
          "data": "0x00000000000000000000000000000000000000000000001c30731cec03200013",
          "blockHash": "0x969038d20bcceff9f4bf4a5fcb6b4af82ffd278afac9a89fbdb7d0e951b36c34",
          "blockNumber": "0x7de7b3f",
          "transactionHash": "0xb7ae4b91f4eb18ca9b76895212add46fa248d100e094d231ba9755e2f08e8da1",
          "transactionIndex": "0x1",
          "logIndex": "0x2",
          "removed": false
        },
        {
          "address": "0xd55ea6b75d7d23710da20ed28f453fd0d263b86e",
          "topics": [
            "0xdcbc1c05240f31ff3ad067ef1ee35ce4997762752e3a095284754544f4c709d7",
            "0x000000000000000000000000b4e413fa5b465d56c60161b60288e343f1819df1",
            "0x000000000000000000000000b4e413fa5b465d56c60161b60288e343f1819df1"
          ],
          "data": "0x00000000000000000000000000000000000000000000008cf23f909c0fa0006000000000000000000000000000000000000000000000001c30731cec03200013",
          "blockHash": "0x969038d20bcceff9f4bf4a5fcb6b4af82ffd278afac9a89fbdb7d0e951b36c34",
          "blockNumber": "0x7de7b3f",
          "transactionHash": "0xb7ae4b91f4eb18ca9b76895212add46fa248d100e094d231ba9755e2f08e8da1",
          "transactionIndex": "0x1",
          "logIndex": "0x3",
          "removed": false
        },
        {
          "address": "0xb4e413fa5b465d56c60161b60288e343f1819df1",
          "topics": [
            "0x41787f1277821474072e18df95f0bd9ed9f117003aa97732ebbd737225b32b02",
            "0x0000000000000000000000000000000000000000000000000000000000000005"
          ],
          "data": "0x0000000000000000000000000000000000000000000000000000000067d2ec72",
          "blockHash": "0x969038d20bcceff9f4bf4a5fcb6b4af82ffd278afac9a89fbdb7d0e951b36c34",
          "blockNumber": "0x7de7b3f",
          "transactionHash": "0xb7ae4b91f4eb18ca9b76895212add46fa248d100e094d231ba9755e2f08e8da1",
          "transactionIndex": "0x1",
          "logIndex": "0x4",
          "removed": false
        }
      ],
      "logsBloom": "0x00000000000000000000400000000000000000000000100000000000000000000000000000000000000000000000000000100000000000000000000000200000000010401000000000000008000000000000000020000000000000000000000002000000020000000001000010000800000000000004000000000010000000000800000000000080000400000000001000000800010000000000000000000008020000000000000000000080001000000000000000000000000000000000000000000002000000000000000000000000000000000808000000000000000020000010000000000000000010000080000000000000000000000000000000000000",
      "type": "0x2",
      "transactionHash": "0xb7ae4b91f4eb18ca9b76895212add46fa248d100e094d231ba9755e2f08e8da1",
      "transactionIndex": "0x1",
      "blockHash": "0x969038d20bcceff9f4bf4a5fcb6b4af82ffd278afac9a89fbdb7d0e951b36c34",
      "blockNumber": "0x7de7b3f",
      "gasUsed": "0x355ab",
      "effectiveGasPrice": "0xa4209a0",
      "from": "0x08a74a0075a2c3a786a84439812a141c6c8b73f3",
      "to": "0xb4e413fa5b465d56c60161b60288e343f1819df1",
      "contractAddress": null,
      "gasUsedForL1": "0x205b",
      "l1BlockNumber": "0x78753e",
      "timeboosted": false
    },
    {
      "status": "0x1",
      "cumulativeGasUsed": "0xb882",
      "logs": [
        {
          "address": "0x9d10ad9c4d53a61eaa5ab5cd70050ffc322c6731",
          "topics": [
            "0xddf252ad1be2c89b69c2b068fc378daa952ba7f163c4a11628f55a4df523b3ef",
            "0x0000000000000000000000000000000000000000000000000000000000000000",
            "0x000000000000000000000000d55ea6b75d7d23710da20ed28f453fd0d263b86e"
          ],
          "data": "0x0000000000000000000000000000000000000000000000056bc75e2d63100000",
          "blockHash": "0x344b58eed621bd06c0b183f861290583538e34fa1cd70aa16e459811856aeafc",
          "blockNumber": "0x7de7b44",
          "transactionHash": "0xa77fe6875d665fe2dddb74b5387dd224b7a18c7ce2fb7cf0ef6adf35a60d7ea3",
          "transactionIndex": "0x1",
          "logIndex": "0x0",
          "removed": false
        }
      ],
      "logsBloom": "0x00000000000000000000000000000000000000000000100000000000000000000000000000000000000000000000000000000000000000000000000000000000000000000000000000000008000000000000000000000000000000000000000002000000020000000000000000000800000000000000000000000010000000000000000000000000000400000000000000000000010000000000000000000000000000000000000000000000001000000000000000000000000000000000000000000002000000000000000000000000000000000000000000000000000020000000000000000000000000000080000000000000000000000000000000000000",
      "type": "0x2",
      "transactionHash": "0xa77fe6875d665fe2dddb74b5387dd224b7a18c7ce2fb7cf0ef6adf35a60d7ea3",
      "transactionIndex": "0x1",
      "blockHash": "0x344b58eed621bd06c0b183f861290583538e34fa1cd70aa16e459811856aeafc",
      "blockNumber": "0x7de7b44",
      "gasUsed": "0xb882",
      "effectiveGasPrice": "0xa19c120",
      "from": "0x08a74a0075a2c3a786a84439812a141c6c8b73f3",
      "to": "0x9d10ad9c4d53a61eaa5ab5cd70050ffc322c6731",
      "contractAddress": null,
      "gasUsedForL1": "0x32cf",
      "l1BlockNumber": "0x78753e",
      "timeboosted": false
    },
    {
      "status": "0x1",
      "cumulativeGasUsed": "0x1e93d",
      "logs": [
        {
          "address": "0xd55ea6b75d7d23710da20ed28f453fd0d263b86e",
          "topics": [
            "0xddf252ad1be2c89b69c2b068fc378daa952ba7f163c4a11628f55a4df523b3ef",
            "0x000000000000000000000000b4e413fa5b465d56c60161b60288e343f1819df1",
            "0x0000000000000000000000000000000000000000000000000000000000000000"
          ],
          "data": "0x00000000000000000000000000000000000000000000000538612b4826812f69",
          "blockHash": "0x3127b2b417ce32bb3f42ae550c685c62a22952338fcb3ed14f23af690a8cbb21",
          "blockNumber": "0x7de7b48",
          "transactionHash": "0xcc44581868361af6de249d8511dfe62df3aef3ede2957d13e662dd249f47d1f7",
          "transactionIndex": "0x1",
          "logIndex": "0x0",
          "removed": false
        },
        {
          "address": "0x9d10ad9c4d53a61eaa5ab5cd70050ffc322c6731",
          "topics": [
            "0xddf252ad1be2c89b69c2b068fc378daa952ba7f163c4a11628f55a4df523b3ef",
            "0x000000000000000000000000d55ea6b75d7d23710da20ed28f453fd0d263b86e",
            "0x000000000000000000000000b4e413fa5b465d56c60161b60288e343f1819df1"
          ],
          "data": "0x00000000000000000000000000000000000000000000001b1ae4d6e2ef500000",
          "blockHash": "0x3127b2b417ce32bb3f42ae550c685c62a22952338fcb3ed14f23af690a8cbb21",
          "blockNumber": "0x7de7b48",
          "transactionHash": "0xcc44581868361af6de249d8511dfe62df3aef3ede2957d13e662dd249f47d1f7",
          "transactionIndex": "0x1",
          "logIndex": "0x1",
          "removed": false
        },
        {
          "address": "0xd55ea6b75d7d23710da20ed28f453fd0d263b86e",
          "topics": [
            "0xfbde797d201c681b91056529119e0b02407c7bb96a4a2c75c01fc9667232c8db",
            "0x000000000000000000000000b4e413fa5b465d56c60161b60288e343f1819df1",
            "0x000000000000000000000000b4e413fa5b465d56c60161b60288e343f1819df1",
            "0x000000000000000000000000b4e413fa5b465d56c60161b60288e343f1819df1"
          ],
          "data": "0x00000000000000000000000000000000000000000000001b1ae4d6e2ef50000000000000000000000000000000000000000000000000000538612b4826812f69",
          "blockHash": "0x3127b2b417ce32bb3f42ae550c685c62a22952338fcb3ed14f23af690a8cbb21",
          "blockNumber": "0x7de7b48",
          "transactionHash": "0xcc44581868361af6de249d8511dfe62df3aef3ede2957d13e662dd249f47d1f7",
          "transactionIndex": "0x1",
          "logIndex": "0x2",
          "removed": false
        },
        {
          "address": "0x9d10ad9c4d53a61eaa5ab5cd70050ffc322c6731",
          "topics": [
            "0xddf252ad1be2c89b69c2b068fc378daa952ba7f163c4a11628f55a4df523b3ef",
            "0x000000000000000000000000b4e413fa5b465d56c60161b60288e343f1819df1",
            "0x00000000000000000000000008a74a0075a2c3a786a84439812a141c6c8b73f3"
          ],
          "data": "0x00000000000000000000000000000000000000000000001b1ae4d6e2ef500000",
          "blockHash": "0x3127b2b417ce32bb3f42ae550c685c62a22952338fcb3ed14f23af690a8cbb21",
          "blockNumber": "0x7de7b48",
          "transactionHash": "0xcc44581868361af6de249d8511dfe62df3aef3ede2957d13e662dd249f47d1f7",
          "transactionIndex": "0x1",
          "logIndex": "0x3",
          "removed": false
        },
        {
          "address": "0xb4e413fa5b465d56c60161b60288e343f1819df1",
          "topics": [
            "0x7fd4365684b3ba337d3ae48b3f8e735f5159301d6df281756306b6363adb66e7",
            "0x00000000000000000000000008a74a0075a2c3a786a84439812a141c6c8b73f3"
          ],
          "data": "0x00000000000000000000000000000000000000000000001b1ae4d6e2ef500000",
          "blockHash": "0x3127b2b417ce32bb3f42ae550c685c62a22952338fcb3ed14f23af690a8cbb21",
          "blockNumber": "0x7de7b48",
          "transactionHash": "0xcc44581868361af6de249d8511dfe62df3aef3ede2957d13e662dd249f47d1f7",
          "transactionIndex": "0x1",
          "logIndex": "0x4",
          "removed": false
        }
      ],
      "logsBloom": "0x00000000000000400000000000000000000000000000100000000000000000000000000000000000000000000000000000100000000000000000200000000000000400001000000000000008002000000000000020000000020000000000000002000000020000000001004000000800000000000000000000000010000000000800000000000080000400000000000000000000010000400000000000000008000000000000000000000000001000020000000000000000000000000000000000000002000000000000000000000000000000000800000000000000000020000000000000000000000010000080000000000000000000000000000000000000",
      "type": "0x2",
      "transactionHash": "0xcc44581868361af6de249d8511dfe62df3aef3ede2957d13e662dd249f47d1f7",
      "transactionIndex": "0x1",
      "blockHash": "0x3127b2b417ce32bb3f42ae550c685c62a22952338fcb3ed14f23af690a8cbb21",
      "blockNumber": "0x7de7b48",
      "gasUsed": "0x1e93d",
      "effectiveGasPrice": "0xa3c3d40",
      "from": "0x08a74a0075a2c3a786a84439812a141c6c8b73f3",
      "to": "0xb4e413fa5b465d56c60161b60288e343f1819df1",
      "contractAddress": null,
      "gasUsedForL1": "0x2926",
      "l1BlockNumber": "0x78753e",
      "timeboosted": false
    }
  ],
  "libraries": [],
  "pending": [],
  "returns": {},
  "timestamp": 1741876339,
  "chain": 421614,
  "commit": "59634fe"
}