{
  "transactions": [
    {
      "hash": "0x031e5e1633b38c095c8fe1cb5a9bf22a42ca56b5c08f30a3ff945b6bec763167",
      "transactionType": "CALL",
      "contractName": null,
      "contractAddress": "0x7a2f19f9a5e70d1acbd1b8a8e8052ad4f5f9b0b8",
      "function": "borrow(uint256)",
      "arguments": [
        "100000000000000000000"
      ],
      "transaction": {
        "from": "0x08a74a0075a2c3a786a84439812a141c6c8b73f3",
        "to": "0x7a2f19f9a5e70d1acbd1b8a8e8052ad4f5f9b0b8",
        "gas": "0x3638c",
        "value": "0x0",
        "input": "0xc5ebeaec0000000000000000000000000000000000000000000000056bc75e2d63100000",
        "nonce": "0x6039",
        "chainId": "0x66eee"
      },
      "additionalContracts": [],
      "isFixedGasLimit": false
    }
  ],
  "receipts": [
    {
      "status": "0x1",
      "cumulativeGasUsed": "0x93542",
      "logs": [
        {
          "address": "0x95379770c92c466b2a101915cf15b563d3a69ad4",
          "topics": [
            "0xddf252ad1be2c89b69c2b068fc378daa952ba7f163c4a11628f55a4df523b3ef",
            "0x0000000000000000000000007a2f19f9a5e70d1acbd1b8a8e8052ad4f5f9b0b8",
            "0x0000000000000000000000000000000000000000000000000000000000000000"
          ],
          "data": "0x0000000000000000000000000000000000000000000000000000000000000001",
          "blockHash": "0x074cfde6bbf3f2c86e3715687307dadafe87d33b5a680edd6a59b546513856ff",
          "blockNumber": "0x7ddcc6f",
          "transactionHash": "0x031e5e1633b38c095c8fe1cb5a9bf22a42ca56b5c08f30a3ff945b6bec763167",
          "transactionIndex": "0x6",
          "logIndex": "0x8",
          "removed": false
        },
        {
          "address": "0x09b1e5f6e53fe41c5ca171f547c71b76044e29ed",
          "topics": [
            "0xddf252ad1be2c89b69c2b068fc378daa952ba7f163c4a11628f55a4df523b3ef",
            "0x00000000000000000000000095379770c92c466b2a101915cf15b563d3a69ad4",
            "0x0000000000000000000000007a2f19f9a5e70d1acbd1b8a8e8052ad4f5f9b0b8"
          ],
          "data": "0x0000000000000000000000000000000000000000000000056bc75e2d63100000",
          "blockHash": "0x074cfde6bbf3f2c86e3715687307dadafe87d33b5a680edd6a59b546513856ff",
          "blockNumber": "0x7ddcc6f",
          "transactionHash": "0x031e5e1633b38c095c8fe1cb5a9bf22a42ca56b5c08f30a3ff945b6bec763167",
          "transactionIndex": "0x6",
          "logIndex": "0x9",
          "removed": false
        },
        {
          "address": "0x95379770c92c466b2a101915cf15b563d3a69ad4",
          "topics": [
            "0xfbde797d201c681b91056529119e0b02407c7bb96a4a2c75c01fc9667232c8db",
            "0x0000000000000000000000007a2f19f9a5e70d1acbd1b8a8e8052ad4f5f9b0b8",
            "0x0000000000000000000000007a2f19f9a5e70d1acbd1b8a8e8052ad4f5f9b0b8",
            "0x0000000000000000000000007a2f19f9a5e70d1acbd1b8a8e8052ad4f5f9b0b8"
          ],
          "data": "0x0000000000000000000000000000000000000000000000056bc75e2d631000000000000000000000000000000000000000000000000000000000000000000001",
          "blockHash": "0x074cfde6bbf3f2c86e3715687307dadafe87d33b5a680edd6a59b546513856ff",
          "blockNumber": "0x7ddcc6f",
          "transactionHash": "0x031e5e1633b38c095c8fe1cb5a9bf22a42ca56b5c08f30a3ff945b6bec763167",
          "transactionIndex": "0x6",
          "logIndex": "0xa",
          "removed": false
        },
        {
          "address": "0x09b1e5f6e53fe41c5ca171f547c71b76044e29ed",
          "topics": [
            "0xddf252ad1be2c89b69c2b068fc378daa952ba7f163c4a11628f55a4df523b3ef",
            "0x0000000000000000000000007a2f19f9a5e70d1acbd1b8a8e8052ad4f5f9b0b8",
            "0x00000000000000000000000008a74a0075a2c3a786a84439812a141c6c8b73f3"
          ],
          "data": "0x0000000000000000000000000000000000000000000000056bc75e2d63100000",
          "blockHash": "0x074cfde6bbf3f2c86e3715687307dadafe87d33b5a680edd6a59b546513856ff",
          "blockNumber": "0x7ddcc6f",
          "transactionHash": "0x031e5e1633b38c095c8fe1cb5a9bf22a42ca56b5c08f30a3ff945b6bec763167",
          "transactionIndex": "0x6",
          "logIndex": "0xb",
          "removed": false
        },
        {
          "address": "0x7a2f19f9a5e70d1acbd1b8a8e8052ad4f5f9b0b8",
          "topics": [
            "0x7fd4365684b3ba337d3ae48b3f8e735f5159301d6df281756306b6363adb66e7",
            "0x00000000000000000000000008a74a0075a2c3a786a84439812a141c6c8b73f3"
          ],
          "data": "0x0000000000000000000000000000000000000000000000056bc75e2d63100000",
          "blockHash": "0x074cfde6bbf3f2c86e3715687307dadafe87d33b5a680edd6a59b546513856ff",
          "blockNumber": "0x7ddcc6f",
          "transactionHash": "0x031e5e1633b38c095c8fe1cb5a9bf22a42ca56b5c08f30a3ff945b6bec763167",
          "transactionIndex": "0x6",
          "logIndex": "0xc",
          "removed": false
        }
      ],
      "logsBloom": "0x00000000000000400000000000000000000000000000000000000000000000a00400000000000000000000000000000000000000000000000000200002000000000400000000000000000008002000000000000000100000020000000000000000040000020000020000004000000800000000000000000000000010000000000000000840000000000001000000000000000000000000400000010000000000000000000000000000000000000000020000001000000000100000000000000000000002000000000000000000000000800000000000000000000000000020000000000000000000000000000000000000000000000800000000000000000000",
      "type": "0x2",
      "transactionHash": "0x031e5e1633b38c095c8fe1cb5a9bf22a42ca56b5c08f30a3ff945b6bec763167",
      "transactionIndex": "0x6",
      "blockHash": "0x074cfde6bbf3f2c86e3715687307dadafe87d33b5a680edd6a59b546513856ff",
      "blockNumber": "0x7ddcc6f",
      "gasUsed": "0x220f8",
      "effectiveGasPrice": "0x5f5e100",
      "from": "0x08a74a0075a2c3a786a84439812a141c6c8b73f3",
      "to": "0x7a2f19f9a5e70d1acbd1b8a8e8052ad4f5f9b0b8",
      "contractAddress": null,
      "gasUsedForL1": "0x60e1",
      "l1BlockNumber": "0x787198",
      "timeboosted": false
    }
  ],
  "libraries": [],
  "pending": [],
  "returns": {},
  "timestamp": 1741864335,
  "chain": 421614,
  "commit": "59634fe"
}