{
  "transactions": [
    {
      "hash": "0xd9091582c56d3bf0f4baec7b7f53cd40168623198078bd86bd043bd309f63e3d",
      "transactionType": "CALL",
      "contractName": "MockERC20",
      "contractAddress": "0x9d10ad9c4d53a61eaa5ab5cd70050ffc322c6731",
      "function": "mint(address,uint256)",
      "arguments": [
        "0xC5989520cAa3700e3B8119b1A570bE335e768D8b",
        "100000000000000000000000"
      ],
      "transaction": {
        "from": "0x08a74a0075a2c3a786a84439812a141c6c8b73f3",
        "to": "0x9d10ad9c4d53a61eaa5ab5cd70050ffc322c6731",
        "gas": "0x28901",
        "value": "0x0",
        "input": "0x40c10f19000000000000000000000000c5989520caa3700e3b8119b1a570be335e768d8b00000000000000000000000000000000000000000000152d02c7e14af6800000",
        "nonce": "0x6000",
        "chainId": "0x66eee"
      },
      "additionalContracts": [],
      "isFixedGasLimit": false
    },
    {
      "hash": "0x330c3b0be6e3f6b35a4370583c1c3720b92a38f059f2b6c1d283f342da0acfe1",
      "transactionType": "CALL",
      "contractName": "MockERC20",
      "contractAddress": "0x9d10ad9c4d53a61eaa5ab5cd70050ffc322c6731",
      "function": "mint(address,uint256)",
      "arguments": [
        "0x08a74A0075a2C3A786A84439812a141C6C8b73f3",
        "100000000000000000000000"
      ],
      "transaction": {
        "from": "0x08a74a0075a2c3a786a84439812a141c6c8b73f3",
        "to": "0x9d10ad9c4d53a61eaa5ab5cd70050ffc322c6731",
        "gas": "0x288f1",
        "value": "0x0",
        "input": "0x40c10f1900000000000000000000000008a74a0075a2c3a786a84439812a141c6c8b73f300000000000000000000000000000000000000000000152d02c7e14af6800000",
        "nonce": "0x6001",
        "chainId": "0x66eee"
      },
      "additionalContracts": [],
      "isFixedGasLimit": false
    }
  ],
  "receipts": [
    {
      "status": "0x1",
      "cumulativeGasUsed": "0x1be11",
      "logs": [
        {
          "address": "0x9d10ad9c4d53a61eaa5ab5cd70050ffc322c6731",
          "topics": [
            "0xddf252ad1be2c89b69c2b068fc378daa952ba7f163c4a11628f55a4df523b3ef",
            "0x0000000000000000000000000000000000000000000000000000000000000000",
            "0x000000000000000000000000c5989520caa3700e3b8119b1a570be335e768d8b"
          ],
          "data": "0x00000000000000000000000000000000000000000000152d02c7e14af6800000",
          "blockHash": "0x9320611437e6c2a100ca1f51c6c6244734c76147e4f3270069cdfb347f9b9980",
          "blockNumber": "0x7d56889",
          "transactionHash": "0xd9091582c56d3bf0f4baec7b7f53cd40168623198078bd86bd043bd309f63e3d",
          "transactionIndex": "0x1",
          "logIndex": "0x0",
          "removed": false
        }
      ],
      "logsBloom": "0x00000000000000000000000000000000000000000000000000000000000000000000000000000000000000000080000000000000000000000000000000000000000000000000000000000008000000000000000000000000000000000000000002000000020000000000000000000800000000000000000000000010000000000000000000000000000400000000000000000000010000000000000000000000000000400000000000000000000000000000000000000000000000000000000000000002000000000000000000000000000000000000000000000000000020000000000000000000000000000800000000000000000000000000000000000000",
      "type": "0x2",
      "transactionHash": "0xd9091582c56d3bf0f4baec7b7f53cd40168623198078bd86bd043bd309f63e3d",
      "transactionIndex": "0x1",
      "blockHash": "0x9320611437e6c2a100ca1f51c6c6244734c76147e4f3270069cdfb347f9b9980",
      "blockNumber": "0x7d56889",
      "gasUsed": "0x1be11",
      "effectiveGasPrice": "0x5f5e100",
      "from": "0x08a74a0075a2c3a786a84439812a141c6c8b73f3",
      "to": "0x9d10ad9c4d53a61eaa5ab5cd70050ffc322c6731",
      "contractAddress": null,
      "gasUsedForL1": "0xb2ba",
      "l1BlockNumber": "0x784344",
      "timeboosted": false
    },
    {
      "status": "0x1",
      "cumulativeGasUsed": "0x17b39",
      "logs": [
        {
          "address": "0x9d10ad9c4d53a61eaa5ab5cd70050ffc322c6731",
          "topics": [
            "0xddf252ad1be2c89b69c2b068fc378daa952ba7f163c4a11628f55a4df523b3ef",
            "0x0000000000000000000000000000000000000000000000000000000000000000",
            "0x00000000000000000000000008a74a0075a2c3a786a84439812a141c6c8b73f3"
          ],
          "data": "0x00000000000000000000000000000000000000000000152d02c7e14af6800000",
          "blockHash": "0x185f14179d968ad900a27333e23b41fa47e218450b714787723fcf244a251eae",
          "blockNumber": "0x7d56895",
          "transactionHash": "0x330c3b0be6e3f6b35a4370583c1c3720b92a38f059f2b6c1d283f342da0acfe1",
          "transactionIndex": "0x1",
          "logIndex": "0x0",
          "removed": false
        }
      ],
      "logsBloom": "0x00000000000000000000000000000000000000000000000000000000000000000000000000000000000000000000000000000000000000000000200000000000000000000000000000000008000000000000000000000000020000000000000002000000020000000000000000000800000000000000000000000010000000000000000000000000000400000000000000000000010000400000000000000000000000000000000000000000000000000000000000000000000000000000000000000002000000000000000000000000000000000000000000000000000020000000000000000000000000000000000000000000000000000000000000000000",
      "type": "0x2",
      "transactionHash": "0x330c3b0be6e3f6b35a4370583c1c3720b92a38f059f2b6c1d283f342da0acfe1",
      "transactionIndex": "0x1",
      "blockHash": "0x185f14179d968ad900a27333e23b41fa47e218450b714787723fcf244a251eae",
      "blockNumber": "0x7d56895",
      "gasUsed": "0x17b39",
      "effectiveGasPrice": "0x5f5e100",
      "from": "0x08a74a0075a2c3a786a84439812a141c6c8b73f3",
      "to": "0x9d10ad9c4d53a61eaa5ab5cd70050ffc322c6731",
      "contractAddress": null,
      "gasUsedForL1": "0xb2ba",
      "l1BlockNumber": "0x784344",
      "timeboosted": false
    }
  ],
  "libraries": [],
  "pending": [],
  "returns": {},
  "timestamp": 1741712562,
  "chain": 421614,
  "commit": "59634fe"
}