{
  "transactions": [
    {
      "hash": "0x1200291efeb4a14c484e407f29f8e78a227b45b4ae22651a88ca089edeed1a6e",
      "transactionType": "CALL",
      "contractName": null,
      "contractAddress": "0xb4e413fa5b465d56c60161b60288e343f1819df1",
      "function": "settle(int256)",
      "arguments": [
        "0"
      ],
      "transaction": {
        "from": "0x08a74a0075a2c3a786a84439812a141c6c8b73f3",
        "to": "0xb4e413fa5b465d56c60161b60288e343f1819df1",
        "gas": "0x3e74b",
        "value": "0x0",
        "input": "0x5d0f39590000000000000000000000000000000000000000000000000000000000000000",
        "nonce": "0x604c",
        "chainId": "0x66eee"
      },
      "additionalContracts": [],
      "isFixedGasLimit": false
    }
  ],
  "receipts": [
    {
      "status": "0x1",
      "cumulativeGasUsed": "0x298c5",
      "logs": [
        {
          "address": "0xd55ea6b75d7d23710da20ed28f453fd0d263b86e",
          "topics": [
            "0xddf252ad1be2c89b69c2b068fc378daa952ba7f163c4a11628f55a4df523b3ef",
            "0x000000000000000000000000b4e413fa5b465d56c60161b60288e343f1819df1",
            "0x0000000000000000000000000000000000000000000000000000000000000000"
          ],
          "data": "0x00000000000000000000000000000000000000000000002086ac351052600018",
          "blockHash": "0x8945868c5729b8caf3434845ca67f707d61c29910f6b9fea9025cf168b420c26",
          "blockNumber": "0x7de45b4",
          "transactionHash": "0x1200291efeb4a14c484e407f29f8e78a227b45b4ae22651a88ca089edeed1a6e",
          "transactionIndex": "0x1",
          "logIndex": "0x0",
          "removed": false
        },
        {
          "address": "0x9d10ad9c4d53a61eaa5ab5cd70050ffc322c6731",
          "topics": [
            "0xddf252ad1be2c89b69c2b068fc378daa952ba7f163c4a11628f55a4df523b3ef",
            "0x000000000000000000000000d55ea6b75d7d23710da20ed28f453fd0d263b86e",
            "0x000000000000000000000000b4e413fa5b465d56c60161b60288e343f1819df1"
          ],
          "data": "0x0000000000000000000000000000000000000000000000878678326eac900060",
          "blockHash": "0x8945868c5729b8caf3434845ca67f707d61c29910f6b9fea9025cf168b420c26",
          "blockNumber": "0x7de45b4",
          "transactionHash": "0x1200291efeb4a14c484e407f29f8e78a227b45b4ae22651a88ca089edeed1a6e",
          "transactionIndex": "0x1",
          "logIndex": "0x1",
          "removed": false
        },
        {
          "address": "0xd55ea6b75d7d23710da20ed28f453fd0d263b86e",
          "topics": [
            "0xfbde797d201c681b91056529119e0b02407c7bb96a4a2c75c01fc9667232c8db",
            "0x000000000000000000000000b4e413fa5b465d56c60161b60288e343f1819df1",
            "0x000000000000000000000000b4e413fa5b465d56c60161b60288e343f1819df1",
            "0x000000000000000000000000b4e413fa5b465d56c60161b60288e343f1819df1"
          ],
          "data": "0x0000000000000000000000000000000000000000000000878678326eac90006000000000000000000000000000000000000000000000002086ac351052600018",
          "blockHash": "0x8945868c5729b8caf3434845ca67f707d61c29910f6b9fea9025cf168b420c26",
          "blockNumber": "0x7de45b4",
          "transactionHash": "0x1200291efeb4a14c484e407f29f8e78a227b45b4ae22651a88ca089edeed1a6e",
          "transactionIndex": "0x1",
          "logIndex": "0x2",
          "removed": false
        },
        {
          "address": "0xb4e413fa5b465d56c60161b60288e343f1819df1",
          "topics": [
            "0x09a0ee5369b675720752cb405a0bf575e2617c54246b2865a673397a3bd2be8e",
            "0x00000000000000000000000008a74a0075a2c3a786a84439812a141c6c8b73f3"
          ],
          "data": "0x00000000000000000000000000000000000000000000000000000000000000000000000000000000000000000000000000000000000000000000000000000000",
          "blockHash": "0x8945868c5729b8caf3434845ca67f707d61c29910f6b9fea9025cf168b420c26",
          "blockNumber": "0x7de45b4",
          "transactionHash": "0x1200291efeb4a14c484e407f29f8e78a227b45b4ae22651a88ca089edeed1a6e",
          "transactionIndex": "0x1",
          "logIndex": "0x3",
          "removed": false
        },
        {
          "address": "0xb4e413fa5b465d56c60161b60288e343f1819df1",
          "topics": [
            "0x27bd0cff633fd950c11ae24bd614aa2d87d938a50d6b65573c3743be7a831f57",
            "0x0000000000000000000000000000000000000000000000000000000000000004"
          ],
          "data": "0x0000000000000000000000000000000000000000000000000000000067d2de3c",
          "blockHash": "0x8945868c5729b8caf3434845ca67f707d61c29910f6b9fea9025cf168b420c26",
          "blockNumber": "0x7de45b4",
          "transactionHash": "0x1200291efeb4a14c484e407f29f8e78a227b45b4ae22651a88ca089edeed1a6e",
          "transactionIndex": "0x1",
          "logIndex": "0x4",
          "removed": false
        }
      ],
      "logsBloom": "0x0000000000000040000000200000000000000000000010000000000000000000000000000000000000000000000000000010000000000000000020000000000000000000100000000000000800000000100000002000000002000000000000000a000000020000000001000000000800000000000000000000000010000000000800000000000080000400000000000000000000010000400000000000000008002000000000000000000000001000020000000000000000002000000000000000000002000000000000000000000000000000008800000000000000000020000000000000000000000010200080000000000000000000000000000000104000",
      "type": "0x2",
      "transactionHash": "0x1200291efeb4a14c484e407f29f8e78a227b45b4ae22651a88ca089edeed1a6e",
      "transactionIndex": "0x1",
      "blockHash": "0x8945868c5729b8caf3434845ca67f707d61c29910f6b9fea9025cf168b420c26",
      "blockNumber": "0x7de45b4",
      "gasUsed": "0x298c5",
      "effectiveGasPrice": "0x613a230",
      "from": "0x08a74a0075a2c3a786a84439812a141c6c8b73f3",
      "to": "0xb4e413fa5b465d56c60161b60288e343f1819df1",
      "contractAddress": null,
      "gasUsedForL1": "0x53e1",
      "l1BlockNumber": "0x787422",
      "timeboosted": false
    }
  ],
  "libraries": [],
  "pending": [],
  "returns": {},
  "timestamp": 1741872699,
  "chain": 421614,
  "commit": "59634fe"
}