{
  "transactions": [
    {
      "hash": "0x93134960a63d56f91bc2b564470675c1cc3b3940ff5f5f2ace5e1c917ea13ec4",
      "transactionType": "CALL",
      "contractName": null,
      "contractAddress": "0xb4e413fa5b465d56c60161b60288e343f1819df1",
      "function": "startNewEpoch()",
      "arguments": [],
      "transaction": {
        "from": "0x08a74a0075a2c3a786a84439812a141c6c8b73f3",
        "to": "0xb4e413fa5b465d56c60161b60288e343f1819df1",
        "gas": "0x55f86",
        "value": "0x0",
        "input": "0x3aab0a62",
        "nonce": "0x6046",
        "chainId": "0x66eee"
      },
      "additionalContracts": [],
      "isFixedGasLimit": false
    },
    {
      "hash": "0xf5ec957d5e6b844f74f6b1cef9506d18e909485eccec01beaea90628ec50171a",
      "transactionType": "CALL",
      "contractName": "MockERC20",
      "contractAddress": "0x9d10ad9c4d53a61eaa5ab5cd70050ffc322c6731",
      "function": "mint(address,uint256)",
      "arguments": [
        "0xD55EA6B75D7D23710da20eD28F453fD0D263B86e",
        "100000000000000000000"
      ],
      "transaction": {
        "from": "0x08a74a0075a2c3a786a84439812a141c6c8b73f3",
        "to": "0x9d10ad9c4d53a61eaa5ab5cd70050ffc322c6731",
        "gas": "0x1978e",
        "value": "0x0",
        "input": "0x40c10f19000000000000000000000000d55ea6b75d7d23710da20ed28f453fd0d263b86e0000000000000000000000000000000000000000000000056bc75e2d63100000",
        "nonce": "0x6047",
        "chainId": "0x66eee"
      },
      "additionalContracts": [],
      "isFixedGasLimit": false
    }
  ],
  "receipts": [
    {
      "status": "0x1",
      "cumulativeGasUsed": "0xa7a49",
      "logs": [
        {
          "address": "0x9d10ad9c4d53a61eaa5ab5cd70050ffc322c6731",
          "topics": [
            "0x8c5be1e5ebec7d5bd14f71427d1e84f3dd0314c0f7b2291e5b200ac8c7c3b925",
            "0x000000000000000000000000b4e413fa5b465d56c60161b60288e343f1819df1",
            "0x000000000000000000000000d55ea6b75d7d23710da20ed28f453fd0d263b86e"
          ],
          "data": "0x000000000000000000000000000000000000000000000077432217e683600062",
          "blockHash": "0x9470c2f91f64036141518bec283765f2d33ffdcc50f6d3b2560da2ec015c95ae",
          "blockNumber": "0x7de27e6",
          "transactionHash": "0x93134960a63d56f91bc2b564470675c1cc3b3940ff5f5f2ace5e1c917ea13ec4",
          "transactionIndex": "0x4",
          "logIndex": "0x7",
          "removed": false
        },
        {
          "address": "0x9d10ad9c4d53a61eaa5ab5cd70050ffc322c6731",
          "topics": [
            "0xddf252ad1be2c89b69c2b068fc378daa952ba7f163c4a11628f55a4df523b3ef",
            "0x000000000000000000000000b4e413fa5b465d56c60161b60288e343f1819df1",
            "0x000000000000000000000000d55ea6b75d7d23710da20ed28f453fd0d263b86e"
          ],
          "data": "0x000000000000000000000000000000000000000000000077432217e683600062",
          "blockHash": "0x9470c2f91f64036141518bec283765f2d33ffdcc50f6d3b2560da2ec015c95ae",
          "blockNumber": "0x7de27e6",
          "transactionHash": "0x93134960a63d56f91bc2b564470675c1cc3b3940ff5f5f2ace5e1c917ea13ec4",
          "transactionIndex": "0x4",
          "logIndex": "0x8",
          "removed": false
        },
        {
          "address": "0xd55ea6b75d7d23710da20ed28f453fd0d263b86e",
          "topics": [
            "0xddf252ad1be2c89b69c2b068fc378daa952ba7f163c4a11628f55a4df523b3ef",
            "0x0000000000000000000000000000000000000000000000000000000000000000",
            "0x000000000000000000000000b4e413fa5b465d56c60161b60288e343f1819df1"
          ],
          "data": "0x000000000000000000000000000000000000000000000027c10b5d4cd6755576",
          "blockHash": "0x9470c2f91f64036141518bec283765f2d33ffdcc50f6d3b2560da2ec015c95ae",
          "blockNumber": "0x7de27e6",
          "transactionHash": "0x93134960a63d56f91bc2b564470675c1cc3b3940ff5f5f2ace5e1c917ea13ec4",
          "transactionIndex": "0x4",
          "logIndex": "0x9",
          "removed": false
        },
        {
          "address": "0xd55ea6b75d7d23710da20ed28f453fd0d263b86e",
          "topics": [
            "0xdcbc1c05240f31ff3ad067ef1ee35ce4997762752e3a095284754544f4c709d7",
            "0x000000000000000000000000b4e413fa5b465d56c60161b60288e343f1819df1",
            "0x000000000000000000000000b4e413fa5b465d56c60161b60288e343f1819df1"
          ],
          "data": "0x000000000000000000000000000000000000000000000077432217e683600062000000000000000000000000000000000000000000000027c10b5d4cd6755576",
          "blockHash": "0x9470c2f91f64036141518bec283765f2d33ffdcc50f6d3b2560da2ec015c95ae",
          "blockNumber": "0x7de27e6",
          "transactionHash": "0x93134960a63d56f91bc2b564470675c1cc3b3940ff5f5f2ace5e1c917ea13ec4",
          "transactionIndex": "0x4",
          "logIndex": "0xa",
          "removed": false
        },
        {
          "address": "0xb4e413fa5b465d56c60161b60288e343f1819df1",
          "topics": [
            "0x41787f1277821474072e18df95f0bd9ed9f117003aa97732ebbd737225b32b02",
            "0x0000000000000000000000000000000000000000000000000000000000000003"
          ],
          "data": "0x0000000000000000000000000000000000000000000000000000000067d2d646",
          "blockHash": "0x9470c2f91f64036141518bec283765f2d33ffdcc50f6d3b2560da2ec015c95ae",
          "blockNumber": "0x7de27e6",
          "transactionHash": "0x93134960a63d56f91bc2b564470675c1cc3b3940ff5f5f2ace5e1c917ea13ec4",
          "transactionIndex": "0x4",
          "logIndex": "0xb",
          "removed": false
        }
      ],
      "logsBloom": "0x00000000000000000000400000000000000000000000100000000000000000000000000000000000000000000000000000100000020000000000000000200000000000401000000000000008000000000000000020000000000000000000000002000000020000000001000010000800000000000004000000000010000000000800000000000080000400000000000000000000010000000000000000000008020000000000000000000080001000000000000000800000000000000000400000000002000000000000000000000000000000000808000000000000000020000010000000000000000010000080000000000000000000000000000000000000",
      "type": "0x2",
      "transactionHash": "0x93134960a63d56f91bc2b564470675c1cc3b3940ff5f5f2ace5e1c917ea13ec4",
      "transactionIndex": "0x4",
      "blockHash": "0x9470c2f91f64036141518bec283765f2d33ffdcc50f6d3b2560da2ec015c95ae",
      "blockNumber": "0x7de27e6",
      "gasUsed": "0x38ed3",
      "effectiveGasPrice": "0x5f5e100",
      "from": "0x08a74a0075a2c3a786a84439812a141c6c8b73f3",
      "to": "0xb4e413fa5b465d56c60161b60288e343f1819df1",
      "contractAddress": null,
      "gasUsedForL1": "0x5983",
      "l1BlockNumber": "0x787384",
      "timeboosted": false
    },
    {
      "status": "0x1",
      "cumulativeGasUsed": "0x1101b",
      "logs": [
        {
          "address": "0x9d10ad9c4d53a61eaa5ab5cd70050ffc322c6731",
          "topics": [
            "0xddf252ad1be2c89b69c2b068fc378daa952ba7f163c4a11628f55a4df523b3ef",
            "0x0000000000000000000000000000000000000000000000000000000000000000",
            "0x000000000000000000000000d55ea6b75d7d23710da20ed28f453fd0d263b86e"
          ],
          "data": "0x0000000000000000000000000000000000000000000000056bc75e2d63100000",
          "blockHash": "0x56bc75d3d2689960e68e3a6e104b2e1ed3983b570334359056a5cd4a619a8972",
          "blockNumber": "0x7de27ec",
          "transactionHash": "0xf5ec957d5e6b844f74f6b1cef9506d18e909485eccec01beaea90628ec50171a",
          "transactionIndex": "0x1",
          "logIndex": "0x0",
          "removed": false
        }
      ],
      "logsBloom": "0x00000000000000000000000000000000000000000000100000000000000000000000000000000000000000000000000000000000000000000000000000000000000000000000000000000008000000000000000000000000000000000000000002000000020000000000000000000800000000000000000000000010000000000000000000000000000400000000000000000000010000000000000000000000000000000000000000000000001000000000000000000000000000000000000000000002000000000000000000000000000000000000000000000000000020000000000000000000000000000080000000000000000000000000000000000000",
      "type": "0x2",
      "transactionHash": "0xf5ec957d5e6b844f74f6b1cef9506d18e909485eccec01beaea90628ec50171a",
      "transactionIndex": "0x1",
      "blockHash": "0x56bc75d3d2689960e68e3a6e104b2e1ed3983b570334359056a5cd4a619a8972",
      "blockNumber": "0x7de27ec",
      "gasUsed": "0x1101b",
      "effectiveGasPrice": "0x5f5e100",
      "from": "0x08a74a0075a2c3a786a84439812a141c6c8b73f3",
      "to": "0x9d10ad9c4d53a61eaa5ab5cd70050ffc322c6731",
      "contractAddress": null,
      "gasUsedForL1": "0x8a68",
      "l1BlockNumber": "0x787384",
      "timeboosted": false
    }
  ],
  "libraries": [],
  "pending": [],
  "returns": {},
  "timestamp": 1741870662,
  "chain": 421614,
  "commit": "59634fe"
}