{
  "transactions": [
    {
      "hash": "0xedb59c5d11e1cf9695441d62d25e0bb003f74b7e2184d338199038f14fa84590",
      "transactionType": "CALL",
      "contractName": null,
      "contractAddress": "0xb4e413fa5b465d56c60161b60288e343f1819df1",
      "function": "startNewEpoch()",
      "arguments": [],
      "transaction": {
        "from": "0x08a74a0075a2c3a786a84439812a141c6c8b73f3",
        "to": "0xb4e413fa5b465d56c60161b60288e343f1819df1",
        "gas": "0x54db7",
        "value": "0x0",
        "input": "0x3aab0a62",
        "nonce": "0x604a",
        "chainId": "0x66eee"
      },
      "additionalContracts": [],
      "isFixedGasLimit": false
    },
    {
      "hash": "0x08b7d7e9c9f90ff409571e81dd7d5aa642758039f5ceb582d59a2dbade1edea5",
      "transactionType": "CALL",
      "contractName": "MockERC20",
      "contractAddress": "0x9d10ad9c4d53a61eaa5ab5cd70050ffc322c6731",
      "function": "mint(address,uint256)",
      "arguments": [
        "0xD55EA6B75D7D23710da20eD28F453fD0D263B86e",
        "100000000000000000000"
      ],
      "transaction": {
        "from": "0x08a74a0075a2c3a786a84439812a141c6c8b73f3",
        "to": "0x9d10ad9c4d53a61eaa5ab5cd70050ffc322c6731",
        "gas": "0x1804c",
        "value": "0x0",
        "input": "0x40c10f19000000000000000000000000d55ea6b75d7d23710da20ed28f453fd0d263b86e0000000000000000000000000000000000000000000000056bc75e2d63100000",
        "nonce": "0x604b",
        "chainId": "0x66eee"
      },
      "additionalContracts": [],
      "isFixedGasLimit": false
    }
  ],
  "receipts": [
    {
      "status": "0x1",
      "cumulativeGasUsed": "0x4bcc6",
      "logs": [
        {
          "address": "0x9d10ad9c4d53a61eaa5ab5cd70050ffc322c6731",
          "topics": [
            "0x8c5be1e5ebec7d5bd14f71427d1e84f3dd0314c0f7b2291e5b200ac8c7c3b925",
            "0x000000000000000000000000b4e413fa5b465d56c60161b60288e343f1819df1",
            "0x000000000000000000000000d55ea6b75d7d23710da20ed28f453fd0d263b86e"
          ],
          "data": "0x0000000000000000000000000000000000000000000000821ab0d44149800061",
          "blockHash": "0x0789e1ff0e61a70654368f7aada010d67fdb5e60377e44d05b809765fa1321d1",
          "blockNumber": "0x7de3bcb",
          "transactionHash": "0xedb59c5d11e1cf9695441d62d25e0bb003f74b7e2184d338199038f14fa84590",
          "transactionIndex": "0x2",
          "logIndex": "0x1",
          "removed": false
        },
        {
          "address": "0x9d10ad9c4d53a61eaa5ab5cd70050ffc322c6731",
          "topics": [
            "0xddf252ad1be2c89b69c2b068fc378daa952ba7f163c4a11628f55a4df523b3ef",
            "0x000000000000000000000000b4e413fa5b465d56c60161b60288e343f1819df1",
            "0x000000000000000000000000d55ea6b75d7d23710da20ed28f453fd0d263b86e"
          ],
          "data": "0x0000000000000000000000000000000000000000000000821ab0d44149800061",
          "blockHash": "0x0789e1ff0e61a70654368f7aada010d67fdb5e60377e44d05b809765fa1321d1",
          "blockNumber": "0x7de3bcb",
          "transactionHash": "0xedb59c5d11e1cf9695441d62d25e0bb003f74b7e2184d338199038f14fa84590",
          "transactionIndex": "0x2",
          "logIndex": "0x2",
          "removed": false
        },
        {
          "address": "0xd55ea6b75d7d23710da20ed28f453fd0d263b86e",
          "topics": [
            "0xddf252ad1be2c89b69c2b068fc378daa952ba7f163c4a11628f55a4df523b3ef",
            "0x0000000000000000000000000000000000000000000000000000000000000000",
            "0x000000000000000000000000b4e413fa5b465d56c60161b60288e343f1819df1"
          ],
          "data": "0x00000000000000000000000000000000000000000000002086ac351052600018",
          "blockHash": "0x0789e1ff0e61a70654368f7aada010d67fdb5e60377e44d05b809765fa1321d1",
          "blockNumber": "0x7de3bcb",
          "transactionHash": "0xedb59c5d11e1cf9695441d62d25e0bb003f74b7e2184d338199038f14fa84590",
          "transactionIndex": "0x2",
          "logIndex": "0x3",
          "removed": false
        },
        {
          "address": "0xd55ea6b75d7d23710da20ed28f453fd0d263b86e",
          "topics": [
            "0xdcbc1c05240f31ff3ad067ef1ee35ce4997762752e3a095284754544f4c709d7",
            "0x000000000000000000000000b4e413fa5b465d56c60161b60288e343f1819df1",
            "0x000000000000000000000000b4e413fa5b465d56c60161b60288e343f1819df1"
          ],
          "data": "0x0000000000000000000000000000000000000000000000821ab0d4414980006100000000000000000000000000000000000000000000002086ac351052600018",
          "blockHash": "0x0789e1ff0e61a70654368f7aada010d67fdb5e60377e44d05b809765fa1321d1",
          "blockNumber": "0x7de3bcb",
          "transactionHash": "0xedb59c5d11e1cf9695441d62d25e0bb003f74b7e2184d338199038f14fa84590",
          "transactionIndex": "0x2",
          "logIndex": "0x4",
          "removed": false
        },
        {
          "address": "0xb4e413fa5b465d56c60161b60288e343f1819df1",
          "topics": [
            "0x41787f1277821474072e18df95f0bd9ed9f117003aa97732ebbd737225b32b02",
            "0x0000000000000000000000000000000000000000000000000000000000000004"
          ],
          "data": "0x0000000000000000000000000000000000000000000000000000000067d2dba7",
          "blockHash": "0x0789e1ff0e61a70654368f7aada010d67fdb5e60377e44d05b809765fa1321d1",
          "blockNumber": "0x7de3bcb",
          "transactionHash": "0xedb59c5d11e1cf9695441d62d25e0bb003f74b7e2184d338199038f14fa84590",
          "transactionIndex": "0x2",
          "logIndex": "0x5",
          "removed": false
        }
      ],
      "logsBloom": "0x0000000000000000000040000000000000000000000010000000000000000000000000000000000000000000000000000010000000000000000000000020000000000040100000000000000800000000000000002000000000000000000000000a000000020000000001000010000800000000000004000000000010000000000800000000000080000400000000000000000000010000000000000000000008020000000000000000000080001000000000000000000000002000000000000000000002000000000000000000000000000000008808000000000000000020000010000000000000000010000080000000000000000000000000000000000000",
      "type": "0x2",
      "transactionHash": "0xedb59c5d11e1cf9695441d62d25e0bb003f74b7e2184d338199038f14fa84590",
      "transactionIndex": "0x2",
      "blockHash": "0x0789e1ff0e61a70654368f7aada010d67fdb5e60377e44d05b809765fa1321d1",
      "blockNumber": "0x7de3bcb",
      "gasUsed": "0x385c7",
      "effectiveGasPrice": "0x5f5e100",
      "from": "0x08a74a0075a2c3a786a84439812a141c6c8b73f3",
      "to": "0xb4e413fa5b465d56c60161b60288e343f1819df1",
      "contractAddress": null,
      "gasUsedForL1": "0x5077",
      "l1BlockNumber": "0x7873f0",
      "timeboosted": false
    },
    {
      "status": "0x1",
      "cumulativeGasUsed": "0x1021e",
      "logs": [
        {
          "address": "0x9d10ad9c4d53a61eaa5ab5cd70050ffc322c6731",
          "topics": [
            "0xddf252ad1be2c89b69c2b068fc378daa952ba7f163c4a11628f55a4df523b3ef",
            "0x0000000000000000000000000000000000000000000000000000000000000000",
            "0x000000000000000000000000d55ea6b75d7d23710da20ed28f453fd0d263b86e"
          ],
          "data": "0x0000000000000000000000000000000000000000000000056bc75e2d63100000",
          "blockHash": "0x88fe4ba10999411e73602ff305d9d0ee655b513d1ca03838b0f4b39932c05c42",
          "blockNumber": "0x7de3bd0",
          "transactionHash": "0x08b7d7e9c9f90ff409571e81dd7d5aa642758039f5ceb582d59a2dbade1edea5",
          "transactionIndex": "0x1",
          "logIndex": "0x0",
          "removed": false
        }
      ],
      "logsBloom": "0x00000000000000000000000000000000000000000000100000000000000000000000000000000000000000000000000000000000000000000000000000000000000000000000000000000008000000000000000000000000000000000000000002000000020000000000000000000800000000000000000000000010000000000000000000000000000400000000000000000000010000000000000000000000000000000000000000000000001000000000000000000000000000000000000000000002000000000000000000000000000000000000000000000000000020000000000000000000000000000080000000000000000000000000000000000000",
      "type": "0x2",
      "transactionHash": "0x08b7d7e9c9f90ff409571e81dd7d5aa642758039f5ceb582d59a2dbade1edea5",
      "transactionIndex": "0x1",
      "blockHash": "0x88fe4ba10999411e73602ff305d9d0ee655b513d1ca03838b0f4b39932c05c42",
      "blockNumber": "0x7de3bd0",
      "gasUsed": "0x1021e",
      "effectiveGasPrice": "0x5f5e100",
      "from": "0x08a74a0075a2c3a786a84439812a141c6c8b73f3",
      "to": "0x9d10ad9c4d53a61eaa5ab5cd70050ffc322c6731",
      "contractAddress": null,
      "gasUsedForL1": "0x7c6b",
      "l1BlockNumber": "0x7873f0",
      "timeboosted": false
    }
  ],
  "libraries": [],
  "pending": [],
  "returns": {},
  "timestamp": 1741872039,
  "chain": 421614,
  "commit": "59634fe"
}