{
	"transactions": [
		{
			"hash": "0x00fd3fb66b40509d49ace32df70b797966965562153fb5b7f61d283df1ca2bf2",
			"transactionType": "CALL",
			"contractName": "MockERC20",
			"contractAddress": "0x9d10ad9c4d53a61eaa5ab5cd70050ffc322c6731",
			"function": "approve(address,uint256)",
			"arguments": ["0xCD0AF564E47AB822A548C37f1C35e1Fdce8f66C0", "100000000000000000000000"],
			"transaction": {
				"from": "0x08a74a0075a2c3a786a84439812a141c6c8b73f3",
				"to": "0x9d10ad9c4d53a61eaa5ab5cd70050ffc322c6731",
				"gas": "0x1810d",
				"value": "0x0",
				"input": "0x095ea7b3000000000000000000000000cd0af564e47ab822a548c37f1c35e1fdce8f66c000000000000000000000000000000000000000000000152d02c7e14af6800000",
				"nonce": "0x6008",
				"chainId": "0x66eee"
			},
			"additionalContracts": [],
			"isFixedGasLimit": false
		},
		{
			"hash": "0xeebcfa5e0bde63e220b539d07a818095f20d9ea76cbb69fddb36368b93713fb8",
			"transactionType": "CALL",
			"contractName": "RfyVault",
			"contractAddress": "0xcd0af564e47ab822a548c37f1c35e1fdce8f66c0",
			"function": "deposit(uint256,address)",
			"arguments": ["1000000000000000000000", "0x08a74A0075a2C3A786A84439812a141C6C8b73f3"],
			"transaction": {
				"from": "0x08a74a0075a2c3a786a84439812a141c6c8b73f3",
				"to": "0xcd0af564e47ab822a548c37f1c35e1fdce8f66c0",
				"gas": "0x32f7c",
				"value": "0x0",
				"input": "0x6e553f6500000000000000000000000000000000000000000000003635c9adc5dea0000000000000000000000000000008a74a0075a2c3a786a84439812a141c6c8b73f3",
				"nonce": "0x6009",
				"chainId": "0x66eee"
			},
			"additionalContracts": [],
			"isFixedGasLimit": false
		}
	],
	"receipts": [
		{
			"status": "0x1",
			"cumulativeGasUsed": "0x10cc9",
			"logs": [
				{
					"address": "0x9d10ad9c4d53a61eaa5ab5cd70050ffc322c6731",
					"topics": [
						"0x8c5be1e5ebec7d5bd14f71427d1e84f3dd0314c0f7b2291e5b200ac8c7c3b925",
						"0x00000000000000000000000008a74a0075a2c3a786a84439812a141c6c8b73f3",
						"0x000000000000000000000000cd0af564e47ab822a548c37f1c35e1fdce8f66c0"
					],
					"data": "0x00000000000000000000000000000000000000000000152d02c7e14af6800000",
					"blockHash": "0x86b1f981322c70166391ee060d5a12da62822f80d9d99af045385895753bcd21",
					"blockNumber": "0x7d57afa",
					"transactionHash": "0x00fd3fb66b40509d49ace32df70b797966965562153fb5b7f61d283df1ca2bf2",
					"transactionIndex": "0x1",
					"logIndex": "0x0",
					"removed": false
				}
			],
			"logsBloom": "0x00000000000000000000800000000000000000000000000000000000000000000000000000000000000000000000000000000000000000000000200000200000000000000000000000010000000000000000000000000000020000000000000002000000000000000000000000000200000000000000000000000000000000000000000000000000000400000000000000000000010000400000000000000000020000000000000000000000000000000000000000000000000000000000000000000000000000000000000000000000000000000000000000000000000000000010000000000000000000000000000000000000000000000000000000000000",
			"type": "0x2",
			"transactionHash": "0x00fd3fb66b40509d49ace32df70b797966965562153fb5b7f61d283df1ca2bf2",
			"transactionIndex": "0x1",
			"blockHash": "0x86b1f981322c70166391ee060d5a12da62822f80d9d99af045385895753bcd21",
			"blockNumber": "0x7d57afa",
			"gasUsed": "0x10cc9",
			"effectiveGasPrice": "0x5f5e100",
			"from": "0x08a74a0075a2c3a786a84439812a141c6c8b73f3",
			"to": "0x9d10ad9c4d53a61eaa5ab5cd70050ffc322c6731",
			"contractAddress": null,
			"gasUsedForL1": "0x5793",
			"l1BlockNumber": "0x78439f",
			"timeboosted": false
		},
		{
			"status": "0x1",
			"cumulativeGasUsed": "0x7b742",
			"logs": [
				{
					"address": "0x9d10ad9c4d53a61eaa5ab5cd70050ffc322c6731",
					"topics": [
						"0xddf252ad1be2c89b69c2b068fc378daa952ba7f163c4a11628f55a4df523b3ef",
						"0x00000000000000000000000008a74a0075a2c3a786a84439812a141c6c8b73f3",
						"0x000000000000000000000000cd0af564e47ab822a548c37f1c35e1fdce8f66c0"
					],
					"data": "0x00000000000000000000000000000000000000000000003635c9adc5dea00000",
					"blockHash": "0x583f60bbab93846e231e89332cd34036e62a2b52caf6b326b5000f93026eb861",
					"blockNumber": "0x7d57b17",
					"transactionHash": "0xeebcfa5e0bde63e220b539d07a818095f20d9ea76cbb69fddb36368b93713fb8",
					"transactionIndex": "0x2",
					"logIndex": "0x2",
					"removed": false
				},
				{
					"address": "0xcd0af564e47ab822a548c37f1c35e1fdce8f66c0",
					"topics": [
						"0xddf252ad1be2c89b69c2b068fc378daa952ba7f163c4a11628f55a4df523b3ef",
						"0x0000000000000000000000000000000000000000000000000000000000000000",
						"0x00000000000000000000000008a74a0075a2c3a786a84439812a141c6c8b73f3"
					],
					"data": "0x00000000000000000000000000000000000000000000003635c9adc5dea00000",
					"blockHash": "0x583f60bbab93846e231e89332cd34036e62a2b52caf6b326b5000f93026eb861",
					"blockNumber": "0x7d57b17",
					"transactionHash": "0xeebcfa5e0bde63e220b539d07a818095f20d9ea76cbb69fddb36368b93713fb8",
					"transactionIndex": "0x2",
					"logIndex": "0x3",
					"removed": false
				},
				{
					"address": "0xcd0af564e47ab822a548c37f1c35e1fdce8f66c0",
					"topics": [
						"0xdcbc1c05240f31ff3ad067ef1ee35ce4997762752e3a095284754544f4c709d7",
						"0x00000000000000000000000008a74a0075a2c3a786a84439812a141c6c8b73f3",
						"0x00000000000000000000000008a74a0075a2c3a786a84439812a141c6c8b73f3"
					],
					"data": "0x00000000000000000000000000000000000000000000003635c9adc5dea0000000000000000000000000000000000000000000000000003635c9adc5dea00000",
					"blockHash": "0x583f60bbab93846e231e89332cd34036e62a2b52caf6b326b5000f93026eb861",
					"blockNumber": "0x7d57b17",
					"transactionHash": "0xeebcfa5e0bde63e220b539d07a818095f20d9ea76cbb69fddb36368b93713fb8",
					"transactionIndex": "0x2",
					"logIndex": "0x4",
					"removed": false
				}
			],
			"logsBloom": "0x00000000000000000000800000000000000000000000000000000000000000000000000000000000000000000000000000000000000000000000200000000000000000400000000000010008000000000000000000000000020000000000000002000000020000000000000000000a00000000000004000000000010000000000000000000000000000400000000000200000000010000400000000000000000000000000000000000001000000000000000000000000000000000000000000000000002000000000000000000000000200000000008000000000000000020000000000000000000000000000000000000000000000000000000000000000000",
			"type": "0x2",
			"transactionHash": "0xeebcfa5e0bde63e220b539d07a818095f20d9ea76cbb69fddb36368b93713fb8",
			"transactionIndex": "0x2",
			"blockHash": "0x583f60bbab93846e231e89332cd34036e62a2b52caf6b326b5000f93026eb861",
			"blockNumber": "0x7d57b17",
			"gasUsed": "0x2852c",
			"effectiveGasPrice": "0x5f5e100",
			"from": "0x08a74a0075a2c3a786a84439812a141c6c8b73f3",
			"to": "0xcd0af564e47ab822a548c37f1c35e1fdce8f66c0",
			"contractAddress": null,
			"gasUsedForL1": "0x5793",
			"l1BlockNumber": "0x78439f",
			"timeboosted": false
		}
	],
	"libraries": [],
	"pending": [],
	"returns": {},
	"timestamp": 1741713786,
	"chain": 421614,
	"commit": "59634fe"
}
