{
  "transactions": [
    {
      "hash": "0x80a61af66e92987759628f74cfe09831658cefdf51a324ef3ae9191c5b20fae5",
      "transactionType": "CALL",
      "contractName": "MockERC20",
      "contractAddress": "0x2a70413578331a2e0b62ccfd5badd02736b67a96",
      "function": "mint(address,uint256)",
      "arguments": [
        "0x50081620A7e22F2293BD48621Bd60bbFeCD1DE81",
        "100000000000000000000000"
      ],
      "transaction": {
        "from": "0x08a74a0075a2c3a786a84439812a141c6c8b73f3",
        "to": "0x2a70413578331a2e0b62ccfd5badd02736b67a96",
        "gas": "0x2477c",
        "value": "0x0",
        "input": "0x40c10f1900000000000000000000000050081620a7e22f2293bd48621bd60bbfecd1de8100000000000000000000000000000000000000000000152d02c7e14af6800000",
        "nonce": "0x6004",
        "chainId": "0x66eee"
      },
      "additionalContracts": [],
      "isFixedGasLimit": false
    },
    {
      "hash": "0x9c29d324dcdc2b3ef2ceec95f95272d2ca68b2c93909316ca34117aeeb335814",
      "transactionType": "CALL",
      "contractName": "MockERC20",
      "contractAddress": "0x2a70413578331a2e0b62ccfd5badd02736b67a96",
      "function": "mint(address,uint256)",
      "arguments": [
        "0x08a74A0075a2C3A786A84439812a141C6C8b73f3",
        "100000000000000000000000"
      ],
      "transaction": {
        "from": "0x08a74a0075a2c3a786a84439812a141c6c8b73f3",
        "to": "0x2a70413578331a2e0b62ccfd5badd02736b67a96",
        "gas": "0x2476d",
        "value": "0x0",
        "input": "0x40c10f1900000000000000000000000008a74a0075a2c3a786a84439812a141c6c8b73f300000000000000000000000000000000000000000000152d02c7e14af6800000",
        "nonce": "0x6005",
        "chainId": "0x66eee"
      },
      "additionalContracts": [],
      "isFixedGasLimit": false
    }
  ],
  "receipts": [
    {
      "status": "0x1",
      "cumulativeGasUsed": "0x196a8",
      "logs": [
        {
          "address": "0x2a70413578331a2e0b62ccfd5badd02736b67a96",
          "topics": [
            "0xddf252ad1be2c89b69c2b068fc378daa952ba7f163c4a11628f55a4df523b3ef",
            "0x0000000000000000000000000000000000000000000000000000000000000000",
            "0x00000000000000000000000050081620a7e22f2293bd48621bd60bbfecd1de81"
          ],
          "data": "0x00000000000000000000000000000000000000000000152d02c7e14af6800000",
          "blockHash": "0x9cefe7969f288caf201589e2a5cb08ed0059c7a74f279141a97c7abea6d3249c",
          "blockNumber": "0x7d56bd7",
          "transactionHash": "0x80a61af66e92987759628f74cfe09831658cefdf51a324ef3ae9191c5b20fae5",
          "transactionIndex": "0x1",
          "logIndex": "0x0",
          "removed": false
        }
      ],
      "logsBloom": "0x00000000000000000000000000000000000000000000000000000000000000000000000000000000000000000000000000000040000000000000000000000000000000000000000000000008000000000000000000000000000000000000000000000000020000000000000000000800000000000004000000000010000000000000000000000000000000000000000000000000020000000000000000000000000000000000000000000000000000000000000000000000000000000000000000040002000000000000000000000000000000000000000000000000000020004000000000000000000000000000000000000000002000000000000000000000",
      "type": "0x2",
      "transactionHash": "0x80a61af66e92987759628f74cfe09831658cefdf51a324ef3ae9191c5b20fae5",
      "transactionIndex": "0x1",
      "blockHash": "0x9cefe7969f288caf201589e2a5cb08ed0059c7a74f279141a97c7abea6d3249c",
      "blockNumber": "0x7d56bd7",
      "gasUsed": "0x196a8",
      "effectiveGasPrice": "0x5f5e100",
      "from": "0x08a74a0075a2c3a786a84439812a141c6c8b73f3",
      "to": "0x2a70413578331a2e0b62ccfd5badd02736b67a96",
      "contractAddress": null,
      "gasUsedForL1": "0x8b51",
      "l1BlockNumber": "0x784353",
      "timeboosted": false
    },
    {
      "status": "0x1",
      "cumulativeGasUsed": "0x38f93",
      "logs": [
        {
          "address": "0x2a70413578331a2e0b62ccfd5badd02736b67a96",
          "topics": [
            "0xddf252ad1be2c89b69c2b068fc378daa952ba7f163c4a11628f55a4df523b3ef",
            "0x0000000000000000000000000000000000000000000000000000000000000000",
            "0x00000000000000000000000008a74a0075a2c3a786a84439812a141c6c8b73f3"
          ],
          "data": "0x00000000000000000000000000000000000000000000152d02c7e14af6800000",
          "blockHash": "0xf39558e917bef75f10b79aa8063c6108114417fa2c917ad1c9cd6dd5234dfb40",
          "blockNumber": "0x7d56bdc",
          "transactionHash": "0x9c29d324dcdc2b3ef2ceec95f95272d2ca68b2c93909316ca34117aeeb335814",
          "transactionIndex": "0x2",
          "logIndex": "0x3",
          "removed": false
        }
      ],
      "logsBloom": "0x00000000000000000000000000000000000000000000000000000000000000000000000000000000000000000000000000000000000000000000200000000000000000000000000000000008000000000000000000000000020000000000000000000000020000000000000000000800000000000004000000000010000000000000000000000000000000000000000000000000020000400000000000000000000000000000000000000000000000000000000000000000000000000000000000000002000000000000000000000000000000000000000000000000000020000000000000000000000000000000000000000000002000000000000000000000",
      "type": "0x2",
      "transactionHash": "0x9c29d324dcdc2b3ef2ceec95f95272d2ca68b2c93909316ca34117aeeb335814",
      "transactionIndex": "0x2",
      "blockHash": "0xf39558e917bef75f10b79aa8063c6108114417fa2c917ad1c9cd6dd5234dfb40",
      "blockNumber": "0x7d56bdc",
      "gasUsed": "0x153d0",
      "effectiveGasPrice": "0x5f5e100",
      "from": "0x08a74a0075a2c3a786a84439812a141c6c8b73f3",
      "to": "0x2a70413578331a2e0b62ccfd5badd02736b67a96",
      "contractAddress": null,
      "gasUsedForL1": "0x8b51",
      "l1BlockNumber": "0x784353",
      "timeboosted": false
    }
  ],
  "libraries": [],
  "pending": [],
  "returns": {},
  "timestamp": 1741712781,
  "chain": 421614,
  "commit": "59634fe"
}