{
  "transactions": [
    {
      "hash": "0xfc7c0d09089a8ea0a2af15b95235fb0d6a77383849f52ae29140520b1b7c1f1c",
      "transactionType": "CALL",
      "contractName": "MockERC20",
      "contractAddress": "0x09b1e5f6e53fe41c5ca171f547c71b76044e29ed",
      "function": "mint(address,uint256)",
      "arguments": [
        "0xb81246518A9b53aa1C6D400444629B2AE266B443",
        "100000000000000000000000"
      ],
      "transaction": {
        "from": "0x08a74a0075a2c3a786a84439812a141c6c8b73f3",
        "to": "0x09b1e5f6e53fe41c5ca171f547c71b76044e29ed",
        "gas": "0x2477c",
        "value": "0x0",
        "input": "0x40c10f19000000000000000000000000b81246518a9b53aa1c6d400444629b2ae266b44300000000000000000000000000000000000000000000152d02c7e14af6800000",
        "nonce": "0x6002",
        "chainId": "0x66eee"
      },
      "additionalContracts": [],
      "isFixedGasLimit": false
    },
    {
      "hash": "0x084638b5049b9745d8aae79f277ecd334849854099ee8ecbf6abd67df5478515",
      "transactionType": "CALL",
      "contractName": "MockERC20",
      "contractAddress": "0x09b1e5f6e53fe41c5ca171f547c71b76044e29ed",
      "function": "mint(address,uint256)",
      "arguments": [
        "0x08a74A0075a2C3A786A84439812a141C6C8b73f3",
        "100000000000000000000000"
      ],
      "transaction": {
        "from": "0x08a74a0075a2c3a786a84439812a141c6c8b73f3",
        "to": "0x09b1e5f6e53fe41c5ca171f547c71b76044e29ed",
        "gas": "0x2476d",
        "value": "0x0",
        "input": "0x40c10f1900000000000000000000000008a74a0075a2c3a786a84439812a141c6c8b73f300000000000000000000000000000000000000000000152d02c7e14af6800000",
        "nonce": "0x6003",
        "chainId": "0x66eee"
      },
      "additionalContracts": [],
      "isFixedGasLimit": false
    }
  ],
  "receipts": [
    {
      "status": "0x1",
      "cumulativeGasUsed": "0xc47ad",
      "logs": [
        {
          "address": "0x09b1e5f6e53fe41c5ca171f547c71b76044e29ed",
          "topics": [
            "0xddf252ad1be2c89b69c2b068fc378daa952ba7f163c4a11628f55a4df523b3ef",
            "0x0000000000000000000000000000000000000000000000000000000000000000",
            "0x000000000000000000000000b81246518a9b53aa1c6d400444629b2ae266b443"
          ],
          "data": "0x00000000000000000000000000000000000000000000152d02c7e14af6800000",
          "blockHash": "0x0c31d892335ce2736a9d8eec2412bd08006031b6c6cd5afc81b2c3ec32ca79fe",
          "blockNumber": "0x7d56ad7",
          "transactionHash": "0xfc7c0d09089a8ea0a2af15b95235fb0d6a77383849f52ae29140520b1b7c1f1c",
          "transactionIndex": "0x2",
          "logIndex": "0x1",
          "removed": false
        }
      ],
      "logsBloom": "0x00000000000000000000000000000000000000000000000000000000000000000400000000000000000000000000000000000000000000000040000000000000000000000000000000000008000000000000000000000000000000000000000000040000020000000000021000000800000000000000000000000010000000000000000800000000000000000000000000000000000000000000000000000000000000000000000000000000000000000000000000000000000000000000000000000002000000000000000000000000000000000000000000000000000020000000000000000000000000000000000000000000000000000000000000000000",
      "type": "0x2",
      "transactionHash": "0xfc7c0d09089a8ea0a2af15b95235fb0d6a77383849f52ae29140520b1b7c1f1c",
      "transactionIndex": "0x2",
      "blockHash": "0x0c31d892335ce2736a9d8eec2412bd08006031b6c6cd5afc81b2c3ec32ca79fe",
      "blockNumber": "0x7d56ad7",
      "gasUsed": "0x196a8",
      "effectiveGasPrice": "0x5f5e100",
      "from": "0x08a74a0075a2c3a786a84439812a141c6c8b73f3",
      "to": "0x09b1e5f6e53fe41c5ca171f547c71b76044e29ed",
      "contractAddress": null,
      "gasUsedForL1": "0x8b51",
      "l1BlockNumber": "0x78434e",
      "timeboosted": false
    },
    {
      "status": "0x1",
      "cumulativeGasUsed": "0x153d0",
      "logs": [
        {
          "address": "0x09b1e5f6e53fe41c5ca171f547c71b76044e29ed",
          "topics": [
            "0xddf252ad1be2c89b69c2b068fc378daa952ba7f163c4a11628f55a4df523b3ef",
            "0x0000000000000000000000000000000000000000000000000000000000000000",
            "0x00000000000000000000000008a74a0075a2c3a786a84439812a141c6c8b73f3"
          ],
          "data": "0x00000000000000000000000000000000000000000000152d02c7e14af6800000",
          "blockHash": "0x4ca6a1fcf2f74ba99b573229a733786b6a4316fa2e158e06e083e9040345036f",
          "blockNumber": "0x7d56add",
          "transactionHash": "0x084638b5049b9745d8aae79f277ecd334849854099ee8ecbf6abd67df5478515",
          "transactionIndex": "0x1",
          "logIndex": "0x0",
          "removed": false
        }
      ],
      "logsBloom": "0x00000000000000000000000000000000000000000000000000000000000000000400000000000000000000000000000000000000000000000000200000000000000000000000000000000008000000000000000000000000020000000000000000040000020000000000000000000800000000000000000000000010000000000000000800000000000000000000000000000000000000400000000000000000000000000000000000000000000000000000000000000000000000000000000000000002000000000000000000000000000000000000000000000000000020000000000000000000000000000000000000000000000000000000000000000000",
      "type": "0x2",
      "transactionHash": "0x084638b5049b9745d8aae79f277ecd334849854099ee8ecbf6abd67df5478515",
      "transactionIndex": "0x1",
      "blockHash": "0x4ca6a1fcf2f74ba99b573229a733786b6a4316fa2e158e06e083e9040345036f",
      "blockNumber": "0x7d56add",
      "gasUsed": "0x153d0",
      "effectiveGasPrice": "0x5f5e100",
      "from": "0x08a74a0075a2c3a786a84439812a141c6c8b73f3",
      "to": "0x09b1e5f6e53fe41c5ca171f547c71b76044e29ed",
      "contractAddress": null,
      "gasUsedForL1": "0x8b51",
      "l1BlockNumber": "0x78434e",
      "timeboosted": false
    }
  ],
  "libraries": [],
  "pending": [],
  "returns": {},
  "timestamp": 1741712713,
  "chain": 421614,
  "commit": "59634fe"
}