{
  "transactions": [
    {
      "hash": "0x876fd003f05adfaa8d4d40f4c58242b542589b3cb8bc4fcac116e325adfd761c",
      "transactionType": "CALL",
      "contractName": null,
      "contractAddress": "0xb819b78798c174fa9e80ad26903eacb27c68cfd6",
      "function": "startNewEpoch(uint256)",
      "arguments": [
        "0"
      ],
      "transaction": {
        "from": "0x7d726330f35ba77cf1f33adeb7fd5514d1c9e12f",
        "to": "0xb819b78798c174fa9e80ad26903eacb27c68cfd6",
        "gas": "0x33a19",
        "value": "0x0",
        "input": "0x4bbed3960000000000000000000000000000000000000000000000000000000000000000",
        "nonce": "0x23",
        "chainId": "0xe35"
      },
      "additionalContracts": [],
      "isFixedGasLimit": false
    },
    {
      "hash": "0x507c0e1c9ba7b1ac2ae144409a2b2c9c661768b38f238b266987faaee350c794",
      "transactionType": "CALL",
      "contractName": null,
      "contractAddress": "0x5107b03d9b4fb135a58435a4507716304372645b",
      "function": "startNewEpoch(uint256)",
      "arguments": [
        "0"
      ],
      "transaction": {
        "from": "0x7d726330f35ba77cf1f33adeb7fd5514d1c9e12f",
        "to": "0x5107b03d9b4fb135a58435a4507716304372645b",
        "gas": "0x33a19",
        "value": "0x0",
        "input": "0x4bbed3960000000000000000000000000000000000000000000000000000000000000000",
        "nonce": "0x24",
        "chainId": "0xe35"
      },
      "additionalContracts": [],
      "isFixedGasLimit": false
    },
    {
      "hash": "0xc58c31041a3ef34a31c506846469136a45819ef3fc86bac0305a4d88cd9d1d91",
      "transactionType": "CALL",
      "contractName": null,
      "contractAddress": "0x644c81bac306a4dcaaeaffe66b284e4f7b245227",
      "function": "startNewEpoch(uint256)",
      "arguments": [
        "0"
      ],
      "transaction": {
        "from": "0x7d726330f35ba77cf1f33adeb7fd5514d1c9e12f",
        "to": "0x644c81bac306a4dcaaeaffe66b284e4f7b245227",
        "gas": "0x33a19",
        "value": "0x0",
        "input": "0x4bbed3960000000000000000000000000000000000000000000000000000000000000000",
        "nonce": "0x25",
        "chainId": "0xe35"
      },
      "additionalContracts": [],
      "isFixedGasLimit": false
    }
  ],
  "receipts": [
    {
      "status": "0x1",
      "cumulativeGasUsed": "0x2ef3a",
      "logs": [
        {
          "address": "0xb819b78798c174fa9e80ad26903eacb27c68cfd6",
          "topics": [
            "0x41787f1277821474072e18df95f0bd9ed9f117003aa97732ebbd737225b32b02",
            "0x0000000000000000000000000000000000000000000000000000000000000001"
          ],
          "data": "0x0000000000000000000000000000000000000000000000000000000069cc747f",
          "blockHash": "0x6c3877de1ab6a24b2c1e1dfcae00dfea47d2e5bd5d83b8683bbea35cad38a30a",
          "blockNumber": "0x4ac309",
          "blockTimestamp": "0x69cc747f",
          "transactionHash": "0x876fd003f05adfaa8d4d40f4c58242b542589b3cb8bc4fcac116e325adfd761c",
          "transactionIndex": "0x1",
          "logIndex": "0x1",
          "removed": false
        }
      ],
      "logsBloom": "0x00000100000000000000400000000000000000000000000000000000000000000000000000000000000000000000000000000000000000000000000000040000000000000000000000000000000000000000000000040000000000000000000000000000000000000000000010000000000000000000000000000000000000000000000000000000000000000000000000000000000000000000000000000000000000000000000000000080000000000000000000000000000000000000000000000000200000000000000000000000000000000000000000000000000040000000100000000000000000000000000000000000000000000000000000000000",
      "type": "0x2",
      "transactionHash": "0x876fd003f05adfaa8d4d40f4c58242b542589b3cb8bc4fcac116e325adfd761c",
      "transactionIndex": "0x1",
      "blockHash": "0x6c3877de1ab6a24b2c1e1dfcae00dfea47d2e5bd5d83b8683bbea35cad38a30a",
      "blockNumber": "0x4ac309",
      "gasUsed": "0x25615",
      "effectiveGasPrice": "0x9eb10",
      "from": "0x7d726330f35ba77cf1f33adeb7fd5514d1c9e12f",
      "to": "0xb819b78798c174fa9e80ad26903eacb27c68cfd6",
      "contractAddress": null
    },
    {
      "status": "0x1",
      "cumulativeGasUsed": "0x5454f",
      "logs": [
        {
          "address": "0x5107b03d9b4fb135a58435a4507716304372645b",
          "topics": [
            "0x41787f1277821474072e18df95f0bd9ed9f117003aa97732ebbd737225b32b02",
            "0x0000000000000000000000000000000000000000000000000000000000000001"
          ],
          "data": "0x0000000000000000000000000000000000000000000000000000000069cc747f",
          "blockHash": "0x6c3877de1ab6a24b2c1e1dfcae00dfea47d2e5bd5d83b8683bbea35cad38a30a",
          "blockNumber": "0x4ac309",
          "blockTimestamp": "0x69cc747f",
          "transactionHash": "0x507c0e1c9ba7b1ac2ae144409a2b2c9c661768b38f238b266987faaee350c794",
          "transactionIndex": "0x2",
          "logIndex": "0x2",
          "removed": false
        }
      ],
      "logsBloom": "0x00000000010000000000400000000000000000000000000000000000000000000000000000000000000000000000000000000000000000000000000000040000000000000000000000000000000000000000000000040000010000000000000000000000000000000000000010000000000000000000000000000000000000000000001000000000000000000000000000000000000000000000000000000000000000000000000000000080000000000000000000000000000000000000000000000000000000000000000000000000000000000000000000000000000040000000000000000000000000000000000000000000000000000000000000000000",
      "type": "0x2",
      "transactionHash": "0x507c0e1c9ba7b1ac2ae144409a2b2c9c661768b38f238b266987faaee350c794",
      "transactionIndex": "0x2",
      "blockHash": "0x6c3877de1ab6a24b2c1e1dfcae00dfea47d2e5bd5d83b8683bbea35cad38a30a",
      "blockNumber": "0x4ac309",
      "gasUsed": "0x25615",
      "effectiveGasPrice": "0x9eb10",
      "from": "0x7d726330f35ba77cf1f33adeb7fd5514d1c9e12f",
      "to": "0x5107b03d9b4fb135a58435a4507716304372645b",
      "contractAddress": null
    },
    {
      "status": "0x1",
      "cumulativeGasUsed": "0x79b64",
      "logs": [
        {
          "address": "0x644c81bac306a4dcaaeaffe66b284e4f7b245227",
          "topics": [
            "0x41787f1277821474072e18df95f0bd9ed9f117003aa97732ebbd737225b32b02",
            "0x0000000000000000000000000000000000000000000000000000000000000001"
          ],
          "data": "0x0000000000000000000000000000000000000000000000000000000069cc747f",
          "blockHash": "0x6c3877de1ab6a24b2c1e1dfcae00dfea47d2e5bd5d83b8683bbea35cad38a30a",
          "blockNumber": "0x4ac309",
          "blockTimestamp": "0x69cc747f",
          "transactionHash": "0xc58c31041a3ef34a31c506846469136a45819ef3fc86bac0305a4d88cd9d1d91",
          "transactionIndex": "0x3",
          "logIndex": "0x3",
          "removed": false
        }
      ],
      "logsBloom": "0x00000000000000000000400000000000000000000000000000000000000800000000000020000000000000000000000000000000000000000000000000040000000000000000000000000000000000000000000000040000000000000000000000000000000000000000000010000000000000000000000000000000000000000000000000000000000000000000000000000000000000000000000000000000010000000000000000000080000000000000000000000000000000000000000000000000000000000000000000000000000000000000000000000000000040000000000000000000000000000000000000000000000000000000000000000000",
      "type": "0x2",
      "transactionHash": "0xc58c31041a3ef34a31c506846469136a45819ef3fc86bac0305a4d88cd9d1d91",
      "transactionIndex": "0x3",
      "blockHash": "0x6c3877de1ab6a24b2c1e1dfcae00dfea47d2e5bd5d83b8683bbea35cad38a30a",
      "blockNumber": "0x4ac309",
      "gasUsed": "0x25615",
      "effectiveGasPrice": "0x9eb10",
      "from": "0x7d726330f35ba77cf1f33adeb7fd5514d1c9e12f",
      "to": "0x644c81bac306a4dcaaeaffe66b284e4f7b245227",
      "contractAddress": null
    }
  ],
  "libraries": [],
  "pending": [],
  "returns": {},
  "timestamp": 1775006849301,
  "chain": 3637,
  "commit": "1f9c99e"
}