{
  "transactions": [
    {
      "hash": "0x8da9cd95b183e66c00bf02d1d764c4286f64bf28b06d508f1c744d8ea79b8831",
      "transactionType": "CALL",
      "contractName": null,
      "contractAddress": "0x2508fc3487c21f67f30edec94afb24fdf6735c76",
      "function": "mint(address,uint256)",
      "arguments": [
        "0x7D726330f35bA77Cf1f33aDEB7fd5514D1c9E12f",
        "10000000000000"
      ],
      "transaction": {
        "from": "0x7d726330f35ba77cf1f33adeb7fd5514d1c9e12f",
        "to": "0x2508fc3487c21f67f30edec94afb24fdf6735c76",
        "gas": "0x16f5a",
        "value": "0x0",
        "input": "0x40c10f190000000000000000000000007d726330f35ba77cf1f33adeb7fd5514d1c9e12f000000000000000000000000000000000000000000000000000009184e72a000",
        "nonce": "0x9",
        "chainId": "0xe35"
      },
      "additionalContracts": [],
      "isFixedGasLimit": false
    }
  ],
  "receipts": [
    {
      "status": "0x1",
      "cumulativeGasUsed": "0x43de6",
      "logs": [
        {
          "address": "0x2508fc3487c21f67f30edec94afb24fdf6735c76",
          "topics": [
            "0xddf252ad1be2c89b69c2b068fc378daa952ba7f163c4a11628f55a4df523b3ef",
            "0x0000000000000000000000000000000000000000000000000000000000000000",
            "0x0000000000000000000000007d726330f35ba77cf1f33adeb7fd5514d1c9e12f"
          ],
          "data": "0x000000000000000000000000000000000000000000000000000009184e72a000",
          "blockHash": "0x1c30adb21c7b39153d7e68e686cd2ce2493ffb3da8abd68727591c6b8bd4c948",
          "blockNumber": "0x40e471",
          "blockTimestamp": "0x69937f33",
          "transactionHash": "0x8da9cd95b183e66c00bf02d1d764c4286f64bf28b06d508f1c744d8ea79b8831",
          "transactionIndex": "0x5",
          "logIndex": "0x5",
          "removed": false
        }
      ],
      "logsBloom": "0x00000000000000000000000000000000000000000000000000000000000000000000000000000000000000000000000000000000000000000000000000000000000000000000000000000008000000000000000000000000000000000000000000000000020000000000000000000800000000000000000000000010000000000000010000000000000000001000000000000000000000000000000000000000000000000000000000000000000000000000000000000000000100000000000000000002000000000004000000000000000000000002000000000000000020000000000000000000000000002000000000000000000000000000000000000000",
      "type": "0x2",
      "transactionHash": "0x8da9cd95b183e66c00bf02d1d764c4286f64bf28b06d508f1c744d8ea79b8831",
      "transactionIndex": "0x5",
      "blockHash": "0x1c30adb21c7b39153d7e68e686cd2ce2493ffb3da8abd68727591c6b8bd4c948",
      "blockNumber": "0x40e471",
      "gasUsed": "0x109f5",
      "effectiveGasPrice": "0x9eb10",
      "from": "0x7d726330f35ba77cf1f33adeb7fd5514d1c9e12f",
      "to": "0x2508fc3487c21f67f30edec94afb24fdf6735c76",
      "contractAddress": null
    }
  ],
  "libraries": [],
  "pending": [],
  "returns": {},
  "timestamp": 1771274037229,
  "chain": 3637,
  "commit": "1f9c99e"
}