{
  "transactions": [
    {
      "hash": "0xbf2fc8b98842a67552b4fa03114c7107c438acf3111bd9c808ea8fd5c06023a4",
      "transactionType": "CALL",
      "contractName": null,
      "contractAddress": "0x5927c58882119f51d8357251835b457901a70298",
      "function": "createVault(string,string,string,address,address,address,address,uint256,uint256)",
      "arguments": [
        "Options Yield Vault",
        "rfyUSDT",
        "",
        "0xdAC17F958D2ee523a2206206994597C13D831ec7",
        "0x7D726330f35bA77Cf1f33aDEB7fd5514D1c9E12f",
        "0x90FdA93362d2e1525daB5b2eeA51f3214e73cd6E",
        "0x0000000000000000000000000000000000000000",
        "604800",
        "1000000000000"
      ],
      "transaction": {
        "from": "0x7d726330f35ba77cf1f33adeb7fd5514d1c9e12f",
        "to": "0x5927c58882119f51d8357251835b457901a70298",
        "gas": "0x891cf",
        "value": "0x0",
        "input": "0xeaaaa1eb0000000000000000000000000000000000000000000000000000000000000120000000000000000000000000000000000000000000000000000000000000016000000000000000000000000000000000000000000000000000000000000001a0000000000000000000000000dac17f958d2ee523a2206206994597c13d831ec70000000000000000000000007d726330f35ba77cf1f33adeb7fd5514d1c9e12f00000000000000000000000090fda93362d2e1525dab5b2eea51f3214e73cd6e00000000000000000000000000000000000000000000000000000000000000000000000000000000000000000000000000000000000000000000000000093a80000000000000000000000000000000000000000000000000000000e8d4a5100000000000000000000000000000000000000000000000000000000000000000134f7074696f6e73205969656c64205661756c7400000000000000000000000000000000000000000000000000000000000000000000000000000000000000000772667955534454000000000000000000000000000000000000000000000000000000000000000000000000000000000000000000000000000000000000000000",
        "nonce": "0x3",
        "chainId": "0x1"
      },
      "additionalContracts": [
        {
          "transactionType": "CREATE",
          "contractName": null,
          "address": "0xb15e63222be05b1128609a5ce6ebb549632687ec",
          "initCode": "0x3d602d80600a3d3981f3363d3d373d3d3d363d730a30ac2000baa486adb40e737998e139d3569f965af43d82803e903d91602b57fd5bf3"
        }
      ],
      "isFixedGasLimit": false
    }
  ],
  "receipts": [
    {
      "status": "0x1",
      "cumulativeGasUsed": "0x3465cc4",
      "logs": [
        {
          "address": "0xb15e63222be05b1128609a5ce6ebb549632687ec",
          "topics": [
            "0x2f8788117e7eff1d82e926ec794901d17c78024a50270940304540a733656f0d",
            "0x0000000000000000000000000000000000000000000000000000000000000000",
            "0x0000000000000000000000007d726330f35ba77cf1f33adeb7fd5514d1c9e12f",
            "0x0000000000000000000000005927c58882119f51d8357251835b457901a70298"
          ],
          "data": "0x",
          "blockHash": "0x262f40ba515e8354f1d616c47a59d7dbdc2331185f567f4cafab9eddf7ea43df",
          "blockNumber": "0x17c6a01",
          "blockTimestamp": "0x69e7e3ff",
          "transactionHash": "0xbf2fc8b98842a67552b4fa03114c7107c438acf3111bd9c808ea8fd5c06023a4",
          "transactionIndex": "0x1e4",
          "logIndex": "0x59b",
          "removed": false
        },
        {
          "address": "0xb15e63222be05b1128609a5ce6ebb549632687ec",
          "topics": [
            "0x2f8788117e7eff1d82e926ec794901d17c78024a50270940304540a733656f0d",
            "0xfacaf2747a7486cf5730e9265973fb54447d3ace6e7e4711f6360826b0731941",
            "0x00000000000000000000000090fda93362d2e1525dab5b2eea51f3214e73cd6e",
            "0x0000000000000000000000005927c58882119f51d8357251835b457901a70298"
          ],
          "data": "0x",
          "blockHash": "0x262f40ba515e8354f1d616c47a59d7dbdc2331185f567f4cafab9eddf7ea43df",
          "blockNumber": "0x17c6a01",
          "blockTimestamp": "0x69e7e3ff",
          "transactionHash": "0xbf2fc8b98842a67552b4fa03114c7107c438acf3111bd9c808ea8fd5c06023a4",
          "transactionIndex": "0x1e4",
          "logIndex": "0x59c",
          "removed": false
        },
        {
          "address": "0xb15e63222be05b1128609a5ce6ebb549632687ec",
          "topics": [
            "0x2f8788117e7eff1d82e926ec794901d17c78024a50270940304540a733656f0d",
            "0x677de58ccf7b39e7c606acef7a04830bfe15f822dd06a02595207b50ff82b9cb",
            "0x0000000000000000000000007d726330f35ba77cf1f33adeb7fd5514d1c9e12f",
            "0x0000000000000000000000005927c58882119f51d8357251835b457901a70298"
          ],
          "data": "0x",
          "blockHash": "0x262f40ba515e8354f1d616c47a59d7dbdc2331185f567f4cafab9eddf7ea43df",
          "blockNumber": "0x17c6a01",
          "blockTimestamp": "0x69e7e3ff",
          "transactionHash": "0xbf2fc8b98842a67552b4fa03114c7107c438acf3111bd9c808ea8fd5c06023a4",
          "transactionIndex": "0x1e4",
          "logIndex": "0x59d",
          "removed": false
        },
        {
          "address": "0xb15e63222be05b1128609a5ce6ebb549632687ec",
          "topics": [
            "0xc7f505b2f371ae2175ee4913f4499e1f2633a7b5936321eed1cdaeb6115181d2"
          ],
          "data": "0x0000000000000000000000000000000000000000000000000000000000000001",
          "blockHash": "0x262f40ba515e8354f1d616c47a59d7dbdc2331185f567f4cafab9eddf7ea43df",
          "blockNumber": "0x17c6a01",
          "blockTimestamp": "0x69e7e3ff",
          "transactionHash": "0xbf2fc8b98842a67552b4fa03114c7107c438acf3111bd9c808ea8fd5c06023a4",
          "transactionIndex": "0x1e4",
          "logIndex": "0x59e",
          "removed": false
        },
        {
          "address": "0x5927c58882119f51d8357251835b457901a70298",
          "topics": [
            "0x4dda9a6d0ba03769e9813c47681795a7210f951e6ef31e64772e13b9ea0f1406",
            "0x000000000000000000000000b15e63222be05b1128609a5ce6ebb549632687ec"
          ],
          "data": "0x000000000000000000000000dac17f958d2ee523a2206206994597c13d831ec700000000000000000000000000000000000000000000000000000000000000000000000000000000000000000000000000000000000000000000000000000000",
          "blockHash": "0x262f40ba515e8354f1d616c47a59d7dbdc2331185f567f4cafab9eddf7ea43df",
          "blockNumber": "0x17c6a01",
          "blockTimestamp": "0x69e7e3ff",
          "transactionHash": "0xbf2fc8b98842a67552b4fa03114c7107c438acf3111bd9c808ea8fd5c06023a4",
          "transactionIndex": "0x1e4",
          "logIndex": "0x59f",
          "removed": false
        }
      ],
      "logsBloom": "0x00000004000000000000000000000000010010000000000000000000000000000000000000000000000000100000000000000000000000000000000000000000000000000040001000020000000000000002000000000000000000002000000000000000020000000000000000000800000000000400000000000000000000808000000000000000000800000080000000000000000080000000002000800000000000000000000000000000000000000000000000020000003100000000300000000000000000000004000000000000000000000004000100000001000020000000100180000400000000002000000000000000000000800000000000000000",
      "type": "0x2",
      "transactionHash": "0xbf2fc8b98842a67552b4fa03114c7107c438acf3111bd9c808ea8fd5c06023a4",
      "transactionIndex": "0x1e4",
      "blockHash": "0x262f40ba515e8354f1d616c47a59d7dbdc2331185f567f4cafab9eddf7ea43df",
      "blockNumber": "0x17c6a01",
      "gasUsed": "0x5dc0b",
      "effectiveGasPrice": "0x162b2bb0",
      "from": "0x7d726330f35ba77cf1f33adeb7fd5514d1c9e12f",
      "to": "0x5927c58882119f51d8357251835b457901a70298",
      "contractAddress": null
    }
  ],
  "libraries": [],
  "pending": [],
  "returns": {},
  "timestamp": 1776804867308,
  "chain": 1,
  "commit": "2d1656d"
}