{
  "transactions": [
    {
      "hash": "0xe6b0592ab6d321462416219b0853976a2b3753510f27584ade91c4e6fc91ad94",
      "transactionType": "CALL",
      "contractName": null,
      "contractAddress": "0x51ece283e41f2bb9928746ace0028ef77f30b3ba",
      "function": "createVault(string,string,string,address,address,address,address,uint256,uint256)",
      "arguments": [
        "INJ Yield Vault",
        "rfyINJ",
        "",
        "0x0000000088827d2d103ee2d9A6b781773AE03FfB",
        "0xC4290eA730a461075141e6d5DF1e980E72F1BD1B",
        "0x90FdA93362d2e1525daB5b2eeA51f3214e73cd6E",
        "0x0000000000000000000000000000000000000000",
        "2592000",
        "5000000000000"
      ],
      "transaction": {
        "from": "0xc4290ea730a461075141e6d5df1e980e72f1bd1b",
        "to": "0x51ece283e41f2bb9928746ace0028ef77f30b3ba",
        "gas": "0x83f45",
        "value": "0x0",
        "input": "0xeaaaa1eb0000000000000000000000000000000000000000000000000000000000000120000000000000000000000000000000000000000000000000000000000000016000000000000000000000000000000000000000000000000000000000000001a00000000000000000000000000000000088827d2d103ee2d9a6b781773ae03ffb000000000000000000000000c4290ea730a461075141e6d5df1e980e72f1bd1b00000000000000000000000090fda93362d2e1525dab5b2eea51f3214e73cd6e00000000000000000000000000000000000000000000000000000000000000000000000000000000000000000000000000000000000000000000000000278d000000000000000000000000000000000000000000000000000000048c27395000000000000000000000000000000000000000000000000000000000000000000f494e4a205969656c64205661756c7400000000000000000000000000000000000000000000000000000000000000000000000000000000000000000000000006726679494e4a00000000000000000000000000000000000000000000000000000000000000000000000000000000000000000000000000000000000000000000",
        "nonce": "0x4f",
        "chainId": "0x6f0"
      },
      "additionalContracts": [
        {
          "transactionType": "CREATE",
          "contractName": null,
          "address": "0x9a7f6c9168878aebc80ec6ac2a5596d3de593138",
          "initCode": "0x3d602d80600a3d3981f3363d3d373d3d3d363d73f0f0ffa36a49be7e0a23eb470fcfdc6e78175fdb5af43d82803e903d91602b57fd5bf3"
        }
      ],
      "isFixedGasLimit": false
    }
  ],
  "receipts": [
    {
      "status": "0x1",
      "cumulativeGasUsed": "0x31358b0",
      "logs": [
        {
          "address": "0x9a7f6c9168878aebc80ec6ac2a5596d3de593138",
          "topics": [
            "0x2f8788117e7eff1d82e926ec794901d17c78024a50270940304540a733656f0d",
            "0x0000000000000000000000000000000000000000000000000000000000000000",
            "0x000000000000000000000000c4290ea730a461075141e6d5df1e980e72f1bd1b",
            "0x00000000000000000000000051ece283e41f2bb9928746ace0028ef77f30b3ba"
          ],
          "data": "0x",
          "blockHash": "0x21aa9c979c26ce1d42b9850bfe766fedf7a28182f450404a311da08ebe0a7ab3",
          "blockNumber": "0x86cd042",
          "blockTimestamp": "0x0",
          "transactionHash": "0xe6b0592ab6d321462416219b0853976a2b3753510f27584ade91c4e6fc91ad94",
          "transactionIndex": "0x0",
          "logIndex": "0x0",
          "removed": false
        },
        {
          "address": "0x9a7f6c9168878aebc80ec6ac2a5596d3de593138",
          "topics": [
            "0x2f8788117e7eff1d82e926ec794901d17c78024a50270940304540a733656f0d",
            "0xfacaf2747a7486cf5730e9265973fb54447d3ace6e7e4711f6360826b0731941",
            "0x00000000000000000000000090fda93362d2e1525dab5b2eea51f3214e73cd6e",
            "0x00000000000000000000000051ece283e41f2bb9928746ace0028ef77f30b3ba"
          ],
          "data": "0x",
          "blockHash": "0x21aa9c979c26ce1d42b9850bfe766fedf7a28182f450404a311da08ebe0a7ab3",
          "blockNumber": "0x86cd042",
          "blockTimestamp": "0x0",
          "transactionHash": "0xe6b0592ab6d321462416219b0853976a2b3753510f27584ade91c4e6fc91ad94",
          "transactionIndex": "0x0",
          "logIndex": "0x1",
          "removed": false
        },
        {
          "address": "0x9a7f6c9168878aebc80ec6ac2a5596d3de593138",
          "topics": [
            "0x2f8788117e7eff1d82e926ec794901d17c78024a50270940304540a733656f0d",
            "0x677de58ccf7b39e7c606acef7a04830bfe15f822dd06a02595207b50ff82b9cb",
            "0x000000000000000000000000c4290ea730a461075141e6d5df1e980e72f1bd1b",
            "0x00000000000000000000000051ece283e41f2bb9928746ace0028ef77f30b3ba"
          ],
          "data": "0x",
          "blockHash": "0x21aa9c979c26ce1d42b9850bfe766fedf7a28182f450404a311da08ebe0a7ab3",
          "blockNumber": "0x86cd042",
          "blockTimestamp": "0x0",
          "transactionHash": "0xe6b0592ab6d321462416219b0853976a2b3753510f27584ade91c4e6fc91ad94",
          "transactionIndex": "0x0",
          "logIndex": "0x2",
          "removed": false
        },
        {
          "address": "0x9a7f6c9168878aebc80ec6ac2a5596d3de593138",
          "topics": [
            "0xc7f505b2f371ae2175ee4913f4499e1f2633a7b5936321eed1cdaeb6115181d2"
          ],
          "data": "0x0000000000000000000000000000000000000000000000000000000000000001",
          "blockHash": "0x21aa9c979c26ce1d42b9850bfe766fedf7a28182f450404a311da08ebe0a7ab3",
          "blockNumber": "0x86cd042",
          "blockTimestamp": "0x0",
          "transactionHash": "0xe6b0592ab6d321462416219b0853976a2b3753510f27584ade91c4e6fc91ad94",
          "transactionIndex": "0x0",
          "logIndex": "0x3",
          "removed": false
        },
        {
          "address": "0x51ece283e41f2bb9928746ace0028ef77f30b3ba",
          "topics": [
            "0x4dda9a6d0ba03769e9813c47681795a7210f951e6ef31e64772e13b9ea0f1406",
            "0x0000000000000000000000009a7f6c9168878aebc80ec6ac2a5596d3de593138"
          ],
          "data": "0x0000000000000000000000000000000088827d2d103ee2d9a6b781773ae03ffb00000000000000000000000000000000000000000000000000000000000000000000000000000000000000000000000000000000000000000000000000000002",
          "blockHash": "0x21aa9c979c26ce1d42b9850bfe766fedf7a28182f450404a311da08ebe0a7ab3",
          "blockNumber": "0x86cd042",
          "blockTimestamp": "0x0",
          "transactionHash": "0xe6b0592ab6d321462416219b0853976a2b3753510f27584ade91c4e6fc91ad94",
          "transactionIndex": "0x0",
          "logIndex": "0x4",
          "removed": false
        }
      ],
      "logsBloom": "0x00000004000000200000000000008000000000000000100000000000800004000000000000100000000000100000000002000000000000000000040000000000000000000000001000000000000000000000000000000000000002000000000000000000020000000000000000000800000000000400000000000000000000000000000000002000000800000000000000000000000080000000002000800000000000000000000002000000000000000000000000020000003000000000200000000000000000000000000000000100000000000004000100000001000022000000100100000400000000000000200000000000000000000000000000000000",
      "type": "0x2",
      "transactionHash": "0xe6b0592ab6d321462416219b0853976a2b3753510f27584ade91c4e6fc91ad94",
      "transactionIndex": "0x0",
      "blockHash": "0x21aa9c979c26ce1d42b9850bfe766fedf7a28182f450404a311da08ebe0a7ab3",
      "blockNumber": "0x86cd042",
      "gasUsed": "0x5d32b",
      "effectiveGasPrice": "0x1312d001",
      "from": "0xc4290ea730a461075141e6d5df1e980e72f1bd1b",
      "to": "0x51ece283e41f2bb9928746ace0028ef77f30b3ba",
      "contractAddress": null
    }
  ],
  "libraries": [],
  "pending": [],
  "returns": {},
  "timestamp": 1762980294319,
  "chain": 1776,
  "commit": "1f9c99e"
}