{
  "transactions": [
    {
      "hash": "0x78852c7deabbc3ea6417f42650c92e622196c19f58e5152aab0107ffbc060843",
      "transactionType": "CALL",
      "contractName": null,
      "contractAddress": "0x51ece283e41f2bb9928746ace0028ef77f30b3ba",
      "function": "createVault(string,string,string,address,address,address,address,uint256,uint256)",
      "arguments": [
        "RfyVault",
        "Rfy",
        "TEST",
        "0x88f7F2b685F9692caf8c478f5BADF09eE9B1Cc13",
        "0xC4290eA730a461075141e6d5DF1e980E72F1BD1B",
        "0x90FdA93362d2e1525daB5b2eeA51f3214e73cd6E",
        "0x0000000000000000000000000000000000000000",
        "604800",
        "100000000000"
      ],
      "transaction": {
        "from": "0xc4290ea730a461075141e6d5df1e980e72f1bd1b",
        "to": "0x51ece283e41f2bb9928746ace0028ef77f30b3ba",
        "gas": "0x91384",
        "value": "0x0",
        "input": "0xeaaaa1eb0000000000000000000000000000000000000000000000000000000000000120000000000000000000000000000000000000000000000000000000000000016000000000000000000000000000000000000000000000000000000000000001a000000000000000000000000088f7f2b685f9692caf8c478f5badf09ee9b1cc13000000000000000000000000c4290ea730a461075141e6d5df1e980e72f1bd1b00000000000000000000000090fda93362d2e1525dab5b2eea51f3214e73cd6e00000000000000000000000000000000000000000000000000000000000000000000000000000000000000000000000000000000000000000000000000093a80000000000000000000000000000000000000000000000000000000174876e80000000000000000000000000000000000000000000000000000000000000000085266795661756c740000000000000000000000000000000000000000000000000000000000000000000000000000000000000000000000000000000000000003526679000000000000000000000000000000000000000000000000000000000000000000000000000000000000000000000000000000000000000000000000045445535400000000000000000000000000000000000000000000000000000000",
        "nonce": "0x31",
        "chainId": "0x6f0"
      },
      "additionalContracts": [
        {
          "transactionType": "CREATE",
          "contractName": null,
          "address": "0x02f3cd3d6a0236ffd8492f398a2e35c67fb6ee89",
          "initCode": "0x3d602d80600a3d3981f3363d3d373d3d3d363d73f0f0ffa36a49be7e0a23eb470fcfdc6e78175fdb5af43d82803e903d91602b57fd5bf3"
        }
      ],
      "isFixedGasLimit": false
    }
  ],
  "receipts": [
    {
      "status": "0x1",
      "cumulativeGasUsed": "0x9da98d",
      "logs": [
        {
          "address": "0x02f3cd3d6a0236ffd8492f398a2e35c67fb6ee89",
          "topics": [
            "0x2f8788117e7eff1d82e926ec794901d17c78024a50270940304540a733656f0d",
            "0x0000000000000000000000000000000000000000000000000000000000000000",
            "0x000000000000000000000000c4290ea730a461075141e6d5df1e980e72f1bd1b",
            "0x00000000000000000000000051ece283e41f2bb9928746ace0028ef77f30b3ba"
          ],
          "data": "0x",
          "blockHash": "0x8febd8a2d29ba94311aefaf88fde4647eb6f76a0a745f900b92dca8812c520f5",
          "blockNumber": "0x867e0d1",
          "transactionHash": "0x78852c7deabbc3ea6417f42650c92e622196c19f58e5152aab0107ffbc060843",
          "transactionIndex": "0x0",
          "logIndex": "0x0",
          "removed": false
        },
        {
          "address": "0x02f3cd3d6a0236ffd8492f398a2e35c67fb6ee89",
          "topics": [
            "0x2f8788117e7eff1d82e926ec794901d17c78024a50270940304540a733656f0d",
            "0xfacaf2747a7486cf5730e9265973fb54447d3ace6e7e4711f6360826b0731941",
            "0x00000000000000000000000090fda93362d2e1525dab5b2eea51f3214e73cd6e",
            "0x00000000000000000000000051ece283e41f2bb9928746ace0028ef77f30b3ba"
          ],
          "data": "0x",
          "blockHash": "0x8febd8a2d29ba94311aefaf88fde4647eb6f76a0a745f900b92dca8812c520f5",
          "blockNumber": "0x867e0d1",
          "transactionHash": "0x78852c7deabbc3ea6417f42650c92e622196c19f58e5152aab0107ffbc060843",
          "transactionIndex": "0x0",
          "logIndex": "0x1",
          "removed": false
        },
        {
          "address": "0x02f3cd3d6a0236ffd8492f398a2e35c67fb6ee89",
          "topics": [
            "0x2f8788117e7eff1d82e926ec794901d17c78024a50270940304540a733656f0d",
            "0x677de58ccf7b39e7c606acef7a04830bfe15f822dd06a02595207b50ff82b9cb",
            "0x000000000000000000000000c4290ea730a461075141e6d5df1e980e72f1bd1b",
            "0x00000000000000000000000051ece283e41f2bb9928746ace0028ef77f30b3ba"
          ],
          "data": "0x",
          "blockHash": "0x8febd8a2d29ba94311aefaf88fde4647eb6f76a0a745f900b92dca8812c520f5",
          "blockNumber": "0x867e0d1",
          "transactionHash": "0x78852c7deabbc3ea6417f42650c92e622196c19f58e5152aab0107ffbc060843",
          "transactionIndex": "0x0",
          "logIndex": "0x2",
          "removed": false
        },
        {
          "address": "0x02f3cd3d6a0236ffd8492f398a2e35c67fb6ee89",
          "topics": [
            "0xc7f505b2f371ae2175ee4913f4499e1f2633a7b5936321eed1cdaeb6115181d2"
          ],
          "data": "0x0000000000000000000000000000000000000000000000000000000000000001",
          "blockHash": "0x8febd8a2d29ba94311aefaf88fde4647eb6f76a0a745f900b92dca8812c520f5",
          "blockNumber": "0x867e0d1",
          "transactionHash": "0x78852c7deabbc3ea6417f42650c92e622196c19f58e5152aab0107ffbc060843",
          "transactionIndex": "0x0",
          "logIndex": "0x3",
          "removed": false
        },
        {
          "address": "0x51ece283e41f2bb9928746ace0028ef77f30b3ba",
          "topics": [
            "0x4dda9a6d0ba03769e9813c47681795a7210f951e6ef31e64772e13b9ea0f1406",
            "0x00000000000000000000000002f3cd3d6a0236ffd8492f398a2e35c67fb6ee89"
          ],
          "data": "0x00000000000000000000000088f7f2b685f9692caf8c478f5badf09ee9b1cc1300000000000000000000000000000000000000000000000000000000000000000000000000000000000000000000000000000000000000000000000000000000",
          "blockHash": "0x8febd8a2d29ba94311aefaf88fde4647eb6f76a0a745f900b92dca8812c520f5",
          "blockNumber": "0x867e0d1",
          "transactionHash": "0x78852c7deabbc3ea6417f42650c92e622196c19f58e5152aab0107ffbc060843",
          "transactionIndex": "0x0",
          "logIndex": "0x4",
          "removed": false
        }
      ],
      "logsBloom": "0x00000004000000200000000000008000000000000000000000000000800004000000000000100000000000100000000002000000000000000004040000000000000000000000001000000000000000000000000000000000000000000000000000000000020000000000000000000800000000000400000000000080000000000000000000002000000800000000000000000000000080000000002000800000000000000000000000000200000000000000000000020000003000004000210000000000000002000000000000000100000000000004000100000001000020000000100100000400000000000000000000000000000000000000000000000000",
      "type": "0x2",
      "transactionHash": "0x78852c7deabbc3ea6417f42650c92e622196c19f58e5152aab0107ffbc060843",
      "transactionIndex": "0x0",
      "blockHash": "0x8febd8a2d29ba94311aefaf88fde4647eb6f76a0a745f900b92dca8812c520f5",
      "blockNumber": "0x867e0d1",
      "gasUsed": "0x6644c",
      "effectiveGasPrice": "0x1312d001",
      "from": "0xc4290ea730a461075141e6d5df1e980e72f1bd1b",
      "to": "0x51ece283e41f2bb9928746ace0028ef77f30b3ba",
      "contractAddress": null
    }
  ],
  "libraries": [],
  "pending": [],
  "returns": {},
  "timestamp": 1762768358299,
  "chain": 1776,
  "commit": "3f494f1"
}