{
	"transactions": [
		{
			"hash": "0xa863a16c59ad6c3060a81e9087aa83107d3f11c5d54f92122f38d266bf1e01ad",
			"transactionType": "CALL",
			"contractName": null,
			"contractAddress": "0xf82c07874b56c367e0815396207052820f49ddda",
			"function": "createVault(string,string,address,address,address,address,uint256)",
			"arguments": [
				"RfyVault",
				"RfyVault",
				"0x09b1e5f6e53FE41C5CA171F547c71b76044e29Ed",
				"0x08a74A0075a2C3A786A84439812a141C6C8b73f3",
				"0x08a74A0075a2C3A786A84439812a141C6C8b73f3",
				"0x95379770C92c466b2a101915cf15B563d3A69AD4",
				"600"
			],
			"transaction": {
				"from": "0x08a74a0075a2c3a786a84439812a141c6c8b73f3",
				"to": "0xf82c07874b56c367e0815396207052820f49ddda",
				"gas": "0x8140b",
				"value": "0x0",
				"input": "0x8769b75900000000000000000000000000000000000000000000000000000000000000e0000000000000000000000000000000000000000000000000000000000000012000000000000000000000000009b1e5f6e53fe41c5ca171f547c71b76044e29ed00000000000000000000000008a74a0075a2c3a786a84439812a141c6c8b73f300000000000000000000000008a74a0075a2c3a786a84439812a141c6c8b73f300000000000000000000000095379770c92c466b2a101915cf15b563d3a69ad40000000000000000000000000000000000000000000000000000000000000258000000000000000000000000000000000000000000000000000000000000000b537472796b655661756c74000000000000000000000000000000000000000000000000000000000000000000000000000000000000000000000000000000000b537472796b655661756c74000000000000000000000000000000000000000000",
				"nonce": "0x602a",
				"chainId": "0x66eee"
			},
			"additionalContracts": [
				{
					"transactionType": "CREATE",
					"address": "0x7a2f19f9a5e70d1acbd1b8a8e8052ad4f5f9b0b8",
					"initCode": "0x3d602d80600a3d3981f3363d3d373d3d3d363d739fa81e2ee5febc737b5a1b1ada4d1314fa1305245af43d82803e903d91602b57fd5bf3"
				}
			],
			"isFixedGasLimit": false
		}
	],
	"receipts": [
		{
			"status": "0x1",
			"cumulativeGasUsed": "0x5c15a",
			"logs": [
				{
					"address": "0x7a2f19f9a5e70d1acbd1b8a8e8052ad4f5f9b0b8",
					"topics": [
						"0x2f8788117e7eff1d82e926ec794901d17c78024a50270940304540a733656f0d",
						"0x0000000000000000000000000000000000000000000000000000000000000000",
						"0x00000000000000000000000008a74a0075a2c3a786a84439812a141c6c8b73f3",
						"0x000000000000000000000000f82c07874b56c367e0815396207052820f49ddda"
					],
					"data": "0x",
					"blockHash": "0x2e7a7e2a72f642f1c0704d60a1e604a74b153386c396a348032c5f59b3a7fbe2",
					"blockNumber": "0x7ddc030",
					"transactionHash": "0xa863a16c59ad6c3060a81e9087aa83107d3f11c5d54f92122f38d266bf1e01ad",
					"transactionIndex": "0x1",
					"logIndex": "0x0",
					"removed": false
				},
				{
					"address": "0x7a2f19f9a5e70d1acbd1b8a8e8052ad4f5f9b0b8",
					"topics": [
						"0x2f8788117e7eff1d82e926ec794901d17c78024a50270940304540a733656f0d",
						"0xfacaf2747a7486cf5730e9265973fb54447d3ace6e7e4711f6360826b0731941",
						"0x00000000000000000000000008a74a0075a2c3a786a84439812a141c6c8b73f3",
						"0x000000000000000000000000f82c07874b56c367e0815396207052820f49ddda"
					],
					"data": "0x",
					"blockHash": "0x2e7a7e2a72f642f1c0704d60a1e604a74b153386c396a348032c5f59b3a7fbe2",
					"blockNumber": "0x7ddc030",
					"transactionHash": "0xa863a16c59ad6c3060a81e9087aa83107d3f11c5d54f92122f38d266bf1e01ad",
					"transactionIndex": "0x1",
					"logIndex": "0x1",
					"removed": false
				},
				{
					"address": "0x7a2f19f9a5e70d1acbd1b8a8e8052ad4f5f9b0b8",
					"topics": ["0xc7f505b2f371ae2175ee4913f4499e1f2633a7b5936321eed1cdaeb6115181d2"],
					"data": "0x0000000000000000000000000000000000000000000000000000000000000001",
					"blockHash": "0x2e7a7e2a72f642f1c0704d60a1e604a74b153386c396a348032c5f59b3a7fbe2",
					"blockNumber": "0x7ddc030",
					"transactionHash": "0xa863a16c59ad6c3060a81e9087aa83107d3f11c5d54f92122f38d266bf1e01ad",
					"transactionIndex": "0x1",
					"logIndex": "0x2",
					"removed": false
				},
				{
					"address": "0xf82c07874b56c367e0815396207052820f49ddda",
					"topics": [
						"0x897c133dfbfe1f6239e98b4ffd7e4f6c86a62350a131a7a37790419f58af02f9",
						"0x0000000000000000000000007a2f19f9a5e70d1acbd1b8a8e8052ad4f5f9b0b8"
					],
					"data": "0x00000000000000000000000009b1e5f6e53fe41c5ca171f547c71b76044e29ed00000000000000000000000095379770c92c466b2a101915cf15b563d3a69ad4",
					"blockHash": "0x2e7a7e2a72f642f1c0704d60a1e604a74b153386c396a348032c5f59b3a7fbe2",
					"blockNumber": "0x7ddc030",
					"transactionHash": "0xa863a16c59ad6c3060a81e9087aa83107d3f11c5d54f92122f38d266bf1e01ad",
					"transactionIndex": "0x1",
					"logIndex": "0x3",
					"removed": false
				}
			],
			"logsBloom": "0x00000004000000000000000000000000000000000000000000000000000000000000000000000000000000000000000000000000000000000000200202000000000000000000001000000000000000000000000000000000030000020000000000000000020000020000000000000800000000000400000000000000000000000000000040000000000800000000000000000000000080400000000000000000000000000000000004000000010000000000001000000000101080000000200000000000000000000000000000000000000000000104000101000000000020000000000000000000000000000040000000000000000800000000000000000000",
			"type": "0x2",
			"transactionHash": "0xa863a16c59ad6c3060a81e9087aa83107d3f11c5d54f92122f38d266bf1e01ad",
			"transactionIndex": "0x1",
			"blockHash": "0x2e7a7e2a72f642f1c0704d60a1e604a74b153386c396a348032c5f59b3a7fbe2",
			"blockNumber": "0x7ddc030",
			"gasUsed": "0x5c15a",
			"effectiveGasPrice": "0x5f5e100",
			"from": "0x08a74a0075a2c3a786a84439812a141c6c8b73f3",
			"to": "0xf82c07874b56c367e0815396207052820f49ddda",
			"contractAddress": null,
			"gasUsedForL1": "0x152df",
			"l1BlockNumber": "0x787151",
			"timeboosted": false
		}
	],
	"libraries": [],
	"pending": [],
	"returns": {},
	"timestamp": 1741863452,
	"chain": 421614,
	"commit": "59634fe"
}
