{
	"transactions": [
		{
			"hash": "0x08f650aab24839f0cfd16b31ca4b9608109f89842271960ebc383989c515f947",
			"transactionType": "CALL",
			"contractName": null,
			"contractAddress": "0x9bda20b5de5feffde41c60ffc4a4111d2173730b",
			"function": "createVault(string,string,address,address,address,address,uint256)",
			"arguments": [
				"RfyVault",
				"RfyVault",
				"0x9d10ad9c4D53a61eAA5AB5CD70050FFC322c6731",
				"0x08a74A0075a2C3A786A84439812a141C6C8b73f3",
				"0x08a74A0075a2C3A786A84439812a141C6C8b73f3",
				"0xC5989520cAa3700e3B8119b1A570bE335e768D8b",
				"10368000"
			],
			"transaction": {
				"from": "0x08a74a0075a2c3a786a84439812a141c6c8b73f3",
				"to": "0x9bda20b5de5feffde41c60ffc4a4111d2173730b",
				"gas": "0xcc223",
				"value": "0x0",
				"input": "0x8769b75900000000000000000000000000000000000000000000000000000000000000e000000000000000000000000000000000000000000000000000000000000001200000000000000000000000009d10ad9c4d53a61eaa5ab5cd70050ffc322c673100000000000000000000000008a74a0075a2c3a786a84439812a141c6c8b73f300000000000000000000000008a74a0075a2c3a786a84439812a141c6c8b73f3000000000000000000000000c5989520caa3700e3b8119b1a570be335e768d8b00000000000000000000000000000000000000000000000000000000009e3400000000000000000000000000000000000000000000000000000000000000000b537472796b655661756c74000000000000000000000000000000000000000000000000000000000000000000000000000000000000000000000000000000000b537472796b655661756c74000000000000000000000000000000000000000000",
				"nonce": "0x5fff",
				"chainId": "0x66eee"
			},
			"additionalContracts": [
				{
					"transactionType": "CREATE",
					"address": "0xcd0af564e47ab822a548c37f1c35e1fdce8f66c0",
					"initCode": "0x3d602d80600a3d3981f3363d3d373d3d3d363d73e0b5f247b1a2c9d9236adad6cd26d45acc0b76fa5af43d82803e903d91602b57fd5bf3"
				}
			],
			"isFixedGasLimit": false
		}
	],
	"receipts": [
		{
			"status": "0x1",
			"cumulativeGasUsed": "0x8b9a0",
			"logs": [
				{
					"address": "0xcd0af564e47ab822a548c37f1c35e1fdce8f66c0",
					"topics": [
						"0x2f8788117e7eff1d82e926ec794901d17c78024a50270940304540a733656f0d",
						"0x0000000000000000000000000000000000000000000000000000000000000000",
						"0x00000000000000000000000008a74a0075a2c3a786a84439812a141c6c8b73f3",
						"0x0000000000000000000000009bda20b5de5feffde41c60ffc4a4111d2173730b"
					],
					"data": "0x",
					"blockHash": "0xa93aa864f6eb181f00326fca5f6148df4a87f4d60f9d35d853d0dbfcb466a6a4",
					"blockNumber": "0x7d0f3f7",
					"transactionHash": "0x08f650aab24839f0cfd16b31ca4b9608109f89842271960ebc383989c515f947",
					"transactionIndex": "0x1",
					"logIndex": "0x0",
					"removed": false
				},
				{
					"address": "0xcd0af564e47ab822a548c37f1c35e1fdce8f66c0",
					"topics": [
						"0x2f8788117e7eff1d82e926ec794901d17c78024a50270940304540a733656f0d",
						"0xfacaf2747a7486cf5730e9265973fb54447d3ace6e7e4711f6360826b0731941",
						"0x00000000000000000000000008a74a0075a2c3a786a84439812a141c6c8b73f3",
						"0x0000000000000000000000009bda20b5de5feffde41c60ffc4a4111d2173730b"
					],
					"data": "0x",
					"blockHash": "0xa93aa864f6eb181f00326fca5f6148df4a87f4d60f9d35d853d0dbfcb466a6a4",
					"blockNumber": "0x7d0f3f7",
					"transactionHash": "0x08f650aab24839f0cfd16b31ca4b9608109f89842271960ebc383989c515f947",
					"transactionIndex": "0x1",
					"logIndex": "0x1",
					"removed": false
				},
				{
					"address": "0xcd0af564e47ab822a548c37f1c35e1fdce8f66c0",
					"topics": ["0xc7f505b2f371ae2175ee4913f4499e1f2633a7b5936321eed1cdaeb6115181d2"],
					"data": "0x0000000000000000000000000000000000000000000000000000000000000001",
					"blockHash": "0xa93aa864f6eb181f00326fca5f6148df4a87f4d60f9d35d853d0dbfcb466a6a4",
					"blockNumber": "0x7d0f3f7",
					"transactionHash": "0x08f650aab24839f0cfd16b31ca4b9608109f89842271960ebc383989c515f947",
					"transactionIndex": "0x1",
					"logIndex": "0x2",
					"removed": false
				},
				{
					"address": "0x9bda20b5de5feffde41c60ffc4a4111d2173730b",
					"topics": [
						"0x897c133dfbfe1f6239e98b4ffd7e4f6c86a62350a131a7a37790419f58af02f9",
						"0x000000000000000000000000cd0af564e47ab822a548c37f1c35e1fdce8f66c0"
					],
					"data": "0x0000000000000000000000009d10ad9c4d53a61eaa5ab5cd70050ffc322c6731000000000000000000000000c5989520caa3700e3b8119b1a570be335e768d8b",
					"blockHash": "0xa93aa864f6eb181f00326fca5f6148df4a87f4d60f9d35d853d0dbfcb466a6a4",
					"blockNumber": "0x7d0f3f7",
					"transactionHash": "0x08f650aab24839f0cfd16b31ca4b9608109f89842271960ebc383989c515f947",
					"transactionIndex": "0x1",
					"logIndex": "0x3",
					"removed": false
				}
			],
			"logsBloom": "0x00000004000000000000800000000000000000000000000000000000000000002000000000000000000000000000000000000000000000000000200200000000000000000000001000010080000000000000000000000000020000020000000000000000020000000000000000000a00000001000400000000000000000000000000000000000000000800000000000200000000000080402000000000000000000000000000000000001000000000000000000000000000001000000000200000000000000000000000000400004000200000000004000101000000000020000000000000000000000000000000000000000000000000000000000000000000",
			"type": "0x2",
			"transactionHash": "0x08f650aab24839f0cfd16b31ca4b9608109f89842271960ebc383989c515f947",
			"transactionIndex": "0x1",
			"blockHash": "0xa93aa864f6eb181f00326fca5f6148df4a87f4d60f9d35d853d0dbfcb466a6a4",
			"blockNumber": "0x7d0f3f7",
			"gasUsed": "0x8b9a0",
			"effectiveGasPrice": "0x5f5e100",
			"from": "0x08a74a0075a2c3a786a84439812a141c6c8b73f3",
			"to": "0x9bda20b5de5feffde41c60ffc4a4111d2173730b",
			"contractAddress": null,
			"gasUsedForL1": "0x44b25",
			"l1BlockNumber": "0x782937",
			"timeboosted": false
		}
	],
	"libraries": [],
	"pending": [],
	"returns": {},
	"timestamp": 1741627339,
	"chain": 421614,
	"commit": "ecf5be7"
}
