{
	"transactions": [
		{
			"hash": "0x657c53779bdb728d3c3c05bc56ab9ad1566a8d20582cea334ea19d748e7a2995",
			"transactionType": "CALL",
			"contractName": null,
			"contractAddress": "0xf82c07874b56c367e0815396207052820f49ddda",
			"function": "createVault(string,string,address,address,address,address,uint256)",
			"arguments": [
				"RfyVault",
				"RfyVault",
				"0x9d10ad9c4D53a61eAA5AB5CD70050FFC322c6731",
				"0x08a74A0075a2C3A786A84439812a141C6C8b73f3",
				"0x08a74A0075a2C3A786A84439812a141C6C8b73f3",
				"0xD55EA6B75D7D23710da20eD28F453fD0D263B86e",
				"600"
			],
			"transaction": {
				"from": "0x08a74a0075a2c3a786a84439812a141c6c8b73f3",
				"to": "0xf82c07874b56c367e0815396207052820f49ddda",
				"gas": "0x818a8",
				"value": "0x0",
				"input": "0x8769b75900000000000000000000000000000000000000000000000000000000000000e000000000000000000000000000000000000000000000000000000000000001200000000000000000000000009d10ad9c4d53a61eaa5ab5cd70050ffc322c673100000000000000000000000008a74a0075a2c3a786a84439812a141c6c8b73f300000000000000000000000008a74a0075a2c3a786a84439812a141c6c8b73f3000000000000000000000000d55ea6b75d7d23710da20ed28f453fd0d263b86e0000000000000000000000000000000000000000000000000000000000000258000000000000000000000000000000000000000000000000000000000000000b537472796b655661756c74000000000000000000000000000000000000000000000000000000000000000000000000000000000000000000000000000000000b537472796b655661756c74000000000000000000000000000000000000000000",
				"nonce": "0x602c",
				"chainId": "0x66eee"
			},
			"additionalContracts": [
				{
					"transactionType": "CREATE",
					"address": "0xb4e413fa5b465d56c60161b60288e343f1819df1",
					"initCode": "0x3d602d80600a3d3981f3363d3d373d3d3d363d739fa81e2ee5febc737b5a1b1ada4d1314fa1305245af43d82803e903d91602b57fd5bf3"
				}
			],
			"isFixedGasLimit": false
		}
	],
	"receipts": [
		{
			"status": "0x1",
			"cumulativeGasUsed": "0x8f134",
			"logs": [
				{
					"address": "0xb4e413fa5b465d56c60161b60288e343f1819df1",
					"topics": [
						"0x2f8788117e7eff1d82e926ec794901d17c78024a50270940304540a733656f0d",
						"0x0000000000000000000000000000000000000000000000000000000000000000",
						"0x00000000000000000000000008a74a0075a2c3a786a84439812a141c6c8b73f3",
						"0x000000000000000000000000f82c07874b56c367e0815396207052820f49ddda"
					],
					"data": "0x",
					"blockHash": "0x202a9f929d7f9f8702db33a9ca48c85f8d715330aadf22cc6bca34e75154f764",
					"blockNumber": "0x7ddc1ae",
					"transactionHash": "0x657c53779bdb728d3c3c05bc56ab9ad1566a8d20582cea334ea19d748e7a2995",
					"transactionIndex": "0x2",
					"logIndex": "0x1",
					"removed": false
				},
				{
					"address": "0xb4e413fa5b465d56c60161b60288e343f1819df1",
					"topics": [
						"0x2f8788117e7eff1d82e926ec794901d17c78024a50270940304540a733656f0d",
						"0xfacaf2747a7486cf5730e9265973fb54447d3ace6e7e4711f6360826b0731941",
						"0x00000000000000000000000008a74a0075a2c3a786a84439812a141c6c8b73f3",
						"0x000000000000000000000000f82c07874b56c367e0815396207052820f49ddda"
					],
					"data": "0x",
					"blockHash": "0x202a9f929d7f9f8702db33a9ca48c85f8d715330aadf22cc6bca34e75154f764",
					"blockNumber": "0x7ddc1ae",
					"transactionHash": "0x657c53779bdb728d3c3c05bc56ab9ad1566a8d20582cea334ea19d748e7a2995",
					"transactionIndex": "0x2",
					"logIndex": "0x2",
					"removed": false
				},
				{
					"address": "0xb4e413fa5b465d56c60161b60288e343f1819df1",
					"topics": ["0xc7f505b2f371ae2175ee4913f4499e1f2633a7b5936321eed1cdaeb6115181d2"],
					"data": "0x0000000000000000000000000000000000000000000000000000000000000001",
					"blockHash": "0x202a9f929d7f9f8702db33a9ca48c85f8d715330aadf22cc6bca34e75154f764",
					"blockNumber": "0x7ddc1ae",
					"transactionHash": "0x657c53779bdb728d3c3c05bc56ab9ad1566a8d20582cea334ea19d748e7a2995",
					"transactionIndex": "0x2",
					"logIndex": "0x3",
					"removed": false
				},
				{
					"address": "0xf82c07874b56c367e0815396207052820f49ddda",
					"topics": [
						"0x897c133dfbfe1f6239e98b4ffd7e4f6c86a62350a131a7a37790419f58af02f9",
						"0x000000000000000000000000b4e413fa5b465d56c60161b60288e343f1819df1"
					],
					"data": "0x0000000000000000000000009d10ad9c4d53a61eaa5ab5cd70050ffc322c6731000000000000000000000000d55ea6b75d7d23710da20ed28f453fd0d263b86e",
					"blockHash": "0x202a9f929d7f9f8702db33a9ca48c85f8d715330aadf22cc6bca34e75154f764",
					"blockNumber": "0x7ddc1ae",
					"transactionHash": "0x657c53779bdb728d3c3c05bc56ab9ad1566a8d20582cea334ea19d748e7a2995",
					"transactionIndex": "0x2",
					"logIndex": "0x4",
					"removed": false
				}
			],
			"logsBloom": "0x00000004000000000000000000000000000000000000000000000000000000000000000000000000000000000000000000100000000000000000200200000000000000001000001000000000000000000000000000000000030000020000000000000000020000000000000000000800000000000400000000000000000000000000000000000080000800000000000000000000000080400000000000000008000000000000000004000000010000000000000000000000001080000000200000000000000000000000000000000000000000000904000101000000000020000000000000000000000010000040000000000000000000000000000000000000",
			"type": "0x2",
			"transactionHash": "0x657c53779bdb728d3c3c05bc56ab9ad1566a8d20582cea334ea19d748e7a2995",
			"transactionIndex": "0x2",
			"blockHash": "0x202a9f929d7f9f8702db33a9ca48c85f8d715330aadf22cc6bca34e75154f764",
			"blockNumber": "0x7ddc1ae",
			"gasUsed": "0x5c791",
			"effectiveGasPrice": "0x5f5e100",
			"from": "0x08a74a0075a2c3a786a84439812a141c6c8b73f3",
			"to": "0xf82c07874b56c367e0815396207052820f49ddda",
			"contractAddress": null,
			"gasUsedForL1": "0x15916",
			"l1BlockNumber": "0x78715b",
			"timeboosted": false
		}
	],
	"libraries": [],
	"pending": [],
	"returns": {},
	"timestamp": 1741863572,
	"chain": 421614,
	"commit": "59634fe"
}
