{
	"transactions": [
		{
			"hash": "0x426df5c485c9e2a6a949deb2c7245a6a0738e4e0624fdc46960be3ab2bf908e1",
			"transactionType": "CALL",
			"contractName": null,
			"contractAddress": "0x9bda20b5de5feffde41c60ffc4a4111d2173730b",
			"function": "createVault(string,string,address,address,address,address,uint256)",
			"arguments": [
				"RfyVault",
				"RfyVault",
				"0x09b1e5f6e53FE41C5CA171F547c71b76044e29Ed",
				"0x08a74A0075a2C3A786A84439812a141C6C8b73f3",
				"0x08a74A0075a2C3A786A84439812a141C6C8b73f3",
				"0xb81246518A9b53aa1C6D400444629B2AE266B443",
				"2592000"
			],
			"transaction": {
				"from": "0x08a74a0075a2c3a786a84439812a141c6c8b73f3",
				"to": "0x9bda20b5de5feffde41c60ffc4a4111d2173730b",
				"gas": "0xc88f5",
				"value": "0x0",
				"input": "0x8769b75900000000000000000000000000000000000000000000000000000000000000e0000000000000000000000000000000000000000000000000000000000000012000000000000000000000000009b1e5f6e53fe41c5ca171f547c71b76044e29ed00000000000000000000000008a74a0075a2c3a786a84439812a141c6c8b73f300000000000000000000000008a74a0075a2c3a786a84439812a141c6c8b73f3000000000000000000000000b81246518a9b53aa1c6d400444629b2ae266b4430000000000000000000000000000000000000000000000000000000000278d00000000000000000000000000000000000000000000000000000000000000000b537472796b655661756c74000000000000000000000000000000000000000000000000000000000000000000000000000000000000000000000000000000000b537472796b655661756c74000000000000000000000000000000000000000000",
				"nonce": "0x5ffc",
				"chainId": "0x66eee"
			},
			"additionalContracts": [
				{
					"transactionType": "CREATE",
					"address": "0x2303fa4f215adbb41b4c08c49ab59fdc4a249bca",
					"initCode": "0x3d602d80600a3d3981f3363d3d373d3d3d363d73e0b5f247b1a2c9d9236adad6cd26d45acc0b76fa5af43d82803e903d91602b57fd5bf3"
				}
			],
			"isFixedGasLimit": false
		}
	],
	"receipts": [
		{
			"status": "0x1",
			"cumulativeGasUsed": "0xd5177",
			"logs": [
				{
					"address": "0x2303fa4f215adbb41b4c08c49ab59fdc4a249bca",
					"topics": [
						"0x2f8788117e7eff1d82e926ec794901d17c78024a50270940304540a733656f0d",
						"0x0000000000000000000000000000000000000000000000000000000000000000",
						"0x00000000000000000000000008a74a0075a2c3a786a84439812a141c6c8b73f3",
						"0x0000000000000000000000009bda20b5de5feffde41c60ffc4a4111d2173730b"
					],
					"data": "0x",
					"blockHash": "0x01ebfb90f25cb039c12af4159e429a456cd5b5f5faef90eafee432ad384e7e78",
					"blockNumber": "0x7d0ef46",
					"transactionHash": "0x426df5c485c9e2a6a949deb2c7245a6a0738e4e0624fdc46960be3ab2bf908e1",
					"transactionIndex": "0x2",
					"logIndex": "0x0",
					"removed": false
				},
				{
					"address": "0x2303fa4f215adbb41b4c08c49ab59fdc4a249bca",
					"topics": [
						"0x2f8788117e7eff1d82e926ec794901d17c78024a50270940304540a733656f0d",
						"0xfacaf2747a7486cf5730e9265973fb54447d3ace6e7e4711f6360826b0731941",
						"0x00000000000000000000000008a74a0075a2c3a786a84439812a141c6c8b73f3",
						"0x0000000000000000000000009bda20b5de5feffde41c60ffc4a4111d2173730b"
					],
					"data": "0x",
					"blockHash": "0x01ebfb90f25cb039c12af4159e429a456cd5b5f5faef90eafee432ad384e7e78",
					"blockNumber": "0x7d0ef46",
					"transactionHash": "0x426df5c485c9e2a6a949deb2c7245a6a0738e4e0624fdc46960be3ab2bf908e1",
					"transactionIndex": "0x2",
					"logIndex": "0x1",
					"removed": false
				},
				{
					"address": "0x2303fa4f215adbb41b4c08c49ab59fdc4a249bca",
					"topics": ["0xc7f505b2f371ae2175ee4913f4499e1f2633a7b5936321eed1cdaeb6115181d2"],
					"data": "0x0000000000000000000000000000000000000000000000000000000000000001",
					"blockHash": "0x01ebfb90f25cb039c12af4159e429a456cd5b5f5faef90eafee432ad384e7e78",
					"blockNumber": "0x7d0ef46",
					"transactionHash": "0x426df5c485c9e2a6a949deb2c7245a6a0738e4e0624fdc46960be3ab2bf908e1",
					"transactionIndex": "0x2",
					"logIndex": "0x2",
					"removed": false
				},
				{
					"address": "0x9bda20b5de5feffde41c60ffc4a4111d2173730b",
					"topics": [
						"0x897c133dfbfe1f6239e98b4ffd7e4f6c86a62350a131a7a37790419f58af02f9",
						"0x0000000000000000000000002303fa4f215adbb41b4c08c49ab59fdc4a249bca"
					],
					"data": "0x00000000000000000000000009b1e5f6e53fe41c5ca171f547c71b76044e29ed000000000000000000000000b81246518a9b53aa1c6d400444629b2ae266b443",
					"blockHash": "0x01ebfb90f25cb039c12af4159e429a456cd5b5f5faef90eafee432ad384e7e78",
					"blockNumber": "0x7d0ef46",
					"transactionHash": "0x426df5c485c9e2a6a949deb2c7245a6a0738e4e0624fdc46960be3ab2bf908e1",
					"transactionIndex": "0x2",
					"logIndex": "0x3",
					"removed": false
				}
			],
			"logsBloom": "0x00000004000000000000001000000000000000000000000000000000000000012000000000000000000000000000000000000000000000000000200200000000000000000000001000000080000000000000000000000000020000020000000000000000020000020000000000000800000001000400000000000000000000000000000008000000000800000000000000000000000080402000000000000000000000000000000000000000000000000000000000000000001000000000200000000000000000000000000400004002002000000004000101000000000020000000000000000000000000000000000000000000000000000000000000000000",
			"type": "0x2",
			"transactionHash": "0x426df5c485c9e2a6a949deb2c7245a6a0738e4e0624fdc46960be3ab2bf908e1",
			"transactionIndex": "0x2",
			"blockHash": "0x01ebfb90f25cb039c12af4159e429a456cd5b5f5faef90eafee432ad384e7e78",
			"blockNumber": "0x7d0ef46",
			"gasUsed": "0x888e4",
			"effectiveGasPrice": "0x5f5e100",
			"from": "0x08a74a0075a2c3a786a84439812a141c6c8b73f3",
			"to": "0x9bda20b5de5feffde41c60ffc4a4111d2173730b",
			"contractAddress": null,
			"gasUsedForL1": "0x41a69",
			"l1BlockNumber": "0x782920",
			"timeboosted": false
		}
	],
	"libraries": [],
	"pending": [],
	"returns": {},
	"timestamp": 1741627030,
	"chain": 421614,
	"commit": "ecf5be7"
}
