{
	"transactions": [
		{
			"hash": "0x0ce7de031fd7301484d3cb25af062639691ab1ae9dcee437a568e038a15766a4",
			"transactionType": "CALL",
			"contractName": null,
			"contractAddress": "0xf82c07874b56c367e0815396207052820f49ddda",
			"function": "createVault(string,string,address,address,address,address,uint256)",
			"arguments": [
				"RfyVault",
				"RfyVault",
				"0x09b1e5f6e53FE41C5CA171F547c71b76044e29Ed",
				"0x08a74A0075a2C3A786A84439812a141C6C8b73f3",
				"0x08a74A0075a2C3A786A84439812a141C6C8b73f3",
				"0x95379770C92c466b2a101915cf15B563d3A69AD4",
				"1200"
			],
			"transaction": {
				"from": "0x08a74a0075a2c3a786a84439812a141c6c8b73f3",
				"to": "0xf82c07874b56c367e0815396207052820f49ddda",
				"gas": "0x80f88",
				"value": "0x0",
				"input": "0x8769b75900000000000000000000000000000000000000000000000000000000000000e0000000000000000000000000000000000000000000000000000000000000012000000000000000000000000009b1e5f6e53fe41c5ca171f547c71b76044e29ed00000000000000000000000008a74a0075a2c3a786a84439812a141c6c8b73f300000000000000000000000008a74a0075a2c3a786a84439812a141c6c8b73f300000000000000000000000095379770c92c466b2a101915cf15b563d3a69ad400000000000000000000000000000000000000000000000000000000000004b0000000000000000000000000000000000000000000000000000000000000000b537472796b655661756c74000000000000000000000000000000000000000000000000000000000000000000000000000000000000000000000000000000000b537472796b655661756c74000000000000000000000000000000000000000000",
				"nonce": "0x602b",
				"chainId": "0x66eee"
			},
			"additionalContracts": [
				{
					"transactionType": "CREATE",
					"address": "0x5ca5aa9ca6d071d9555768a8c29c725f1ce3ee10",
					"initCode": "0x3d602d80600a3d3981f3363d3d373d3d3d363d739fa81e2ee5febc737b5a1b1ada4d1314fa1305245af43d82803e903d91602b57fd5bf3"
				}
			],
			"isFixedGasLimit": false
		}
	],
	"receipts": [
		{
			"status": "0x1",
			"cumulativeGasUsed": "0x5cdc9",
			"logs": [
				{
					"address": "0x5ca5aa9ca6d071d9555768a8c29c725f1ce3ee10",
					"topics": [
						"0x2f8788117e7eff1d82e926ec794901d17c78024a50270940304540a733656f0d",
						"0x0000000000000000000000000000000000000000000000000000000000000000",
						"0x00000000000000000000000008a74a0075a2c3a786a84439812a141c6c8b73f3",
						"0x000000000000000000000000f82c07874b56c367e0815396207052820f49ddda"
					],
					"data": "0x",
					"blockHash": "0x6541ab233b4f212a0082a43513ca7ce30daada77dc47c8ba835186bf4aa470b3",
					"blockNumber": "0x7ddc0ec",
					"transactionHash": "0x0ce7de031fd7301484d3cb25af062639691ab1ae9dcee437a568e038a15766a4",
					"transactionIndex": "0x1",
					"logIndex": "0x0",
					"removed": false
				},
				{
					"address": "0x5ca5aa9ca6d071d9555768a8c29c725f1ce3ee10",
					"topics": [
						"0x2f8788117e7eff1d82e926ec794901d17c78024a50270940304540a733656f0d",
						"0xfacaf2747a7486cf5730e9265973fb54447d3ace6e7e4711f6360826b0731941",
						"0x00000000000000000000000008a74a0075a2c3a786a84439812a141c6c8b73f3",
						"0x000000000000000000000000f82c07874b56c367e0815396207052820f49ddda"
					],
					"data": "0x",
					"blockHash": "0x6541ab233b4f212a0082a43513ca7ce30daada77dc47c8ba835186bf4aa470b3",
					"blockNumber": "0x7ddc0ec",
					"transactionHash": "0x0ce7de031fd7301484d3cb25af062639691ab1ae9dcee437a568e038a15766a4",
					"transactionIndex": "0x1",
					"logIndex": "0x1",
					"removed": false
				},
				{
					"address": "0x5ca5aa9ca6d071d9555768a8c29c725f1ce3ee10",
					"topics": ["0xc7f505b2f371ae2175ee4913f4499e1f2633a7b5936321eed1cdaeb6115181d2"],
					"data": "0x0000000000000000000000000000000000000000000000000000000000000001",
					"blockHash": "0x6541ab233b4f212a0082a43513ca7ce30daada77dc47c8ba835186bf4aa470b3",
					"blockNumber": "0x7ddc0ec",
					"transactionHash": "0x0ce7de031fd7301484d3cb25af062639691ab1ae9dcee437a568e038a15766a4",
					"transactionIndex": "0x1",
					"logIndex": "0x2",
					"removed": false
				},
				{
					"address": "0xf82c07874b56c367e0815396207052820f49ddda",
					"topics": [
						"0x897c133dfbfe1f6239e98b4ffd7e4f6c86a62350a131a7a37790419f58af02f9",
						"0x0000000000000000000000005ca5aa9ca6d071d9555768a8c29c725f1ce3ee10"
					],
					"data": "0x00000000000000000000000009b1e5f6e53fe41c5ca171f547c71b76044e29ed00000000000000000000000095379770c92c466b2a101915cf15b563d3a69ad4",
					"blockHash": "0x6541ab233b4f212a0082a43513ca7ce30daada77dc47c8ba835186bf4aa470b3",
					"blockNumber": "0x7ddc0ec",
					"transactionHash": "0x0ce7de031fd7301484d3cb25af062639691ab1ae9dcee437a568e038a15766a4",
					"transactionIndex": "0x1",
					"logIndex": "0x3",
					"removed": false
				}
			],
			"logsBloom": "0x00000004000000000000000000000000000000000000000000000002000000000000000080000000000000000000000000000000000000000000200200000000000000000000001000000000000000000000000000000000030000020000000000000000020000000000000000000800000000000500000000000000000000000000000000000000000800000000000000000000008080400000000000000000000000000000000004000000010000000000000000000000001080000000202000000000000000000000000000040000000000000104000101000000000020000000000000000000000000000040000000000000000000000000000000000000",
			"type": "0x2",
			"transactionHash": "0x0ce7de031fd7301484d3cb25af062639691ab1ae9dcee437a568e038a15766a4",
			"transactionIndex": "0x1",
			"blockHash": "0x6541ab233b4f212a0082a43513ca7ce30daada77dc47c8ba835186bf4aa470b3",
			"blockNumber": "0x7ddc0ec",
			"gasUsed": "0x5cdc9",
			"effectiveGasPrice": "0x5f5e100",
			"from": "0x08a74a0075a2c3a786a84439812a141c6c8b73f3",
			"to": "0xf82c07874b56c367e0815396207052820f49ddda",
			"contractAddress": null,
			"gasUsedForL1": "0x15f4e",
			"l1BlockNumber": "0x787156",
			"timeboosted": false
		}
	],
	"libraries": [],
	"pending": [],
	"returns": {},
	"timestamp": 1741863508,
	"chain": 421614,
	"commit": "59634fe"
}
